{
  "address": "0x2152220456Ba96d24Ac9873B1A71ad414CA97e84",
  "abi": [
    {
      "inputs": [
        {
          "internalType": "address",
          "name": "_authority",
          "type": "address"
        }
      ],
      "stateMutability": "nonpayable",
      "type": "constructor"
    },
    {
      "anonymous": false,
      "inputs": [
        {
          "indexed": true,
          "internalType": "address",
          "name": "owner",
          "type": "address"
        },
        {
          "indexed": true,
          "internalType": "address",
          "name": "spender",
          "type": "address"
        },
        {
          "indexed": false,
          "internalType": "uint256",
          "name": "value",
          "type": "uint256"
        }
      ],
      "name": "Approval",
      "type": "event"
    },
    {
      "anonymous": false,
      "inputs": [
        {
          "indexed": true,
          "internalType": "contract ITheopetraAuthority",
          "name": "authority",
          "type": "address"
        }
      ],
      "name": "AuthorityUpdated",
      "type": "event"
    },
    {
      "anonymous": false,
      "inputs": [
        {
          "indexed": true,
          "internalType": "uint256",
          "name": "epoch",
          "type": "uint256"
        },
        {
          "indexed": false,
          "internalType": "uint256",
          "name": "rebase",
          "type": "uint256"
        },
        {
          "indexed": false,
          "internalType": "uint256",
          "name": "index",
          "type": "uint256"
        }
      ],
      "name": "LogRebase",
      "type": "event"
    },
    {
      "anonymous": false,
      "inputs": [
        {
          "indexed": false,
          "internalType": "address",
          "name": "stakingContract",
          "type": "address"
        }
      ],
      "name": "LogStakingContractUpdated",
      "type": "event"
    },
    {
      "anonymous": false,
      "inputs": [
        {
          "indexed": true,
          "internalType": "uint256",
          "name": "epoch",
          "type": "uint256"
        },
        {
          "indexed": false,
          "internalType": "uint256",
          "name": "timestamp",
          "type": "uint256"
        },
        {
          "indexed": false,
          "internalType": "uint256",
          "name": "totalSupply",
          "type": "uint256"
        }
      ],
      "name": "LogSupply",
      "type": "event"
    },
    {
      "anonymous": false,
      "inputs": [
        {
          "indexed": true,
          "internalType": "address",
          "name": "from",
          "type": "address"
        },
        {
          "indexed": true,
          "internalType": "address",
          "name": "to",
          "type": "address"
        },
        {
          "indexed": false,
          "internalType": "uint256",
          "name": "value",
          "type": "uint256"
        }
      ],
      "name": "Transfer",
      "type": "event"
    },
    {
      "inputs": [],
      "name": "DOMAIN_SEPARATOR",
      "outputs": [
        {
          "internalType": "bytes32",
          "name": "",
          "type": "bytes32"
        }
      ],
      "stateMutability": "view",
      "type": "function"
    },
    {
      "inputs": [],
      "name": "INDEX",
      "outputs": [
        {
          "internalType": "uint256",
          "name": "",
          "type": "uint256"
        }
      ],
      "stateMutability": "view",
      "type": "function"
    },
    {
      "inputs": [],
      "name": "PERMIT_TYPEHASH",
      "outputs": [
        {
          "internalType": "bytes32",
          "name": "",
          "type": "bytes32"
        }
      ],
      "stateMutability": "view",
      "type": "function"
    },
    {
      "inputs": [
        {
          "internalType": "address",
          "name": "owner_",
          "type": "address"
        },
        {
          "internalType": "address",
          "name": "spender",
          "type": "address"
        }
      ],
      "name": "allowance",
      "outputs": [
        {
          "internalType": "uint256",
          "name": "",
          "type": "uint256"
        }
      ],
      "stateMutability": "view",
      "type": "function"
    },
    {
      "inputs": [
        {
          "internalType": "address",
          "name": "spender",
          "type": "address"
        },
        {
          "internalType": "uint256",
          "name": "value",
          "type": "uint256"
        }
      ],
      "name": "approve",
      "outputs": [
        {
          "internalType": "bool",
          "name": "",
          "type": "bool"
        }
      ],
      "stateMutability": "nonpayable",
      "type": "function"
    },
    {
      "inputs": [],
      "name": "authority",
      "outputs": [
        {
          "internalType": "contract ITheopetraAuthority",
          "name": "",
          "type": "address"
        }
      ],
      "stateMutability": "view",
      "type": "function"
    },
    {
      "inputs": [
        {
          "internalType": "uint256",
          "name": "gons",
          "type": "uint256"
        }
      ],
      "name": "balanceForGons",
      "outputs": [
        {
          "internalType": "uint256",
          "name": "",
          "type": "uint256"
        }
      ],
      "stateMutability": "view",
      "type": "function"
    },
    {
      "inputs": [
        {
          "internalType": "address",
          "name": "who",
          "type": "address"
        }
      ],
      "name": "balanceOf",
      "outputs": [
        {
          "internalType": "uint256",
          "name": "",
          "type": "uint256"
        }
      ],
      "stateMutability": "view",
      "type": "function"
    },
    {
      "inputs": [],
      "name": "circulatingSupply",
      "outputs": [
        {
          "internalType": "uint256",
          "name": "",
          "type": "uint256"
        }
      ],
      "stateMutability": "view",
      "type": "function"
    },
    {
      "inputs": [],
      "name": "decimals",
      "outputs": [
        {
          "internalType": "uint8",
          "name": "",
          "type": "uint8"
        }
      ],
      "stateMutability": "view",
      "type": "function"
    },
    {
      "inputs": [
        {
          "internalType": "address",
          "name": "spender",
          "type": "address"
        },
        {
          "internalType": "uint256",
          "name": "subtractedValue",
          "type": "uint256"
        }
      ],
      "name": "decreaseAllowance",
      "outputs": [
        {
          "internalType": "bool",
          "name": "",
          "type": "bool"
        }
      ],
      "stateMutability": "nonpayable",
      "type": "function"
    },
    {
      "inputs": [
        {
          "internalType": "uint256",
          "name": "amount",
          "type": "uint256"
        }
      ],
      "name": "gonsForBalance",
      "outputs": [
        {
          "internalType": "uint256",
          "name": "",
          "type": "uint256"
        }
      ],
      "stateMutability": "view",
      "type": "function"
    },
    {
      "inputs": [
        {
          "internalType": "address",
          "name": "spender",
          "type": "address"
        },
        {
          "internalType": "uint256",
          "name": "addedValue",
          "type": "uint256"
        }
      ],
      "name": "increaseAllowance",
      "outputs": [
        {
          "internalType": "bool",
          "name": "",
          "type": "bool"
        }
      ],
      "stateMutability": "nonpayable",
      "type": "function"
    },
    {
      "inputs": [],
      "name": "index",
      "outputs": [
        {
          "internalType": "uint256",
          "name": "",
          "type": "uint256"
        }
      ],
      "stateMutability": "view",
      "type": "function"
    },
    {
      "inputs": [
        {
          "internalType": "address",
          "name": "stakingContract_",
          "type": "address"
        }
      ],
      "name": "initialize",
      "outputs": [
        {
          "internalType": "bool",
          "name": "",
          "type": "bool"
        }
      ],
      "stateMutability": "nonpayable",
      "type": "function"
    },
    {
      "inputs": [],
      "name": "initializer",
      "outputs": [
        {
          "internalType": "address",
          "name": "",
          "type": "address"
        }
      ],
      "stateMutability": "view",
      "type": "function"
    },
    {
      "inputs": [],
      "name": "name",
      "outputs": [
        {
          "internalType": "string",
          "name": "",
          "type": "string"
        }
      ],
      "stateMutability": "view",
      "type": "function"
    },
    {
      "inputs": [
        {
          "internalType": "address",
          "name": "owner",
          "type": "address"
        }
      ],
      "name": "nonces",
      "outputs": [
        {
          "internalType": "uint256",
          "name": "",
          "type": "uint256"
        }
      ],
      "stateMutability": "view",
      "type": "function"
    },
    {
      "inputs": [
        {
          "internalType": "address",
          "name": "owner",
          "type": "address"
        },
        {
          "internalType": "address",
          "name": "spender",
          "type": "address"
        },
        {
          "internalType": "uint256",
          "name": "amount",
          "type": "uint256"
        },
        {
          "internalType": "uint256",
          "name": "deadline",
          "type": "uint256"
        },
        {
          "internalType": "uint8",
          "name": "v",
          "type": "uint8"
        },
        {
          "internalType": "bytes32",
          "name": "r",
          "type": "bytes32"
        },
        {
          "internalType": "bytes32",
          "name": "s",
          "type": "bytes32"
        }
      ],
      "name": "permit",
      "outputs": [],
      "stateMutability": "nonpayable",
      "type": "function"
    },
    {
      "inputs": [
        {
          "internalType": "uint256",
          "name": "profit_",
          "type": "uint256"
        },
        {
          "internalType": "uint256",
          "name": "epoch_",
          "type": "uint256"
        }
      ],
      "name": "rebase",
      "outputs": [
        {
          "internalType": "uint256",
          "name": "",
          "type": "uint256"
        }
      ],
      "stateMutability": "nonpayable",
      "type": "function"
    },
    {
      "inputs": [
        {
          "internalType": "uint256",
          "name": "",
          "type": "uint256"
        }
      ],
      "name": "rebases",
      "outputs": [
        {
          "internalType": "uint256",
          "name": "epoch",
          "type": "uint256"
        },
        {
          "internalType": "uint256",
          "name": "rebase",
          "type": "uint256"
        },
        {
          "internalType": "uint256",
          "name": "totalStakedBefore",
          "type": "uint256"
        },
        {
          "internalType": "uint256",
          "name": "totalStakedAfter",
          "type": "uint256"
        },
        {
          "internalType": "uint256",
          "name": "amountRebased",
          "type": "uint256"
        },
        {
          "internalType": "uint256",
          "name": "index",
          "type": "uint256"
        },
        {
          "internalType": "uint256",
          "name": "blockNumberOccured",
          "type": "uint256"
        }
      ],
      "stateMutability": "view",
      "type": "function"
    },
    {
      "inputs": [
        {
          "internalType": "contract ITheopetraAuthority",
          "name": "_newAuthority",
          "type": "address"
        }
      ],
      "name": "setAuthority",
      "outputs": [],
      "stateMutability": "nonpayable",
      "type": "function"
    },
    {
      "inputs": [
        {
          "internalType": "uint256",
          "name": "_INDEX",
          "type": "uint256"
        }
      ],
      "name": "setIndex",
      "outputs": [
        {
          "internalType": "bool",
          "name": "",
          "type": "bool"
        }
      ],
      "stateMutability": "nonpayable",
      "type": "function"
    },
    {
      "inputs": [],
      "name": "stakingContract",
      "outputs": [
        {
          "internalType": "address",
          "name": "",
          "type": "address"
        }
      ],
      "stateMutability": "view",
      "type": "function"
    },
    {
      "inputs": [],
      "name": "symbol",
      "outputs": [
        {
          "internalType": "string",
          "name": "",
          "type": "string"
        }
      ],
      "stateMutability": "view",
      "type": "function"
    },
    {
      "inputs": [],
      "name": "totalSupply",
      "outputs": [
        {
          "internalType": "uint256",
          "name": "",
          "type": "uint256"
        }
      ],
      "stateMutability": "view",
      "type": "function"
    },
    {
      "inputs": [
        {
          "internalType": "address",
          "name": "to",
          "type": "address"
        },
        {
          "internalType": "uint256",
          "name": "value",
          "type": "uint256"
        }
      ],
      "name": "transfer",
      "outputs": [
        {
          "internalType": "bool",
          "name": "",
          "type": "bool"
        }
      ],
      "stateMutability": "nonpayable",
      "type": "function"
    },
    {
      "inputs": [
        {
          "internalType": "address",
          "name": "from",
          "type": "address"
        },
        {
          "internalType": "address",
          "name": "to",
          "type": "address"
        },
        {
          "internalType": "uint256",
          "name": "value",
          "type": "uint256"
        }
      ],
      "name": "transferFrom",
      "outputs": [
        {
          "internalType": "bool",
          "name": "",
          "type": "bool"
        }
      ],
      "stateMutability": "nonpayable",
      "type": "function"
    },
    {
      "inputs": [],
      "name": "treasury",
      "outputs": [
        {
          "internalType": "address",
          "name": "",
          "type": "address"
        }
      ],
      "stateMutability": "view",
      "type": "function"
    }
  ],
  "transactionHash": "0xb8ed76d390e45c902614979afa493cbb4383aa9557ba637fa58c8b230168a8e4",
  "args": [
    "0xBcdF034cE6624A817c1BfEffBDE8691443e5fDbB"
  ],
  "numDeployments": 1,
  "solcInputHash": "446a1be813bfb9f78647a023efb0da17",
  "bytecode": "0x60e0604052600c60a08190526b15539055551213d49256915160a21b60c09081526200002f9160079190620003dc565b503480156200003d57600080fd5b5060405162001d1838038062001d18833981810160405260208110156200006357600080fd5b5051604080518082018252601481527f506c6174696e756d205374616b6564205468656f000000000000000000000000602082810191825283518085019094526005845264705448454f60d81b908401528151849391600991620000ca91600391620003dc565b508151620000e0906004906020850190620003dc565b5060f81b7fff0000000000000000000000000000000000000000000000000000000000000016608052504690507f8b73c3c69bb8fe3d512ecc4cf759cc79239f7b179b0ffacaa9a75d522b39400f620001386200024a565b805160209182012060408051808201825260018152603160f81b90840152805180840194909452838101919091527fc89efdaa54c0f20c7adf612882df0950f5a951637e0307cdcb4c672f298b8bc6606084015260808301939093523060a0808401919091528351808403909101815260c0909201928390528151910120600655600880546001600160a01b0319166001600160a01b038416908117909155907f2f658b440c35314f52658ea8a740e05b284cdc84dc9ae01e891f21b8933e7cad90600090a250600a80546001600160a01b031916331790556611c37937e0800060028190556200024090806000190660001903620002e460201b6200140a1790919060201c565b600d555062000488565b60038054604080516020601f6002600019610100600188161502019095169490940493840181900481028201810190925282815260609390929091830182828015620002da5780601f10620002ae57610100808354040283529160200191620002da565b820191906000526020600020905b815481529060010190602001808311620002bc57829003601f168201915b5050505050905090565b60006200032e83836040518060400160405280601a81526020017f536166654d6174683a206469766973696f6e206279207a65726f0000000000008152506200033560201b60201c565b9392505050565b60008183620003c55760405162461bcd60e51b81526004018080602001828103825283818151815260200191508051906020019080838360005b83811015620003895781810151838201526020016200036f565b50505050905090810190601f168015620003b75780820380516001836020036101000a031916815260200191505b509250505060405180910390fd5b506000838581620003d257fe5b0495945050505050565b828054600181600116156101000203166002900490600052602060002090601f0160209004810192826200041457600085556200045f565b82601f106200042f57805160ff19168380011785556200045f565b828001600101855582156200045f579182015b828111156200045f57825182559160200191906001019062000442565b506200046d92915062000471565b5090565b5b808211156200046d576000815560010162000472565b60805160f81c611872620004a660003980610a1e52506118726000f3fe608060405234801561001057600080fd5b50600436106101cf5760003560e01c806370a08231116101045780639ce110d7116100a2578063c4d66de811610071578063c4d66de81461052a578063d505accf14610550578063dd62ed3e146105a1578063ee99205c146105cf576101cf565b80639ce110d7146104c2578063a457c2d7146104ca578063a9059cbb146104f6578063bf7e214f14610522576101cf565b80637a9e5e4b116100de5780637a9e5e4b146104645780637ecebe001461048c5780639358928b146104b257806395d89b41146104ba576101cf565b806370a08231146103cc57806373c69eb7146103f25780637965d56d14610447576101cf565b80632df75cb1116101715780633644e5151161014b5780633644e51514610357578063395093511461035f57806340a5737f1461038b57806361d027b3146103a8576101cf565b80632df75cb11461032957806330adf81f14610331578063313ce56714610339576101cf565b806318160ddd116101ad57806318160ddd146102c65780631bd39674146102ce57806323b872dd146102eb5780632986c0e514610321576101cf565b8063058ecdb4146101d457806306fdde0314610209578063095ea7b314610286575b600080fd5b6101f7600480360360408110156101ea57600080fd5b50803590602001356105d7565b60408051918252519081900360200190f35b61021161077b565b6040805160208082528351818301528351919283929083019185019080838360005b8381101561024b578181015183820152602001610233565b50505050905090810190601f1680156102785780820380516001836020036101000a031916815260200191505b509250505060405180910390f35b6102b26004803603604081101561029c57600080fd5b506001600160a01b038135169060200135610811565b604080519115158252519081900360200190f35b6101f7610877565b6101f7600480360360208110156102e457600080fd5b503561087d565b6102b26004803603606081101561030157600080fd5b506001600160a01b03813581169160208101359091169060400135610894565b6101f76109e0565b6101f76109f2565b6101f76109f8565b610341610a1c565b6040805160ff9092168252519081900360200190f35b6101f7610a40565b6102b26004803603604081101561037557600080fd5b506001600160a01b038135169060200135610a46565b6102b2600480360360208110156103a157600080fd5b5035610ad9565b6103b0610c30565b604080516001600160a01b039092168252519081900360200190f35b6101f7600480360360208110156103e257600080fd5b50356001600160a01b0316610c3f565b61040f6004803603602081101561040857600080fd5b5035610c67565b604080519788526020880196909652868601949094526060860192909252608085015260a084015260c0830152519081900360e00190f35b6101f76004803603602081101561045d57600080fd5b5035610cb9565b61048a6004803603602081101561047a57600080fd5b50356001600160a01b0316610cd0565b005b6101f7600480360360208110156104a257600080fd5b50356001600160a01b0316610e13565b6101f7610e34565b610211610e59565b6103b0610eba565b6102b2600480360360408110156104e057600080fd5b506001600160a01b038135169060200135610ec9565b6102b26004803603604081101561050c57600080fd5b506001600160a01b038135169060200135610fb2565b6103b0611066565b6102b26004803603602081101561054057600080fd5b50356001600160a01b0316611075565b61048a600480360360e081101561056657600080fd5b506001600160a01b03813581169160208101359091169060408101359060608101359060ff6080820135169060a08101359060c00135611188565b6101f7600480360360408110156105b757600080fd5b506001600160a01b03813581169160200135166113d0565b6103b06113fb565b6009546000906001600160a01b03163314610639576040805162461bcd60e51b815260206004820152600c60248201527f554e415554484f52495a45440000000000000000000000000000000000000000604482015290519081900360640190fd5b600080610644610e34565b9050846106da57600254604080514281526020810192909252805186927f917acfbe39be6509ccf7fecb66a7e42ce2be1083c2d7dd3b9b7491dabddb8da492908290030190a2837f6012dbce857565c4a40974aa5de8373a761fc429077ef0c8c8611d1e20d63fb260006106b66109e0565b6040805192835260208301919091528051918290030190a260025492505050610775565b8015610706576106ff816106f96002548861145390919063ffffffff16565b9061140a565b915061070a565b8491505b60025461071790836114ac565b60028190556fffffffffffffffffffffffffffffffff1015610748576fffffffffffffffffffffffffffffffff6002555b60025461075e90660e3d2cfe61ffff199061140a565b600d5561076c818686611506565b50600254925050505b92915050565b60038054604080516020601f60026000196101006001881615020190951694909404938401819004810282018101909252828152606093909290918301828280156108075780601f106107dc57610100808354040283529160200191610807565b820191906000526020600020905b8154815290600101906020018083116107ea57829003601f168201915b5050505050905090565b336000818152600f602090815260408083206001600160a01b038716808552908352818420869055815186815291519394909390927f8c5be1e5ebec7d5bd14f71427d1e84f3dd0314c0f7b2291e5b200ac8c7c3b925928290030190a350600192915050565b60025490565b6000610775600d548361145390919063ffffffff16565b6001600160a01b0383166000908152600f602090815260408083203384529091528120546108c2908361164d565b6001600160a01b0385166000818152600f60209081526040808320338085529083529281902085905580519485525191937f8c5be1e5ebec7d5bd14f71427d1e84f3dd0314c0f7b2291e5b200ac8c7c3b925929081900390910190a360006109298361087d565b6001600160a01b0386166000908152600e602052604090205490915061094f908261164d565b6001600160a01b038087166000908152600e6020526040808220939093559086168152205461097e90826114ac565b6001600160a01b038086166000818152600e602090815260409182902094909455805187815290519193928916927fddf252ad1be2c89b69c2b068fc378daa952ba7f163c4a11628f55a4df523b3ef92918290030190a3506001949350505050565b60006109ed600c54610cb9565b905090565b600c5481565b7f6e71edae12b1b97f4d1f60370fef10105fa2faae0126114a169c64845d6126c981565b7f000000000000000000000000000000000000000000000000000000000000000090565b60065481565b336000908152600f602090815260408083206001600160a01b0386168452909152812054610a7490836114ac565b336000818152600f602090815260408083206001600160a01b0389168085529083529281902085905580519485525191937f8c5be1e5ebec7d5bd14f71427d1e84f3dd0314c0f7b2291e5b200ac8c7c3b925929081900390910190a350600192915050565b600854604080517f481c6a7500000000000000000000000000000000000000000000000000000000815290516000926001600160a01b03169163481c6a75916004808301926020929190829003018186803b158015610b3757600080fd5b505afa158015610b4b573d6000803e3d6000fd5b505050506040513d6020811015610b6157600080fd5b50516007906001600160a01b03163314610c0e5760405162461bcd60e51b8152602060048201908152825460026000196101006001841615020190911604602483018190529091829160449091019084908015610bff5780601f10610bd457610100808354040283529160200191610bff565b820191906000526020600020905b815481529060010190602001808311610be257829003601f168201915b50509250505060405180910390fd5b50600c5415610c1c57600080fd5b610c258261087d565b600c55506001919050565b6010546001600160a01b031681565b600d546001600160a01b0382166000908152600e60205260408120549091610775919061140a565b600b8181548110610c7757600080fd5b90600052602060002090600702016000915090508060000154908060010154908060020154908060030154908060040154908060050154908060060154905087565b6000610775600d548361140a90919063ffffffff16565b600860009054906101000a90046001600160a01b03166001600160a01b0316630c340a246040518163ffffffff1660e01b815260040160206040518083038186803b158015610d1e57600080fd5b505afa158015610d32573d6000803e3d6000fd5b505050506040513d6020811015610d4857600080fd5b50516007906001600160a01b03163314610dbb5760405162461bcd60e51b8152602060048201908152825460026000196101006001841615020190911604602483018190529091829160449091019084908015610bff5780601f10610bd457610100808354040283529160200191610bff565b506008805473ffffffffffffffffffffffffffffffffffffffff19166001600160a01b0383169081179091556040517f2f658b440c35314f52658ea8a740e05b284cdc84dc9ae01e891f21b8933e7cad90600090a250565b6001600160a01b03811660009081526005602052604081206107759061168f565b6009546000906109ed90610e50906001600160a01b0316610c3f565b6002549061164d565b60048054604080516020601f60026000196101006001881615020190951694909404938401819004810282018101909252828152606093909290918301828280156108075780601f106107dc57610100808354040283529160200191610807565b600a546001600160a01b031681565b336000908152600f602090815260408083206001600160a01b0386168452909152812054808310610f1d57336000908152600f602090815260408083206001600160a01b0388168452909152812055610f4c565b610f27818461164d565b336000908152600f602090815260408083206001600160a01b03891684529091529020555b336000818152600f602090815260408083206001600160a01b0389168085529083529281902054815190815290519293927f8c5be1e5ebec7d5bd14f71427d1e84f3dd0314c0f7b2291e5b200ac8c7c3b925929181900390910190a35060019392505050565b600080610fbe8361087d565b336000908152600e6020526040902054909150610fdb908261164d565b336000908152600e6020526040808220929092556001600160a01b0386168152205461100790826114ac565b6001600160a01b0385166000818152600e60209081526040918290209390935580518681529051919233927fddf252ad1be2c89b69c2b068fc378daa952ba7f163c4a11628f55a4df523b3ef9281900390910190a35060019392505050565b6008546001600160a01b031681565b600a546000906001600160a01b0316331461108f57600080fd5b6001600160a01b0382166110a257600080fd5b6009805473ffffffffffffffffffffffffffffffffffffffff19166001600160a01b038481169190911780835581166000908152600e60209081526040808320660e3d2cfe61ffff19905593546002548551908152945193169391927fddf252ad1be2c89b69c2b068fc378daa952ba7f163c4a11628f55a4df523b3ef9281900390910190a3604080516001600160a01b038416815290517f817c653428858ed536dc085c5d8273734c517b55de44b55f5c5877a75e3373a19181900360200190a15050600a805473ffffffffffffffffffffffffffffffffffffffff19169055600190565b834211156111dd576040805162461bcd60e51b815260206004820152601860248201527f5065726d69743a206578706972656420646561646c696e650000000000000000604482015290519081900360640190fd5b6001600160a01b03871660009081526005602052604081207f6e71edae12b1b97f4d1f60370fef10105fa2faae0126114a169c64845d6126c9908990899089906112269061168f565b604080516020808201979097526001600160a01b0395861681830152939094166060840152608083019190915260a082015260c08082018990528251808303909101815260e0820183528051908401206006547f1901000000000000000000000000000000000000000000000000000000000000610100840152610102830152610122808301829052835180840390910181526101428301808552815191860191909120600091829052610162840180865281905260ff8a166101828501526101a284018990526101c28401889052935191955092936001926101e280820193601f1981019281900390910190855afa158015611327573d6000803e3d6000fd5b5050604051601f1901519150506001600160a01b0381161580159061135d5750896001600160a01b0316816001600160a01b0316145b6113985760405162461bcd60e51b81526004018080602001828103825260218152602001806117fb6021913960400191505060405180910390fd5b6001600160a01b038a1660009081526005602052604090206113b990611693565b6113c48a8a8a61169c565b50505050505050505050565b6001600160a01b039182166000908152600f6020908152604080832093909416825291909152205490565b6009546001600160a01b031681565b600061144c83836040518060400160405280601a81526020017f536166654d6174683a206469766973696f6e206279207a65726f0000000000008152506116fe565b9392505050565b60008261146257506000610775565b8282028284828161146f57fe5b041461144c5760405162461bcd60e51b815260040180806020018281038252602181526020018061181c6021913960400191505060405180910390fd5b60008282018381101561144c576040805162461bcd60e51b815260206004820152601b60248201527f536166654d6174683a206164646974696f6e206f766572666c6f770000000000604482015290519081900360640190fd5b60008061151f856106f986670de0b6b3a7640000611453565b9050600b6040518060e00160405280858152602001838152602001878152602001611548610e34565b815260200186815260200161155b6109e0565b81524360209182015282546001818101855560009485529382902083516007909202019081558282015193810193909355604080830151600280860191909155606084015160038601556080840151600486015560a0840151600586015560c0909301516006909401939093559054825142815291820152815185927f917acfbe39be6509ccf7fecb66a7e42ce2be1083c2d7dd3b9b7491dabddb8da4928290030190a2827f6012dbce857565c4a40974aa5de8373a761fc429077ef0c8c8611d1e20d63fb28261162a6109e0565b6040805192835260208301919091528051918290030190a2506001949350505050565b600061144c83836040518060400160405280601e81526020017f536166654d6174683a207375627472616374696f6e206f766572666c6f7700008152506117a0565b5490565b80546001019055565b6001600160a01b038084166000818152600f6020908152604080832094871680845294825291829020859055815185815291517f8c5be1e5ebec7d5bd14f71427d1e84f3dd0314c0f7b2291e5b200ac8c7c3b9259281900390910190a3505050565b6000818361178a5760405162461bcd60e51b81526004018080602001828103825283818151815260200191508051906020019080838360005b8381101561174f578181015183820152602001611737565b50505050905090810190601f16801561177c5780820380516001836020036101000a031916815260200191505b509250505060405180910390fd5b50600083858161179657fe5b0495945050505050565b600081848411156117f25760405162461bcd60e51b815260206004820181815283516024840152835190928392604490910191908501908083836000831561174f578181015183820152602001611737565b50505090039056fe5a65726f537761705065726d69743a20496e76616c6964207369676e6174757265536166654d6174683a206d756c7469706c69636174696f6e206f766572666c6f77a2646970667358221220d4e5de2ec2041e443b0dde8b9bb9e81b0137dd566563f6d3f73d5f2c680513e164736f6c63430007050033",
  "devdoc": {
    "kind": "dev",
    "methods": {
      "nonces(address)": {
        "details": "See {IERC2612Permit-nonces}."
      },
      "permit(address,address,uint256,uint256,uint8,bytes32,bytes32)": {
        "details": "See {IERC2612Permit-permit}."
      },
      "rebase(uint256,uint256)": {
        "params": {
          "profit_": "uint256"
        },
        "returns": {
          "_0": "uint256"
        }
      }
    },
    "version": 1
  },
  "userdoc": {
    "kind": "user",
    "methods": {
      "rebase(uint256,uint256)": {
        "notice": "increases sTHEO supply to increase staking balances relative to profit_"
      }
    },
    "version": 1
  },
  "storageLayout": {
    "storage": [
      {
        "astId": 10368,
        "contract": "src/Theopetra/pTheopetraERC20.sol:pTheopetra",
        "label": "_balances",
        "offset": 0,
        "slot": "0",
        "type": "t_mapping(t_address,t_uint256)"
      },
      {
        "astId": 10374,
        "contract": "src/Theopetra/pTheopetraERC20.sol:pTheopetra",
        "label": "_allowances",
        "offset": 0,
        "slot": "1",
        "type": "t_mapping(t_address,t_mapping(t_address,t_uint256))"
      },
      {
        "astId": 10376,
        "contract": "src/Theopetra/pTheopetraERC20.sol:pTheopetra",
        "label": "_totalSupply",
        "offset": 0,
        "slot": "2",
        "type": "t_uint256"
      },
      {
        "astId": 10378,
        "contract": "src/Theopetra/pTheopetraERC20.sol:pTheopetra",
        "label": "_name",
        "offset": 0,
        "slot": "3",
        "type": "t_string_storage"
      },
      {
        "astId": 10380,
        "contract": "src/Theopetra/pTheopetraERC20.sol:pTheopetra",
        "label": "_symbol",
        "offset": 0,
        "slot": "4",
        "type": "t_string_storage"
      },
      {
        "astId": 10844,
        "contract": "src/Theopetra/pTheopetraERC20.sol:pTheopetra",
        "label": "_nonces",
        "offset": 0,
        "slot": "5",
        "type": "t_mapping(t_address,t_struct(Counter)2636_storage)"
      },
      {
        "astId": 10849,
        "contract": "src/Theopetra/pTheopetraERC20.sol:pTheopetra",
        "label": "DOMAIN_SEPARATOR",
        "offset": 0,
        "slot": "6",
        "type": "t_bytes32"
      },
      {
        "astId": 11008,
        "contract": "src/Theopetra/pTheopetraERC20.sol:pTheopetra",
        "label": "UNAUTHORIZED",
        "offset": 0,
        "slot": "7",
        "type": "t_string_storage"
      },
      {
        "astId": 11010,
        "contract": "src/Theopetra/pTheopetraERC20.sol:pTheopetra",
        "label": "authority",
        "offset": 0,
        "slot": "8",
        "type": "t_contract(ITheopetraAuthority)2485"
      },
      {
        "astId": 8776,
        "contract": "src/Theopetra/pTheopetraERC20.sol:pTheopetra",
        "label": "stakingContract",
        "offset": 0,
        "slot": "9",
        "type": "t_address"
      },
      {
        "astId": 8778,
        "contract": "src/Theopetra/pTheopetraERC20.sol:pTheopetra",
        "label": "initializer",
        "offset": 0,
        "slot": "10",
        "type": "t_address"
      },
      {
        "astId": 8816,
        "contract": "src/Theopetra/pTheopetraERC20.sol:pTheopetra",
        "label": "rebases",
        "offset": 0,
        "slot": "11",
        "type": "t_array(t_struct(Rebase)8813_storage)dyn_storage"
      },
      {
        "astId": 8818,
        "contract": "src/Theopetra/pTheopetraERC20.sol:pTheopetra",
        "label": "INDEX",
        "offset": 0,
        "slot": "12",
        "type": "t_uint256"
      },
      {
        "astId": 8849,
        "contract": "src/Theopetra/pTheopetraERC20.sol:pTheopetra",
        "label": "_gonsPerFragment",
        "offset": 0,
        "slot": "13",
        "type": "t_uint256"
      },
      {
        "astId": 8853,
        "contract": "src/Theopetra/pTheopetraERC20.sol:pTheopetra",
        "label": "_gonBalances",
        "offset": 0,
        "slot": "14",
        "type": "t_mapping(t_address,t_uint256)"
      },
      {
        "astId": 8859,
        "contract": "src/Theopetra/pTheopetraERC20.sol:pTheopetra",
        "label": "_allowedValue",
        "offset": 0,
        "slot": "15",
        "type": "t_mapping(t_address,t_mapping(t_address,t_uint256))"
      },
      {
        "astId": 8861,
        "contract": "src/Theopetra/pTheopetraERC20.sol:pTheopetra",
        "label": "treasury",
        "offset": 0,
        "slot": "16",
        "type": "t_address"
      }
    ],
    "types": {
      "t_address": {
        "encoding": "inplace",
        "label": "address",
        "numberOfBytes": "20"
      },
      "t_array(t_struct(Rebase)8813_storage)dyn_storage": {
        "base": "t_struct(Rebase)8813_storage",
        "encoding": "dynamic_array",
        "label": "struct pTheopetra.Rebase[]",
        "numberOfBytes": "32"
      },
      "t_bytes32": {
        "encoding": "inplace",
        "label": "bytes32",
        "numberOfBytes": "32"
      },
      "t_contract(ITheopetraAuthority)2485": {
        "encoding": "inplace",
        "label": "contract ITheopetraAuthority",
        "numberOfBytes": "20"
      },
      "t_mapping(t_address,t_mapping(t_address,t_uint256))": {
        "encoding": "mapping",
        "key": "t_address",
        "label": "mapping(address => mapping(address => uint256))",
        "numberOfBytes": "32",
        "value": "t_mapping(t_address,t_uint256)"
      },
      "t_mapping(t_address,t_struct(Counter)2636_storage)": {
        "encoding": "mapping",
        "key": "t_address",
        "label": "mapping(address => struct Counters.Counter)",
        "numberOfBytes": "32",
        "value": "t_struct(Counter)2636_storage"
      },
      "t_mapping(t_address,t_uint256)": {
        "encoding": "mapping",
        "key": "t_address",
        "label": "mapping(address => uint256)",
        "numberOfBytes": "32",
        "value": "t_uint256"
      },
      "t_string_storage": {
        "encoding": "bytes",
        "label": "string",
        "numberOfBytes": "32"
      },
      "t_struct(Counter)2636_storage": {
        "encoding": "inplace",
        "label": "struct Counters.Counter",
        "members": [
          {
            "astId": 2635,
            "contract": "src/Theopetra/pTheopetraERC20.sol:pTheopetra",
            "label": "_value",
            "offset": 0,
            "slot": "0",
            "type": "t_uint256"
          }
        ],
        "numberOfBytes": "32"
      },
      "t_struct(Rebase)8813_storage": {
        "encoding": "inplace",
        "label": "struct pTheopetra.Rebase",
        "members": [
          {
            "astId": 8800,
            "contract": "src/Theopetra/pTheopetraERC20.sol:pTheopetra",
            "label": "epoch",
            "offset": 0,
            "slot": "0",
            "type": "t_uint256"
          },
          {
            "astId": 8802,
            "contract": "src/Theopetra/pTheopetraERC20.sol:pTheopetra",
            "label": "rebase",
            "offset": 0,
            "slot": "1",
            "type": "t_uint256"
          },
          {
            "astId": 8804,
            "contract": "src/Theopetra/pTheopetraERC20.sol:pTheopetra",
            "label": "totalStakedBefore",
            "offset": 0,
            "slot": "2",
            "type": "t_uint256"
          },
          {
            "astId": 8806,
            "contract": "src/Theopetra/pTheopetraERC20.sol:pTheopetra",
            "label": "totalStakedAfter",
            "offset": 0,
            "slot": "3",
            "type": "t_uint256"
          },
          {
            "astId": 8808,
            "contract": "src/Theopetra/pTheopetraERC20.sol:pTheopetra",
            "label": "amountRebased",
            "offset": 0,
            "slot": "4",
            "type": "t_uint256"
          },
          {
            "astId": 8810,
            "contract": "src/Theopetra/pTheopetraERC20.sol:pTheopetra",
            "label": "index",
            "offset": 0,
            "slot": "5",
            "type": "t_uint256"
          },
          {
            "astId": 8812,
            "contract": "src/Theopetra/pTheopetraERC20.sol:pTheopetra",
            "label": "blockNumberOccured",
            "offset": 0,
            "slot": "6",
            "type": "t_uint256"
          }
        ],
        "numberOfBytes": "224"
      },
      "t_uint256": {
        "encoding": "inplace",
        "label": "uint256",
        "numberOfBytes": "32"
      }
    }
  }
}