{
  "address": "0x0ee54Aa3fE9695Eff297582080Bd9766D09FBD9A",
  "abi": [
    {
      "inputs": [
        {
          "internalType": "address",
          "name": "_treasury",
          "type": "address"
        },
        {
          "internalType": "address",
          "name": "_theo",
          "type": "address"
        },
        {
          "internalType": "uint48",
          "name": "_epochLength",
          "type": "uint48"
        },
        {
          "internalType": "contract ITheopetraAuthority",
          "name": "_authority",
          "type": "address"
        },
        {
          "internalType": "address",
          "name": "_staking",
          "type": "address"
        }
      ],
      "stateMutability": "nonpayable",
      "type": "constructor"
    },
    {
      "anonymous": false,
      "inputs": [
        {
          "indexed": true,
          "internalType": "contract ITheopetraAuthority",
          "name": "authority",
          "type": "address"
        }
      ],
      "name": "AuthorityUpdated",
      "type": "event"
    },
    {
      "inputs": [
        {
          "internalType": "address",
          "name": "_recipient",
          "type": "address"
        },
        {
          "internalType": "uint256",
          "name": "_startRate",
          "type": "uint256"
        },
        {
          "internalType": "int256",
          "name": "_drs",
          "type": "int256"
        },
        {
          "internalType": "int256",
          "name": "_dys",
          "type": "int256"
        },
        {
          "internalType": "bool",
          "name": "_locked",
          "type": "bool"
        }
      ],
      "name": "addRecipient",
      "outputs": [],
      "stateMutability": "nonpayable",
      "type": "function"
    },
    {
      "inputs": [
        {
          "internalType": "uint256",
          "name": "",
          "type": "uint256"
        }
      ],
      "name": "adjustments",
      "outputs": [
        {
          "internalType": "bool",
          "name": "add",
          "type": "bool"
        },
        {
          "internalType": "uint256",
          "name": "rate",
          "type": "uint256"
        },
        {
          "internalType": "uint256",
          "name": "target",
          "type": "uint256"
        }
      ],
      "stateMutability": "view",
      "type": "function"
    },
    {
      "inputs": [],
      "name": "authority",
      "outputs": [
        {
          "internalType": "contract ITheopetraAuthority",
          "name": "",
          "type": "address"
        }
      ],
      "stateMutability": "view",
      "type": "function"
    },
    {
      "inputs": [],
      "name": "bounty",
      "outputs": [
        {
          "internalType": "uint256",
          "name": "",
          "type": "uint256"
        }
      ],
      "stateMutability": "view",
      "type": "function"
    },
    {
      "inputs": [
        {
          "internalType": "uint256",
          "name": "_apy",
          "type": "uint256"
        }
      ],
      "name": "deriveRate",
      "outputs": [
        {
          "internalType": "uint256",
          "name": "",
          "type": "uint256"
        }
      ],
      "stateMutability": "view",
      "type": "function"
    },
    {
      "inputs": [],
      "name": "distribute",
      "outputs": [
        {
          "internalType": "bool",
          "name": "",
          "type": "bool"
        }
      ],
      "stateMutability": "nonpayable",
      "type": "function"
    },
    {
      "inputs": [],
      "name": "epochLength",
      "outputs": [
        {
          "internalType": "uint48",
          "name": "",
          "type": "uint48"
        }
      ],
      "stateMutability": "view",
      "type": "function"
    },
    {
      "inputs": [
        {
          "internalType": "uint256",
          "name": "",
          "type": "uint256"
        }
      ],
      "name": "info",
      "outputs": [
        {
          "internalType": "uint256",
          "name": "start",
          "type": "uint256"
        },
        {
          "internalType": "int256",
          "name": "drs",
          "type": "int256"
        },
        {
          "internalType": "int256",
          "name": "dys",
          "type": "int256"
        },
        {
          "internalType": "address",
          "name": "recipient",
          "type": "address"
        },
        {
          "internalType": "bool",
          "name": "locked",
          "type": "bool"
        },
        {
          "internalType": "uint48",
          "name": "nextEpochTime",
          "type": "uint48"
        }
      ],
      "stateMutability": "view",
      "type": "function"
    },
    {
      "inputs": [
        {
          "internalType": "uint256",
          "name": "_rate",
          "type": "uint256"
        },
        {
          "internalType": "address",
          "name": "_recipient",
          "type": "address"
        }
      ],
      "name": "nextRewardAt",
      "outputs": [
        {
          "internalType": "uint256",
          "name": "",
          "type": "uint256"
        }
      ],
      "stateMutability": "view",
      "type": "function"
    },
    {
      "inputs": [
        {
          "internalType": "address",
          "name": "_recipient",
          "type": "address"
        }
      ],
      "name": "nextRewardFor",
      "outputs": [
        {
          "internalType": "uint256",
          "name": "",
          "type": "uint256"
        }
      ],
      "stateMutability": "view",
      "type": "function"
    },
    {
      "inputs": [
        {
          "internalType": "uint256",
          "name": "_index",
          "type": "uint256"
        }
      ],
      "name": "nextRewardRate",
      "outputs": [
        {
          "internalType": "uint256",
          "name": "",
          "type": "uint256"
        }
      ],
      "stateMutability": "view",
      "type": "function"
    },
    {
      "inputs": [
        {
          "internalType": "uint256",
          "name": "_index",
          "type": "uint256"
        }
      ],
      "name": "removeRecipient",
      "outputs": [],
      "stateMutability": "nonpayable",
      "type": "function"
    },
    {
      "inputs": [],
      "name": "retrieveBounty",
      "outputs": [
        {
          "internalType": "uint256",
          "name": "",
          "type": "uint256"
        }
      ],
      "stateMutability": "nonpayable",
      "type": "function"
    },
    {
      "inputs": [
        {
          "internalType": "contract ITheopetraAuthority",
          "name": "_newAuthority",
          "type": "address"
        }
      ],
      "name": "setAuthority",
      "outputs": [],
      "stateMutability": "nonpayable",
      "type": "function"
    },
    {
      "inputs": [
        {
          "internalType": "uint256",
          "name": "_bounty",
          "type": "uint256"
        }
      ],
      "name": "setBounty",
      "outputs": [],
      "stateMutability": "nonpayable",
      "type": "function"
    },
    {
      "inputs": [
        {
          "internalType": "uint256",
          "name": "_index",
          "type": "uint256"
        },
        {
          "internalType": "int256",
          "name": "_drs",
          "type": "int256"
        }
      ],
      "name": "setDiscountRateStaking",
      "outputs": [],
      "stateMutability": "nonpayable",
      "type": "function"
    },
    {
      "inputs": [
        {
          "internalType": "uint256",
          "name": "_index",
          "type": "uint256"
        },
        {
          "internalType": "int256",
          "name": "_dys",
          "type": "int256"
        }
      ],
      "name": "setDiscountRateYield",
      "outputs": [],
      "stateMutability": "nonpayable",
      "type": "function"
    },
    {
      "inputs": [
        {
          "internalType": "address",
          "name": "_addr",
          "type": "address"
        }
      ],
      "name": "setStaking",
      "outputs": [],
      "stateMutability": "nonpayable",
      "type": "function"
    }
  ],
  "transactionHash": "0xca7bfe8c94f0eb7ed5b7a451e0fe458ad75fa82b81311f0a43d2ad58ede88752",
  "args": [
    "0x6640C3FD53e4Cf446B4139f478A199147d663a44",
    "0x1A2EA28399A2e4f8f3EEfeA5f41770B4C61fE643",
    31536000,
    "0xBcdF034cE6624A817c1BfEffBDE8691443e5fDbB",
    "0x79b4882B3121061C054EEFEBcB05B2b3fFcf59Dd"
  ],
  "numDeployments": 4,
  "solcInputHash": "60aee56ac40beaa3576af8be2fed4c30",
  "bytecode": "0x610160604052600c6101208190526b15539055551213d49256915160a21b6101409081526200003291600091906200021d565b50633b9aca0060e052630100244760e61b61010052600580546001600160801b031916613fff60701b1790553480156200006b57600080fd5b5060405162004457380380620044578339810160408190526200008e91620002dc565b600180546001600160a01b0319166001600160a01b0384169081179091556040518391907f2f658b440c35314f52658ea8a740e05b284cdc84dc9ae01e891f21b8933e7cad90600090a2506001600160a01b038516620001355760405162461bcd60e51b815260206004820152601660248201527f5a65726f20616464726573733a2054726561737572790000000000000000000060448201526064015b60405180910390fd5b6001600160a01b0380861660a0528416620001885760405162461bcd60e51b81526020600482015260126024820152715a65726f20616464726573733a205448454f60701b60448201526064016200012c565b6001600160a01b038085166080528116620001e65760405162461bcd60e51b815260206004820152601560248201527f5a65726f20616464726573733a205374616b696e67000000000000000000000060448201526064016200012c565b6001600160a01b03166000908152600260205260409020805460ff191660011790555065ffffffffffff1660c05250620003a39050565b8280546200022b9062000366565b90600052602060002090601f0160209004810192826200024f57600085556200029a565b82601f106200026a57805160ff19168380011785556200029a565b828001600101855582156200029a579182015b828111156200029a5782518255916020019190600101906200027d565b50620002a8929150620002ac565b5090565b5b80821115620002a85760008155600101620002ad565b6001600160a01b0381168114620002d957600080fd5b50565b600080600080600060a08688031215620002f557600080fd5b85516200030281620002c3565b60208701519095506200031581620002c3565b604087015190945065ffffffffffff811681146200033257600080fd5b60608701519093506200034581620002c3565b60808701519092506200035881620002c3565b809150509295509295909350565b600181811c908216806200037b57607f821691505b602082108114156200039d57634e487b7160e01b600052602260045260246000fd5b50919050565b60805160a05160c05160e0516101005161403a6200041d600039600081816111a8015281816111e901526112100152600081816106ec01526109c40152600081816101ce0152818161079501526115bb015260008181610eaa01528181610f6b015281816112e0015261171c01526000505061403a6000f3fe608060405234801561001057600080fd5b50600436106101365760003560e01c80638ff39099116100b2578063bc3b2b1211610081578063d8f0485e11610066578063d8f0485e14610323578063e4fc6b6d14610336578063e7187e8a1461034e57600080fd5b8063bc3b2b12146102a8578063bf7e214f146102f857600080fd5b80638ff3909914610266578063943dfef11461027957806394d8f31b14610282578063a03ea1fc1461029557600080fd5b80635d87d363116101095780637a9e5e4b116100ee5780637a9e5e4b1461022d5780638c868fe0146102405780638e69e2551461025357600080fd5b80635d87d36314610207578063736b8c541461021a57600080fd5b806311818e0b1461013b5780632e3405991461015057806336d33f44146101a857806357d775f8146101c9575b600080fd5b61014e610149366004613c30565b610356565b005b61016361015e366004613c52565b610438565b604080519687526020870195909552938501929092526001600160a01b031660608401521515608083015265ffffffffffff1660a082015260c0015b60405180910390f35b6101bb6101b6366004613c83565b6104a8565b60405190815260200161019f565b6101f07f000000000000000000000000000000000000000000000000000000000000000081565b60405165ffffffffffff909116815260200161019f565b61014e610215366004613c52565b610526565b61014e610228366004613ca0565b61062b565b61014e61023b366004613c83565b6108af565b6101bb61024e366004613cfb565b6109bd565b61014e610261366004613c52565b610abf565b61014e610274366004613c83565b610da2565b6101bb60045481565b6101bb610290366004613c52565b610e72565b61014e6102a3366004613c30565b611074565b6102db6102b6366004613c52565b60036020526000908152604090208054600182015460029092015460ff909116919083565b60408051931515845260208401929092529082015260600161019f565b60015461030b906001600160a01b031681565b6040516001600160a01b03909116815260200161019f565b6101bb610331366004613c52565b61114d565b61033e61125f565b604051901515815260200161019f565b6101bb61167c565b600160009054906101000a90046001600160a01b03166001600160a01b0316630505c8c96040518163ffffffff1660e01b8152600401602060405180830381865afa1580156103a9573d6000803e3d6000fd5b505050506040513d601f19601f820116820180604052508101906103cd9190613d2b565b6001600160a01b0316336001600160a01b03161460009061040a5760405162461bcd60e51b81526004016104019190613d48565b60405180910390fd5b50806006838154811061041f5761041f613df0565b9060005260206000209060040201600201819055505050565b6006818154811061044857600080fd5b6000918252602090912060049091020180546001820154600283015460039093015491935091906001600160a01b0381169074010000000000000000000000000000000000000000810460ff1690600160a81b900465ffffffffffff1686565b60008060005b60065481101561051f57836001600160a01b0316600682815481106104d5576104d5613df0565b60009182526020909120600360049092020101546001600160a01b0316141561050d5761050a61050482610e72565b856109bd565b91505b8061051781613e1c565b9150506104ae565b5092915050565b600160009054906101000a90046001600160a01b03166001600160a01b0316630c340a246040518163ffffffff1660e01b8152600401602060405180830381865afa158015610579573d6000803e3d6000fd5b505050506040513d601f19601f8201168201806040525081019061059d9190613d2b565b6001600160a01b0316336001600160a01b0316146000906105d15760405162461bcd60e51b81526004016104019190613d48565b5063773594008111156106265760405162461bcd60e51b815260206004820152600860248201527f546f6f206d7563680000000000000000000000000000000000000000000000006044820152606401610401565b600455565b600160009054906101000a90046001600160a01b03166001600160a01b0316630c340a246040518163ffffffff1660e01b8152600401602060405180830381865afa15801561067e573d6000803e3d6000fd5b505050506040513d601f19601f820116820180604052508101906106a29190613d2b565b6001600160a01b0316336001600160a01b0316146000906106d65760405162461bcd60e51b81526004016104019190613d48565b506001600160a01b0385166106ea57600080fd5b7f000000000000000000000000000000000000000000000000000000000000000084111561075a5760405162461bcd60e51b815260206004820152601e60248201527f526174652063616e6e6f74206578636565642064656e6f6d696e61746f7200006044820152606401610401565b60066040518060c00160405280868152602001858152602001848152602001876001600160a01b0316815260200183151581526020016107cb7f000000000000000000000000000000000000000000000000000000000000000065ffffffffffff164261178890919063ffffffff16565b65ffffffffffff90811690915282546001818101855560009485526020948590208451600490930201918255938301519381019390935560408201516002840155606082015160039093018054608084015160a090940151909216600160a81b027fffffffffff000000000000ffffffffffffffffffffffffffffffffffffffffff93151574010000000000000000000000000000000000000000027fffffffffffffffffffffff0000000000000000000000000000000000000000009093166001600160a01b039095169490941791909117919091169190911790555050505050565b600160009054906101000a90046001600160a01b03166001600160a01b0316630c340a246040518163ffffffff1660e01b8152600401602060405180830381865afa158015610902573d6000803e3d6000fd5b505050506040513d601f19601f820116820180604052508101906109269190613d2b565b6001600160a01b0316336001600160a01b03161460009061095a5760405162461bcd60e51b81526004016104019190613d48565b50600180547fffffffffffffffffffffffff0000000000000000000000000000000000000000166001600160a01b0383169081179091556040517f2f658b440c35314f52658ea8a740e05b284cdc84dc9ae01e891f21b8933e7cad90600090a250565b6000610ab67f0000000000000000000000000000000000000000000000000000000000000000610ab085856001600160a01b031663f385cecb6040518163ffffffff1660e01b8152600401602060405180830381865afa158015610a25573d6000803e3d6000fd5b505050506040513d601f19601f82011682018060405250810190610a499190613d2b565b6001600160a01b0316639358928b6040518163ffffffff1660e01b8152600401602060405180830381865afa158015610a86573d6000803e3d6000fd5b505050506040513d601f19601f82011682018060405250810190610aaa9190613e37565b90611794565b906117a0565b90505b92915050565b600160009054906101000a90046001600160a01b03166001600160a01b0316630c340a246040518163ffffffff1660e01b8152600401602060405180830381865afa158015610b12573d6000803e3d6000fd5b505050506040513d601f19601f82011682018060405250810190610b369190613d2b565b6001600160a01b0316336001600160a01b03161480610bdc5750600160009054906101000a90046001600160a01b03166001600160a01b031663452a93206040518163ffffffff1660e01b8152600401602060405180830381865afa158015610ba3573d6000803e3d6000fd5b505050506040513d601f19601f82011682018060405250810190610bc79190613d2b565b6001600160a01b0316336001600160a01b0316145b610c4e5760405162461bcd60e51b815260206004820152602260248201527f43616c6c6572206973206e6f7420676f7665726e6f72206f722067756172646960448201527f616e0000000000000000000000000000000000000000000000000000000000006064820152608401610401565b60006001600160a01b031660068281548110610c6c57610c6c613df0565b60009182526020909120600360049092020101546001600160a01b03161415610cd75760405162461bcd60e51b815260206004820152601860248201527f526563697069656e7420646f6573206e6f7420657869737400000000000000006044820152606401610401565b600060068281548110610cec57610cec613df0565b906000526020600020906004020160030160006101000a8154816001600160a01b0302191690836001600160a01b03160217905550600060068281548110610d3657610d36613df0565b906000526020600020906004020160000181905550600060068281548110610d6057610d60613df0565b906000526020600020906004020160010181905550600060068281548110610d8a57610d8a613df0565b90600052602060002090600402016002018190555050565b600160009054906101000a90046001600160a01b03166001600160a01b0316630c340a246040518163ffffffff1660e01b8152600401602060405180830381865afa158015610df5573d6000803e3d6000fd5b505050506040513d601f19601f82011682018060405250810190610e199190613d2b565b6001600160a01b0316336001600160a01b031614600090610e4d5760405162461bcd60e51b81526004016104019190613d48565b506001600160a01b03166000908152600260205260409020805460ff19166001179055565b600080610ffa610f36633b9aca00610f3060068781548110610e9657610e96613df0565b9060005260206000209060040201600201547f00000000000000000000000000000000000000000000000000000000000000006001600160a01b0316639a5739d86040518163ffffffff1660e01b8152600401602060405180830381865afa158015610f06573d6000803e3d6000fd5b505050506040513d601f19601f82011682018060405250810190610f2a9190613e37565b906117ac565b906117b8565b610ff4610fc7633b9aca00610f3060068981548110610f5757610f57613df0565b9060005260206000209060040201600101547f00000000000000000000000000000000000000000000000000000000000000006001600160a01b031663192d57c56040518163ffffffff1660e01b8152600401602060405180830381865afa158015610f06573d6000803e3d6000fd5b610ff460068881548110610fdd57610fdd613df0565b9060005260206000209060040201600001546117c4565b9061185c565b9050600081131561106b5760006110108261114d565b90506000600a6006868154811061102957611029613df0565b906000526020600020906004020160000154600f6110479190613e50565b6110519190613e85565b90508082106110605780611062565b815b95945050505050565b50600092915050565b600160009054906101000a90046001600160a01b03166001600160a01b0316630505c8c96040518163ffffffff1660e01b8152600401602060405180830381865afa1580156110c7573d6000803e3d6000fd5b505050506040513d601f19601f820116820180604052508101906110eb9190613d2b565b6001600160a01b0316336001600160a01b03161460009061111f5760405162461bcd60e51b81526004016104019190613d48565b50806006838154811061113457611134613df0565b9060005260206000209060040201600101819055505050565b60008061118261115c84611868565b7f401cdcd6500000000000000000000000000000000000000000000000000000006118cc565b6005549091506000906111cc906111a6906111a190859060801b611c0f565b612047565b7f00000000000000000000000000000000000000000000000000000000000000006118cc565b905060006111d98261207b565b905061106261125a61123461120e7f0000000000000000000000000000000000000000000000000000000000000000856120af565b7f0000000000000000000000000000000000000000000000000000000000000000612373565b7f401cdcd6500000000000000000000000000000000000000000000000000000006120af565b612385565b3360009081526002602052604081205460ff166112be5760405162461bcd60e51b815260206004820152600c60248201527f4f6e6c79207374616b696e6700000000000000000000000000000000000000006044820152606401610401565b60005b6006548110156116785760006112d682610e72565b905080156113f5577f00000000000000000000000000000000000000000000000000000000000000006001600160a01b03166340c10f196006848154811061132057611320613df0565b906000526020600020906004020160030160009054906101000a90046001600160a01b031661137e846006878154811061135c5761135c613df0565b60009182526020909120600360049092020101546001600160a01b03166109bd565b6040517fffffffff0000000000000000000000000000000000000000000000000000000060e085901b1681526001600160a01b0390921660048301526024820152604401600060405180830381600087803b1580156113dc57600080fd5b505af11580156113f0573d6000803e3d6000fd5b505050505b426006838154811061140957611409613df0565b6000918252602090912060049091020160030154600160a81b900465ffffffffffff1611611665576006828154811061144457611444613df0565b600091825260209091206004909102016003015474010000000000000000000000000000000000000000900460ff161580156114a757506301312d006006838154811061149357611493613df0565b906000526020600020906004020160000154115b15611506576114dd624c4b40600684815481106114c6576114c6613df0565b600091825260209091206004909102015490612426565b600683815481106114f0576114f0613df0565b60009182526020909120600490910201556115b6565b6006828154811061151957611519613df0565b906000526020600020906004020160030160149054906101000a900460ff16151560011515148015611572575063039387006006838154811061155e5761155e613df0565b906000526020600020906004020160000154115b156115b65761159162e4e1c0600684815481106114c6576114c6613df0565b600683815481106115a4576115a4613df0565b60009182526020909120600490910201555b61161e7f000000000000000000000000000000000000000000000000000000000000000065ffffffffffff16600684815481106115f5576115f5613df0565b6000918252602090912060049091020160030154600160a81b900465ffffffffffff1690611788565b6006838154811061163157611631613df0565b906000526020600020906004020160030160156101000a81548165ffffffffffff021916908365ffffffffffff1602179055505b508061167081613e1c565b9150506112c1565b5090565b3360009081526002602052604081205460ff166116db5760405162461bcd60e51b815260206004820152600c60248201527f4f6e6c79207374616b696e6700000000000000000000000000000000000000006044820152606401610401565b6004541561178157600480546040517f40c10f19000000000000000000000000000000000000000000000000000000008152339281019290925260248201527f00000000000000000000000000000000000000000000000000000000000000006001600160a01b0316906340c10f1990604401600060405180830381600087803b15801561176857600080fd5b505af115801561177c573d6000803e3d6000fd5b505050505b5060045490565b6000610ab68284613e99565b6000610ab68284613e50565b6000610ab68284613e85565b6000610ab68284613eb1565b6000610ab68284613f51565b60007f7fffffffffffffffffffffffffffffffffffffffffffffffffffffffffffffff8211156116785760405162461bcd60e51b815260206004820152602860248201527f53616665436173743a2076616c756520646f65736e27742066697420696e206160448201527f6e20696e743235360000000000000000000000000000000000000000000000006064820152608401610401565b6000610ab68284613f7f565b60008161187757506000919050565b81600061188382612432565b9050607081101561189c578060700382901b91506118af565b60708111156118af576070810382901c91505b613fff0160701b6001600160701b03919091161760801b92915050565b6000617fff60f084811c8216919084901c8116908214156119125780617fff1415611901575061ffff60ef1b9150610ab99050565b505050600160ff1b81168218610ab9565b80617fff1415611963577dffffffffffffffffffffffffffff00000000000000000000000000000000841615611952575061ffff60ef1b9150610ab99050565b505050808218600160ff1b16610ab9565b7f7fffffffffffffffffffffffffffffff0000000000000000000000000000000084166119d9577f7fffffffffffffffffffffffffffffff0000000000000000000000000000000085166119c1575061ffff60ef1b9150610ab99050565b505050808218600160ff1b16617fff60f01b17610ab9565b6001600160701b03608085901c16816119f557600191506119fc565b600160701b175b6001600160701b03608087901c1683611a59578015611a54576000611a2082612432565b6001955060e2039384017fffffffffffffffffffffffffffffffffffffffffffffffffffffffffffffff8e01939190911b90505b611a63565b600160701b1760721b5b818181611a7257611a72613e6f565b04905080611a9f57600160ff1b87871816611a8e576000611a94565b600160ff1b5b945050505050610ab9565b6d1000000000000000000000000000811015611abd57611abd613fd7565b60006e080000000000000000000000000000821015611b1d576e040000000000000000000000000000821015611b12576e020000000000000000000000000000821015611b0b576070611b15565b6071611b15565b60725b60ff16611b26565b611b2682612432565b905083614071018186011115611b4457617fff945060009150611bd7565b83818601613ffc011015611b5f576000945060009150611bd7565b83818601613f8c011015611bac578385613ffc011115611b8a578385613ffc010382901b9150611ba3565b8385613ffc011015611ba357613ffc8585030382901c91505b60009450611bd7565b6070811115611bbf576070810382901c91505b6001600160701b038216915083818601613f8d010394505b81607086901b888a186001607f1b60801b1660801c6fffffffffffffffffffffffffffffffff16171760801b95505050505050610ab9565b6000617fff60f084811c8216919084901c811690821415611c765780617fff1415611c6c576fffffffffffffffffffffffffffffffff198581169085161415611c5c578492505050610ab9565b5061ffff60ef1b9150610ab99050565b8492505050610ab9565b80617fff1415611c8a578392505050610ab9565b6001607f1b608086901c90811015906001600160701b031683611cb05760019350611cb7565b600160701b175b6001607f1b608087901c90811015906001600160701b031684611cdd5760019450611ce4565b600160701b175b82611d1d576fffffffffffffffffffffffffffffffff198816600160ff1b14611d0d5787611d10565b60005b9650505050505050610ab9565b80611d46576fffffffffffffffffffffffffffffffff198916600160ff1b14611d0d5788611d10565b8486038415158315151415611e7d576070811315611d6d5789975050505050505050610ab9565b6000811315611d7f5790811c90611dae565b606f19811215611d985788975050505050505050610ab9565b6000811215611dae578060000384901c93508596505b928101926e0200000000000000000000000000008410611dd4576001968701969390931c925b86617fff1415611e1e5784611dee57617fff60f01b611e10565b7fffff0000000000000000000000000000000000000000000000000000000000005b975050505050505050610ab9565b600160701b841015611e335760009650611e40565b6001600160701b03841693505b83607088901b86611e52576000611e58565b6001607f1b5b6fffffffffffffffffffffffffffffffff16171760801b975050505050505050610ab9565b6000811315611e9857600184901b9350600187039650611eaf565b6000811215611eaf57600182901b91506001860396505b6070811315611ec15760019150611f0e565b6001811315611ede576001810360018303901c6001019150611f0e565b606f19811215611ef15760019350611f0e565b600019811215611f0e576001816000030360018503901c60010193505b818410611f1f578184039350611f28565b83820393508294505b83611f3e575060009650610ab995505050505050565b6000611f4985612432565b90508060711415611f6f57600185901c6001600160701b03169450600188019750611fbe565b6070811015611fb157607081900380891115611f9e578086901b6001600160701b031695508089039850611fab565b600098600019019590951b945b50611fbe565b6001600160701b03851694505b87617fff14156120095785611fd857617fff60f01b611ffa565b7fffff0000000000000000000000000000000000000000000000000000000000005b98505050505050505050610ab9565b84607089901b8761201b576000612021565b6001607f1b5b6fffffffffffffffffffffffffffffffff16171760801b98505050505050505050610ab9565b6000610ab9612055836124e2565b7f3ffe62e42fefa39ef35793c7673007e5000000000000000000000000000000006120af565b6000610ab96120aa837f3fff71547652b82fe1777d0ffda0d23a000000000000000000000000000000006120af565b6126f7565b6000617fff60f084811c8216919084901c8116908214156121665780617fff141561212f576fffffffffffffffffffffffffffffffff19858116908516141561210357505050600160ff1b81168218610ab9565b600160ff1b6fffffffffffffffffffffffffffffffff19868618161415611c5c57505050818117610ab9565b7f7fffffffffffffffffffffffffffffff000000000000000000000000000000008416611901575061ffff60ef1b9150610ab99050565b80617fff14156121b8577f7fffffffffffffffffffffffffffffff0000000000000000000000000000000085166121a7575061ffff60ef1b9150610ab99050565b505050600160ff1b82168118610ab9565b6001600160701b03608086901c16826121d457600192506121db565b600160701b175b6001600160701b03608086901c16826121f757600192506121fe565b600160701b175b908102908161221b57600160ff1b87871816611a8e576000611a94565b9282019260007c0200000000000000000000000000000000000000000000000000000000831015612280577c01000000000000000000000000000000000000000000000000000000008310156122795761227483612432565b612283565b60e0612283565b60e15b9050614070818601101561229e57600094506000925061233b565b6140e081860110156122e1576140708510156122c357846140700383901c92506122d8565b6140708511156122d857614070850383901b92505b6000945061233b565b61c0dd81860111156122fb57617fff94506000925061233b565b6070811115612312576070810383901c9250612325565b6070811015612325578060700383901b92505b6001600160701b03831692506140df8186010394505b82607086901b888a186001607f1b60801b1660801c6fffffffffffffffffffffffffffffffff16171760801b95505050505050610ab9565b6000610ab683600160ff1b8418611c0f565b6000617fff60f083901c16613fff8110156123a35750600092915050565b6001607f1b608084901c106123b757600080fd5b6140fe8111156123c657600080fd5b600160701b6001600160701b03608085901c161761406f8210156123f05761406f8290031c61241f565b61406f82111561241f577fffffffffffffffffffffffffffffffffffffffffffffffffffffffffffffbf9182011b5b9392505050565b6000610ab68284613fed565b600080821161244057600080fd5b6000700100000000000000000000000000000000831061246257608092831c92015b68010000000000000000831061247a57604092831c92015b640100000000831061248e57602092831c92015b6201000083106124a057601092831c92015b61010083106124b157600892831c92015b601083106124c157600492831c92015b600483106124d157600292831c92015b60028310610ab95760010192915050565b60006001607f1b608083901c1115612500575061ffff60ef1b919050565b7f3fff0000000000000000000000000000000000000000000000000000000000006fffffffffffffffffffffffffffffffff198316141561254357506000919050565b617fff60f083901c81169081141561255c575090919050565b6001600160701b03608084901c1681612578576001915061257f565b600160701b175b806125ad57507fffff0000000000000000000000000000000000000000000000000000000000009392505050565b600061406f81613fff85106125f05750600f9290921b91600091507fffffffffffffffffffffffffffffffffffffffffffffffffffffffffffffc001840161262f565b60019250600160701b84106126125784613ffe039050600f84901b935061262f565b600061261d85612432565b607f8190039590951b9461406d039150505b836001607f1b1415612666578215612645576001015b600061265082612432565b60700390508082901b91508083039250506126b4565b600083612674576000612677565b60015b60ff1690505b600160701b8210156126b25793800260ff81901c607f81019190911c94600019939093019260019290921b908218019061267d565b505b806001600160701b0316607083901b846126cf5760006126d5565b6001607f1b5b6fffffffffffffffffffffffffffffffff16171760801b979650505050505050565b60006001607f1b608083901c90811190617fff60f085901c8116916001600160701b0316908214801561272957508015155b1561273d575061ffff60ef1b949350505050565b61400d821115612762578261275757617fff60f01b611062565b600095945050505050565b613f7f82101561279657507f3fff000000000000000000000000000000000000000000000000000000000000949350505050565b816127a457600191506127ab565b600160701b175b613fef8211156127c157613fee1982011b6127d3565b613fef8210156127d357613fef8290031c5b8280156127f1575071406e0000000000000000000000000000000081115b1561280157506000949350505050565b821580156128205750713fffffffffffffffffffffffffffffffffff81115b156128345750617fff60f01b949350505050565b6fffffffffffffffffffffffffffffffff81169060801c83801561285757508115155b15612863579019906001015b6001607f1b828116156128875770016a09e667f3bcc908b2fb1366ea957d3e0260801c5b6f400000000000000000000000000000008316156128b6577001306fe0a31b7152de8d5a46305c85edec0260801c5b6f200000000000000000000000000000008316156128e5577001172b83c7d517adcdf7c8c50eb14a791f0260801c5b6f100000000000000000000000000000008316156129145770010b5586cf9890f6298b92b71842a983630260801c5b6f08000000000000000000000000000000831615612943577001059b0d31585743ae7c548eb68ca417fd0260801c5b6f0400000000000000000000000000000083161561297257700102c9a3e778060ee6f7caca4f7a29bde80260801c5b6f020000000000000000000000000000008316156129a15770010163da9fb33356d84a66ae336dcdfa3f0260801c5b6f010000000000000000000000000000008316156129d057700100b1afa5abcbed6129ab13ec11dc95430260801c5b6e8000000000000000000000000000008316156129fe5770010058c86da1c09ea1ff19d294cf2f679b0260801c5b6e400000000000000000000000000000831615612a2c577001002c605e2e8cec506d21bfc89a23a00f0260801c5b6e200000000000000000000000000000831615612a5a57700100162f3904051fa128bca9c55c31e5df0260801c5b6e100000000000000000000000000000831615612a88577001000b175effdc76ba38e31671ca9397250260801c5b6e080000000000000000000000000000831615612ab657700100058ba01fb9f96d6cacd4b180917c3d0260801c5b6e040000000000000000000000000000831615612ae45770010002c5cc37da9491d0985c348c68e7b30260801c5b6e020000000000000000000000000000831615612b12577001000162e525ee054754457d59952920260260801c5b600160701b831615612b355770010000b17255775c040618bf4a4ade83fc0260801c5b6d8000000000000000000000000000831615612b62577001000058b91b5bc9ae2eed81e9b7d4cfab0260801c5b6d4000000000000000000000000000831615612b8f57700100002c5c89d5ec6ca4d7c8acc017b7c90260801c5b6d2000000000000000000000000000831615612bbc5770010000162e43f4f831060e02d839a9d16d0260801c5b6d1000000000000000000000000000831615612be957700100000b1721bcfc99d9f890ea069117630260801c5b6d0800000000000000000000000000831615612c165770010000058b90cf1e6d97f9ca14dbcc16280260801c5b6d0400000000000000000000000000831615612c43577001000002c5c863b73f016468f6bac5ca2b0260801c5b6d0200000000000000000000000000831615612c7057700100000162e430e5a18f6119e3c02282a50260801c5b6d0100000000000000000000000000831615612c9d577001000000b1721835514b86e6d96efd1bfe0260801c5b6c80000000000000000000000000831615612cc957700100000058b90c0b48c6be5df846c5b2ef0260801c5b6c40000000000000000000000000831615612cf55770010000002c5c8601cc6b9e94213c72737a0260801c5b6c20000000000000000000000000831615612d21577001000000162e42fff037df38aa2b219f060260801c5b6c10000000000000000000000000831615612d4d5770010000000b17217fba9c739aa5819f44f90260801c5b6c08000000000000000000000000831615612d79577001000000058b90bfcdee5acd3c1cedc8230260801c5b6c04000000000000000000000000831615612da557700100000002c5c85fe31f35a6a30da1be500260801c5b6c02000000000000000000000000831615612dd15770010000000162e42ff0999ce3541b9fffcf0260801c5b6c01000000000000000000000000831615612dfd57700100000000b17217f80f4ef5aadda455540260801c5b6b800000000000000000000000831615612e285770010000000058b90bfbf8479bd5a81b51ad0260801c5b6b400000000000000000000000831615612e53577001000000002c5c85fdf84bd62ae30a74cc0260801c5b6b200000000000000000000000831615612e7e57700100000000162e42fefb2fed257559bdaa0260801c5b6b100000000000000000000000831615612ea9577001000000000b17217f7d5a7716bba4a9ae0260801c5b6b080000000000000000000000831615612ed457700100000000058b90bfbe9ddbac5e109cce0260801c5b6b040000000000000000000000831615612eff5770010000000002c5c85fdf4b15de6f17eb0d0260801c5b6b020000000000000000000000831615612f2a577001000000000162e42fefa494f1478fde050260801c5b6b010000000000000000000000831615612f555770010000000000b17217f7d20cf927c8e94c0260801c5b6a8000000000000000000000831615612f7f577001000000000058b90bfbe8f71cb4e4b33d0260801c5b6a4000000000000000000000831615612fa957700100000000002c5c85fdf477b662b269450260801c5b6a2000000000000000000000831615612fd35770010000000000162e42fefa3ae53369388c0260801c5b6a1000000000000000000000831615612ffd57700100000000000b17217f7d1d351a389d400260801c5b6a08000000000000000000008316156130275770010000000000058b90bfbe8e8b2d3d4ede0260801c5b6a0400000000000000000000831615613051577001000000000002c5c85fdf4741bea6e77e0260801c5b6a020000000000000000000083161561307b57700100000000000162e42fefa39fe95583c20260801c5b6a01000000000000000000008316156130a5577001000000000000b17217f7d1cfb72b45e10260801c5b69800000000000000000008316156130ce57700100000000000058b90bfbe8e7cc35c3f00260801c5b69400000000000000000008316156130f75770010000000000002c5c85fdf473e242ea380260801c5b6920000000000000000000831615613120577001000000000000162e42fefa39f02b772c0260801c5b69100000000000000000008316156131495770010000000000000b17217f7d1cf7d83c1a0260801c5b6908000000000000000000831615613172577001000000000000058b90bfbe8e7bdcbe2e0260801c5b690400000000000000000083161561319b57700100000000000002c5c85fdf473dea871f0260801c5b69020000000000000000008316156131c45770010000000000000162e42fefa39ef44d910260801c5b69010000000000000000008316156131ed57700100000000000000b17217f7d1cf79e9490260801c5b688000000000000000008316156132155770010000000000000058b90bfbe8e7bce5440260801c5b6840000000000000000083161561323d577001000000000000002c5c85fdf473de6eca0260801c5b6820000000000000000083161561326557700100000000000000162e42fefa39ef366f0260801c5b6810000000000000000083161561328d577001000000000000000b17217f7d1cf79afa0260801c5b680800000000000000008316156132b557700100000000000000058b90bfbe8e7bcd6d0260801c5b680400000000000000008316156132dd5770010000000000000002c5c85fdf473de6b20260801c5b68020000000000000000831615613305577001000000000000000162e42fefa39ef3580260801c5b6801000000000000000083161561332d5770010000000000000000b17217f7d1cf79ab0260801c5b678000000000000000831615613354577001000000000000000058b90bfbe8e7bcd50260801c5b67400000000000000083161561337b57700100000000000000002c5c85fdf473de6a0260801c5b6720000000000000008316156133a25770010000000000000000162e42fefa39ef340260801c5b6710000000000000008316156133c957700100000000000000000b17217f7d1cf7990260801c5b6708000000000000008316156133f05770010000000000000000058b90bfbe8e7bcc0260801c5b670400000000000000831615613417577001000000000000000002c5c85fdf473de50260801c5b67020000000000000083161561343e57700100000000000000000162e42fefa39ef20260801c5b670100000000000000831615613465577001000000000000000000b17217f7d1cf780260801c5b668000000000000083161561348b57700100000000000000000058b90bfbe8e7bb0260801c5b66400000000000008316156134b15770010000000000000000002c5c85fdf473dd0260801c5b66200000000000008316156134d7577001000000000000000000162e42fefa39ee0260801c5b66100000000000008316156134fd5770010000000000000000000b17217f7d1cf60260801c5b6608000000000000831615613523577001000000000000000000058b90bfbe8e7a0260801c5b660400000000000083161561354957700100000000000000000002c5c85fdf473c0260801c5b660200000000000083161561356f5770010000000000000000000162e42fefa39d0260801c5b660100000000000083161561359557700100000000000000000000b17217f7d1ce0260801c5b658000000000008316156135ba5770010000000000000000000058b90bfbe8e60260801c5b654000000000008316156135df577001000000000000000000002c5c85fdf4720260801c5b6520000000000083161561360457700100000000000000000000162e42fefa380260801c5b65100000000000831615613629577001000000000000000000000b17217f7d1b0260801c5b6508000000000083161561364e57700100000000000000000000058b90bfbe8d0260801c5b650400000000008316156136735770010000000000000000000002c5c85fdf460260801c5b65020000000000831615613698577001000000000000000000000162e42fefa20260801c5b650100000000008316156136bd5770010000000000000000000000b17217f7d00260801c5b6480000000008316156136e1577001000000000000000000000058b90bfbe70260801c5b64400000000083161561370557700100000000000000000000002c5c85fdf30260801c5b6420000000008316156137295770010000000000000000000000162e42fef90260801c5b64100000000083161561374d57700100000000000000000000000b17217f7c0260801c5b6408000000008316156137715770010000000000000000000000058b90bfbd0260801c5b640400000000831615613795577001000000000000000000000002c5c85fde0260801c5b6402000000008316156137b957700100000000000000000000000162e42fee0260801c5b6401000000008316156137dd577001000000000000000000000000b17217f60260801c5b638000000083161561380057700100000000000000000000000058b90bfa0260801c5b63400000008316156138235770010000000000000000000000002c5c85fc0260801c5b6320000000831615613846577001000000000000000000000000162e42fd0260801c5b63100000008316156138695770010000000000000000000000000b17217e0260801c5b630800000083161561388c577001000000000000000000000000058b90be0260801c5b63040000008316156138af57700100000000000000000000000002c5c85e0260801c5b63020000008316156138d25770010000000000000000000000000162e42e0260801c5b63010000008316156138f557700100000000000000000000000000b172160260801c5b628000008316156139175770010000000000000000000000000058b90a0260801c5b62400000831615613939577001000000000000000000000000002c5c840260801c5b6220000083161561395b57700100000000000000000000000000162e410260801c5b6210000083161561397d577001000000000000000000000000000b17200260801c5b6208000083161561399f57700100000000000000000000000000058b8f0260801c5b620400008316156139c15770010000000000000000000000000002c5c70260801c5b620200008316156139e3577001000000000000000000000000000162e30260801c5b62010000831615613a055770010000000000000000000000000000b1710260801c5b618000831615613a26577001000000000000000000000000000058b80260801c5b614000831615613a4757700100000000000000000000000000002c5b0260801c5b612000831615613a685770010000000000000000000000000000162d0260801c5b611000831615613a8957700100000000000000000000000000000b160260801c5b610800831615613aaa5770010000000000000000000000000000058a0260801c5b610400831615613acb577001000000000000000000000000000002c40260801c5b610200831615613aec577001000000000000000000000000000001610260801c5b610100831615613b0d577001000000000000000000000000000000b00260801c5b6080831615613b2d577001000000000000000000000000000000570260801c5b6040831615613b4d5770010000000000000000000000000000002b0260801c5b6020831615613b6d577001000000000000000000000000000000150260801c5b6010831615613b8d5770010000000000000000000000000000000a0260801c5b6008831615613bad577001000000000000000000000000000000040260801c5b6004831615613bcd577001000000000000000000000000000000010260801c5b84613bee57600f81901c6001600160701b03169050613fff82019150613c1d565b613ffe8211613c1357600f81901c6001600160701b0316905081613fff039150613c1d565b600091613fee19011c5b60709190911b1760801b95945050505050565b60008060408385031215613c4357600080fd5b50508035926020909101359150565b600060208284031215613c6457600080fd5b5035919050565b6001600160a01b0381168114613c8057600080fd5b50565b600060208284031215613c9557600080fd5b813561241f81613c6b565b600080600080600060a08688031215613cb857600080fd5b8535613cc381613c6b565b945060208601359350604086013592506060860135915060808601358015158114613ced57600080fd5b809150509295509295909350565b60008060408385031215613d0e57600080fd5b823591506020830135613d2081613c6b565b809150509250929050565b600060208284031215613d3d57600080fd5b815161241f81613c6b565b600060208083526000845481600182811c915080831680613d6a57607f831692505b858310811415613d8857634e487b7160e01b85526022600452602485fd5b878601838152602001818015613da55760018114613db657613de1565b60ff19861682528782019650613de1565b60008b81526020902060005b86811015613ddb57815484820152908501908901613dc2565b83019750505b50949998505050505050505050565b634e487b7160e01b600052603260045260246000fd5b634e487b7160e01b600052601160045260246000fd5b6000600019821415613e3057613e30613e06565b5060010190565b600060208284031215613e4957600080fd5b5051919050565b6000816000190483118215151615613e6a57613e6a613e06565b500290565b634e487b7160e01b600052601260045260246000fd5b600082613e9457613e94613e6f565b500490565b60008219821115613eac57613eac613e06565b500190565b60007f7fffffffffffffffffffffffffffffffffffffffffffffffffffffffffffffff600084136000841385830485118282161615613ef257613ef2613e06565b600160ff1b6000871286820588128184161615613f1157613f11613e06565b60008712925087820587128484161615613f2d57613f2d613e06565b87850587128184161615613f4357613f43613e06565b505050929093029392505050565b600082613f6057613f60613e6f565b6000198314600160ff1b83141615613f7a57613f7a613e06565b500590565b6000808212827f7fffffffffffffffffffffffffffffffffffffffffffffffffffffffffffffff03841381151615613fb957613fb9613e06565b82600160ff1b038412811615613fd157613fd1613e06565b50500190565b634e487b7160e01b600052600160045260246000fd5b600082821015613fff57613fff613e06565b50039056fea2646970667358221220016c4e4f0cc4a5c7e57ec7829ce7ea788d93672d1d16a11cd396c886257e15e364736f6c634300080a0033",
  "devdoc": {
    "kind": "dev",
    "methods": {
      "addRecipient(address,uint256,int256,int256,bool)": {
        "details": "When a recipient is added, the epochLength and current block timestamp is used to calculate when the next epoch should occur",
        "params": {
          "_drs": "uint256 9 decimal Discount Rate Return Staking. The discount rate applied to the fluctuation of the token price, as a proportion (that is, a percentage in its decimal form), with 9 decimals",
          "_dys": "uint256 9 decimial discount rate applied to the fluctuation of the treasury yield, as a proportion (that is, a percentage in its decimal form), with 9 decimals",
          "_locked": "bool is the staking tranche locked or unlocked",
          "_recipient": "address",
          "_startRate": "uint256 9 decimal starting rate"
        }
      },
      "deriveRate(uint256)": {
        "details": "the rate is calculated as:         1095 * e^z - 1095         z = ln(apyProportion + 1) / 1095         1095 is: 365(days) * 24(hours) / 8(hours per performance update)         apyProportion is a proportion (that is, a percentage in its decimal form), calculated using the param _apy         0x401cdcd6500000000000000000000000 is the byte representation of 10**9",
        "params": {
          "_apy": "The APY to calculate the rate for. 9 decimals"
        },
        "returns": {
          "_0": "uint256 The rate for the given APY. 9 decimals"
        }
      },
      "distribute()": {
        "details": "distribute can only be called by a Staking contract (and the Staking contract will only call if its epoch is over) This method distributes rewards to each recipient (minting and sending from the treasury) If the current time is greater than `nextEpochTime`, the starting rate is wound-down, and the `nextEpochTime` is updated. Wind-down occurs according to the schedules for unlocked and locked tranches where: Locked tranches wind-down by 1.5% per epoch (that is, per year) to a minimum of 6% (60_000_000 -- see also `rateDenominator`) Unlocked tranches wind-down by 0.5% per epoch (that is, per year) to a minimum of 2% (20_000_000)"
      },
      "nextRewardAt(uint256,address)": {
        "params": {
          "_rate": "uint"
        },
        "returns": {
          "_0": "uint"
        }
      },
      "nextRewardFor(address)": {
        "params": {
          "_recipient": "address"
        },
        "returns": {
          "_0": "uint256"
        }
      },
      "nextRewardRate(uint256)": {
        "details": "`apyVariable`, is calculated as: APYfixed + SCrs + SCys Where APYfixed is the fixed starting rate, with 9 decimals SCrs is the Control Return for Staking (with 9 decimals): SCrs = Drs * deltaTokenPrice SCys is Control Treasury for Staking (with 9 decimals): SCys = Dys * deltaTreasuryYield The returned rate is limited to a minimum of zero and a maximum of 1.5 times the fixed starting rate (in locked and unlocked tranches).",
        "params": {
          "_index": "uint256"
        },
        "returns": {
          "_0": "uint256 The reward rate. 9 decimals"
        }
      },
      "removeRecipient(uint256)": {
        "params": {
          "_index": "uint"
        }
      },
      "retrieveBounty()": {
        "details": "If the distributor bounty is > 0, mint it for the staking contract."
      },
      "setBounty(uint256)": {
        "params": {
          "_bounty": "uint256"
        }
      },
      "setStaking(address)": {
        "details": "setting the address as a staking contract will allow the staking contract to call the `distribute` function the contract must also be set up as a recipient to receive the rewards",
        "params": {
          "_addr": "address"
        }
      }
    },
    "stateVariables": {
      "n": {
        "details": "byte representation of 1095. See also `deriveRate`."
      },
      "one": {
        "details": "byte representation of 1;"
      }
    },
    "version": 1
  },
  "userdoc": {
    "kind": "user",
    "methods": {
      "addRecipient(address,uint256,int256,int256,bool)": {
        "notice": "adds recipient for distributions"
      },
      "deriveRate(uint256)": {
        "notice": "derives the rate for a given apy for the next Epoch."
      },
      "distribute()": {
        "notice": "send epoch reward to staking contract"
      },
      "nextRewardAt(uint256,address)": {
        "notice": "view function for next reward at given rate"
      },
      "nextRewardFor(address)": {
        "notice": "view function for next reward for specified address"
      },
      "nextRewardRate(uint256)": {
        "notice": "calculate the next reward rate"
      },
      "removeRecipient(uint256)": {
        "notice": "removes recipient for distributions"
      },
      "setBounty(uint256)": {
        "notice": "set bounty to incentivize keepers"
      },
      "setStaking(address)": {
        "notice": "set the address as a staking contract"
      }
    },
    "version": 1
  },
  "storageLayout": {
    "storage": [
      {
        "astId": 12978,
        "contract": "src/Theopetra/StakingDistributor.sol:StakingDistributor",
        "label": "UNAUTHORIZED",
        "offset": 0,
        "slot": "0",
        "type": "t_string_storage"
      },
      {
        "astId": 12981,
        "contract": "src/Theopetra/StakingDistributor.sol:StakingDistributor",
        "label": "authority",
        "offset": 0,
        "slot": "1",
        "type": "t_contract(ITheopetraAuthority)2802"
      },
      {
        "astId": 9955,
        "contract": "src/Theopetra/StakingDistributor.sol:StakingDistributor",
        "label": "staking",
        "offset": 0,
        "slot": "2",
        "type": "t_mapping(t_address,t_bool)"
      },
      {
        "astId": 9962,
        "contract": "src/Theopetra/StakingDistributor.sol:StakingDistributor",
        "label": "adjustments",
        "offset": 0,
        "slot": "3",
        "type": "t_mapping(t_uint256,t_struct(Adjust)10000_storage)"
      },
      {
        "astId": 9965,
        "contract": "src/Theopetra/StakingDistributor.sol:StakingDistributor",
        "label": "bounty",
        "offset": 0,
        "slot": "4",
        "type": "t_uint256"
      },
      {
        "astId": 9976,
        "contract": "src/Theopetra/StakingDistributor.sol:StakingDistributor",
        "label": "one",
        "offset": 0,
        "slot": "5",
        "type": "t_bytes16"
      },
      {
        "astId": 9993,
        "contract": "src/Theopetra/StakingDistributor.sol:StakingDistributor",
        "label": "info",
        "offset": 0,
        "slot": "6",
        "type": "t_array(t_struct(Info)9989_storage)dyn_storage"
      }
    ],
    "types": {
      "t_address": {
        "encoding": "inplace",
        "label": "address",
        "numberOfBytes": "20"
      },
      "t_array(t_struct(Info)9989_storage)dyn_storage": {
        "base": "t_struct(Info)9989_storage",
        "encoding": "dynamic_array",
        "label": "struct StakingDistributor.Info[]",
        "numberOfBytes": "32"
      },
      "t_bool": {
        "encoding": "inplace",
        "label": "bool",
        "numberOfBytes": "1"
      },
      "t_bytes16": {
        "encoding": "inplace",
        "label": "bytes16",
        "numberOfBytes": "16"
      },
      "t_contract(ITheopetraAuthority)2802": {
        "encoding": "inplace",
        "label": "contract ITheopetraAuthority",
        "numberOfBytes": "20"
      },
      "t_int256": {
        "encoding": "inplace",
        "label": "int256",
        "numberOfBytes": "32"
      },
      "t_mapping(t_address,t_bool)": {
        "encoding": "mapping",
        "key": "t_address",
        "label": "mapping(address => bool)",
        "numberOfBytes": "32",
        "value": "t_bool"
      },
      "t_mapping(t_uint256,t_struct(Adjust)10000_storage)": {
        "encoding": "mapping",
        "key": "t_uint256",
        "label": "mapping(uint256 => struct StakingDistributor.Adjust)",
        "numberOfBytes": "32",
        "value": "t_struct(Adjust)10000_storage"
      },
      "t_string_storage": {
        "encoding": "bytes",
        "label": "string",
        "numberOfBytes": "32"
      },
      "t_struct(Adjust)10000_storage": {
        "encoding": "inplace",
        "label": "struct StakingDistributor.Adjust",
        "members": [
          {
            "astId": 9995,
            "contract": "src/Theopetra/StakingDistributor.sol:StakingDistributor",
            "label": "add",
            "offset": 0,
            "slot": "0",
            "type": "t_bool"
          },
          {
            "astId": 9997,
            "contract": "src/Theopetra/StakingDistributor.sol:StakingDistributor",
            "label": "rate",
            "offset": 0,
            "slot": "1",
            "type": "t_uint256"
          },
          {
            "astId": 9999,
            "contract": "src/Theopetra/StakingDistributor.sol:StakingDistributor",
            "label": "target",
            "offset": 0,
            "slot": "2",
            "type": "t_uint256"
          }
        ],
        "numberOfBytes": "96"
      },
      "t_struct(Info)9989_storage": {
        "encoding": "inplace",
        "label": "struct StakingDistributor.Info",
        "members": [
          {
            "astId": 9978,
            "contract": "src/Theopetra/StakingDistributor.sol:StakingDistributor",
            "label": "start",
            "offset": 0,
            "slot": "0",
            "type": "t_uint256"
          },
          {
            "astId": 9980,
            "contract": "src/Theopetra/StakingDistributor.sol:StakingDistributor",
            "label": "drs",
            "offset": 0,
            "slot": "1",
            "type": "t_int256"
          },
          {
            "astId": 9982,
            "contract": "src/Theopetra/StakingDistributor.sol:StakingDistributor",
            "label": "dys",
            "offset": 0,
            "slot": "2",
            "type": "t_int256"
          },
          {
            "astId": 9984,
            "contract": "src/Theopetra/StakingDistributor.sol:StakingDistributor",
            "label": "recipient",
            "offset": 0,
            "slot": "3",
            "type": "t_address"
          },
          {
            "astId": 9986,
            "contract": "src/Theopetra/StakingDistributor.sol:StakingDistributor",
            "label": "locked",
            "offset": 20,
            "slot": "3",
            "type": "t_bool"
          },
          {
            "astId": 9988,
            "contract": "src/Theopetra/StakingDistributor.sol:StakingDistributor",
            "label": "nextEpochTime",
            "offset": 21,
            "slot": "3",
            "type": "t_uint48"
          }
        ],
        "numberOfBytes": "128"
      },
      "t_uint256": {
        "encoding": "inplace",
        "label": "uint256",
        "numberOfBytes": "32"
      },
      "t_uint48": {
        "encoding": "inplace",
        "label": "uint48",
        "numberOfBytes": "6"
      }
    }
  }
}