{
  "address": "0x6640C3FD53e4Cf446B4139f478A199147d663a44",
  "abi": [
    {
      "inputs": [
        {
          "internalType": "address",
          "name": "_theo",
          "type": "address"
        },
        {
          "internalType": "uint256",
          "name": "_timelock",
          "type": "uint256"
        },
        {
          "internalType": "address",
          "name": "_authority",
          "type": "address"
        }
      ],
      "stateMutability": "nonpayable",
      "type": "constructor"
    },
    {
      "anonymous": false,
      "inputs": [
        {
          "indexed": true,
          "internalType": "contract ITheopetraAuthority",
          "name": "authority",
          "type": "address"
        }
      ],
      "name": "AuthorityUpdated",
      "type": "event"
    },
    {
      "anonymous": false,
      "inputs": [
        {
          "indexed": true,
          "internalType": "address",
          "name": "debtor",
          "type": "address"
        },
        {
          "indexed": true,
          "internalType": "address",
          "name": "token",
          "type": "address"
        },
        {
          "indexed": false,
          "internalType": "uint256",
          "name": "amount",
          "type": "uint256"
        },
        {
          "indexed": false,
          "internalType": "uint256",
          "name": "value",
          "type": "uint256"
        }
      ],
      "name": "CreateDebt",
      "type": "event"
    },
    {
      "anonymous": false,
      "inputs": [
        {
          "indexed": true,
          "internalType": "address",
          "name": "token",
          "type": "address"
        },
        {
          "indexed": false,
          "internalType": "uint256",
          "name": "amount",
          "type": "uint256"
        },
        {
          "indexed": false,
          "internalType": "uint256",
          "name": "value",
          "type": "uint256"
        }
      ],
      "name": "Deposit",
      "type": "event"
    },
    {
      "anonymous": false,
      "inputs": [
        {
          "indexed": true,
          "internalType": "address",
          "name": "token",
          "type": "address"
        },
        {
          "indexed": false,
          "internalType": "uint256",
          "name": "amount",
          "type": "uint256"
        }
      ],
      "name": "Managed",
      "type": "event"
    },
    {
      "anonymous": false,
      "inputs": [
        {
          "indexed": true,
          "internalType": "address",
          "name": "caller",
          "type": "address"
        },
        {
          "indexed": true,
          "internalType": "address",
          "name": "recipient",
          "type": "address"
        },
        {
          "indexed": false,
          "internalType": "uint256",
          "name": "amount",
          "type": "uint256"
        }
      ],
      "name": "Minted",
      "type": "event"
    },
    {
      "anonymous": false,
      "inputs": [
        {
          "indexed": true,
          "internalType": "enum TheopetraTreasury.STATUS",
          "name": "status",
          "type": "uint8"
        },
        {
          "indexed": false,
          "internalType": "address",
          "name": "queued",
          "type": "address"
        }
      ],
      "name": "PermissionQueued",
      "type": "event"
    },
    {
      "anonymous": false,
      "inputs": [
        {
          "indexed": false,
          "internalType": "address",
          "name": "addr",
          "type": "address"
        },
        {
          "indexed": true,
          "internalType": "enum TheopetraTreasury.STATUS",
          "name": "status",
          "type": "uint8"
        },
        {
          "indexed": false,
          "internalType": "bool",
          "name": "result",
          "type": "bool"
        }
      ],
      "name": "Permissioned",
      "type": "event"
    },
    {
      "anonymous": false,
      "inputs": [
        {
          "indexed": true,
          "internalType": "address",
          "name": "debtor",
          "type": "address"
        },
        {
          "indexed": true,
          "internalType": "address",
          "name": "token",
          "type": "address"
        },
        {
          "indexed": false,
          "internalType": "uint256",
          "name": "amount",
          "type": "uint256"
        },
        {
          "indexed": false,
          "internalType": "uint256",
          "name": "value",
          "type": "uint256"
        }
      ],
      "name": "RepayDebt",
      "type": "event"
    },
    {
      "anonymous": false,
      "inputs": [
        {
          "indexed": true,
          "internalType": "uint256",
          "name": "totalReserves",
          "type": "uint256"
        }
      ],
      "name": "ReservesAudited",
      "type": "event"
    },
    {
      "anonymous": false,
      "inputs": [
        {
          "indexed": true,
          "internalType": "address",
          "name": "token",
          "type": "address"
        },
        {
          "indexed": false,
          "internalType": "uint256",
          "name": "amount",
          "type": "uint256"
        },
        {
          "indexed": false,
          "internalType": "uint256",
          "name": "value",
          "type": "uint256"
        }
      ],
      "name": "Withdrawal",
      "type": "event"
    },
    {
      "inputs": [],
      "name": "BOND_ROLE",
      "outputs": [
        {
          "internalType": "bytes32",
          "name": "",
          "type": "bytes32"
        }
      ],
      "stateMutability": "view",
      "type": "function"
    },
    {
      "inputs": [],
      "name": "THEO",
      "outputs": [
        {
          "internalType": "contract ITHEO",
          "name": "",
          "type": "address"
        }
      ],
      "stateMutability": "view",
      "type": "function"
    },
    {
      "inputs": [],
      "name": "auditReserves",
      "outputs": [],
      "stateMutability": "nonpayable",
      "type": "function"
    },
    {
      "inputs": [],
      "name": "authority",
      "outputs": [
        {
          "internalType": "contract ITheopetraAuthority",
          "name": "",
          "type": "address"
        }
      ],
      "stateMutability": "view",
      "type": "function"
    },
    {
      "inputs": [],
      "name": "baseSupply",
      "outputs": [
        {
          "internalType": "uint256",
          "name": "",
          "type": "uint256"
        }
      ],
      "stateMutability": "view",
      "type": "function"
    },
    {
      "inputs": [],
      "name": "blocksNeededForQueue",
      "outputs": [
        {
          "internalType": "uint256",
          "name": "",
          "type": "uint256"
        }
      ],
      "stateMutability": "view",
      "type": "function"
    },
    {
      "inputs": [
        {
          "internalType": "address",
          "name": "",
          "type": "address"
        }
      ],
      "name": "bondCalculator",
      "outputs": [
        {
          "internalType": "address",
          "name": "",
          "type": "address"
        }
      ],
      "stateMutability": "view",
      "type": "function"
    },
    {
      "inputs": [
        {
          "internalType": "address",
          "name": "",
          "type": "address"
        }
      ],
      "name": "debtLimit",
      "outputs": [
        {
          "internalType": "uint256",
          "name": "",
          "type": "uint256"
        }
      ],
      "stateMutability": "view",
      "type": "function"
    },
    {
      "inputs": [],
      "name": "deltaTokenPrice",
      "outputs": [
        {
          "internalType": "int256",
          "name": "",
          "type": "int256"
        }
      ],
      "stateMutability": "view",
      "type": "function"
    },
    {
      "inputs": [],
      "name": "deltaTreasuryYield",
      "outputs": [
        {
          "internalType": "int256",
          "name": "",
          "type": "int256"
        }
      ],
      "stateMutability": "view",
      "type": "function"
    },
    {
      "inputs": [
        {
          "internalType": "uint256",
          "name": "_amount",
          "type": "uint256"
        },
        {
          "internalType": "address",
          "name": "_token",
          "type": "address"
        },
        {
          "internalType": "uint256",
          "name": "_profit",
          "type": "uint256"
        }
      ],
      "name": "deposit",
      "outputs": [
        {
          "internalType": "uint256",
          "name": "send_",
          "type": "uint256"
        }
      ],
      "stateMutability": "nonpayable",
      "type": "function"
    },
    {
      "inputs": [
        {
          "internalType": "enum TheopetraTreasury.STATUS",
          "name": "_status",
          "type": "uint8"
        },
        {
          "internalType": "address",
          "name": "_toDisable",
          "type": "address"
        }
      ],
      "name": "disable",
      "outputs": [],
      "stateMutability": "nonpayable",
      "type": "function"
    },
    {
      "inputs": [],
      "name": "disableTimelock",
      "outputs": [],
      "stateMutability": "nonpayable",
      "type": "function"
    },
    {
      "inputs": [
        {
          "internalType": "enum TheopetraTreasury.STATUS",
          "name": "_status",
          "type": "uint8"
        },
        {
          "internalType": "address",
          "name": "_address",
          "type": "address"
        },
        {
          "internalType": "address",
          "name": "_calculator",
          "type": "address"
        }
      ],
      "name": "enable",
      "outputs": [],
      "stateMutability": "nonpayable",
      "type": "function"
    },
    {
      "inputs": [
        {
          "internalType": "uint256",
          "name": "_index",
          "type": "uint256"
        }
      ],
      "name": "execute",
      "outputs": [],
      "stateMutability": "nonpayable",
      "type": "function"
    },
    {
      "inputs": [],
      "name": "getTheoBondingCalculator",
      "outputs": [
        {
          "internalType": "contract IBondCalculator",
          "name": "",
          "type": "address"
        }
      ],
      "stateMutability": "view",
      "type": "function"
    },
    {
      "inputs": [
        {
          "internalType": "uint256",
          "name": "_amount",
          "type": "uint256"
        },
        {
          "internalType": "address",
          "name": "_token",
          "type": "address"
        }
      ],
      "name": "incurDebt",
      "outputs": [],
      "stateMutability": "nonpayable",
      "type": "function"
    },
    {
      "inputs": [
        {
          "internalType": "address",
          "name": "_address",
          "type": "address"
        },
        {
          "internalType": "enum TheopetraTreasury.STATUS",
          "name": "_status",
          "type": "uint8"
        }
      ],
      "name": "indexInRegistry",
      "outputs": [
        {
          "internalType": "bool",
          "name": "",
          "type": "bool"
        },
        {
          "internalType": "uint256",
          "name": "",
          "type": "uint256"
        }
      ],
      "stateMutability": "view",
      "type": "function"
    },
    {
      "inputs": [],
      "name": "initialize",
      "outputs": [],
      "stateMutability": "nonpayable",
      "type": "function"
    },
    {
      "inputs": [],
      "name": "initialized",
      "outputs": [
        {
          "internalType": "bool",
          "name": "",
          "type": "bool"
        }
      ],
      "stateMutability": "view",
      "type": "function"
    },
    {
      "inputs": [
        {
          "internalType": "address",
          "name": "_token",
          "type": "address"
        },
        {
          "internalType": "uint256",
          "name": "_amount",
          "type": "uint256"
        }
      ],
      "name": "manage",
      "outputs": [],
      "stateMutability": "nonpayable",
      "type": "function"
    },
    {
      "inputs": [
        {
          "internalType": "address",
          "name": "_recipient",
          "type": "address"
        },
        {
          "internalType": "uint256",
          "name": "_amount",
          "type": "uint256"
        }
      ],
      "name": "mint",
      "outputs": [],
      "stateMutability": "nonpayable",
      "type": "function"
    },
    {
      "inputs": [
        {
          "internalType": "uint256",
          "name": "_index",
          "type": "uint256"
        }
      ],
      "name": "nullify",
      "outputs": [],
      "stateMutability": "nonpayable",
      "type": "function"
    },
    {
      "inputs": [],
      "name": "onChainGovernanceTimelock",
      "outputs": [
        {
          "internalType": "uint256",
          "name": "",
          "type": "uint256"
        }
      ],
      "stateMutability": "view",
      "type": "function"
    },
    {
      "inputs": [
        {
          "internalType": "uint256",
          "name": "",
          "type": "uint256"
        }
      ],
      "name": "permissionQueue",
      "outputs": [
        {
          "internalType": "enum TheopetraTreasury.STATUS",
          "name": "managing",
          "type": "uint8"
        },
        {
          "internalType": "address",
          "name": "toPermit",
          "type": "address"
        },
        {
          "internalType": "address",
          "name": "calculator",
          "type": "address"
        },
        {
          "internalType": "uint256",
          "name": "timelockEnd",
          "type": "uint256"
        },
        {
          "internalType": "bool",
          "name": "nullify",
          "type": "bool"
        },
        {
          "internalType": "bool",
          "name": "executed",
          "type": "bool"
        }
      ],
      "stateMutability": "view",
      "type": "function"
    },
    {
      "inputs": [
        {
          "internalType": "enum TheopetraTreasury.STATUS",
          "name": "",
          "type": "uint8"
        },
        {
          "internalType": "address",
          "name": "",
          "type": "address"
        }
      ],
      "name": "permissions",
      "outputs": [
        {
          "internalType": "bool",
          "name": "",
          "type": "bool"
        }
      ],
      "stateMutability": "view",
      "type": "function"
    },
    {
      "inputs": [
        {
          "internalType": "enum TheopetraTreasury.STATUS",
          "name": "_status",
          "type": "uint8"
        },
        {
          "internalType": "address",
          "name": "_address",
          "type": "address"
        },
        {
          "internalType": "address",
          "name": "_calculator",
          "type": "address"
        }
      ],
      "name": "queueTimelock",
      "outputs": [],
      "stateMutability": "nonpayable",
      "type": "function"
    },
    {
      "inputs": [
        {
          "internalType": "enum TheopetraTreasury.STATUS",
          "name": "",
          "type": "uint8"
        },
        {
          "internalType": "uint256",
          "name": "",
          "type": "uint256"
        }
      ],
      "name": "registry",
      "outputs": [
        {
          "internalType": "address",
          "name": "",
          "type": "address"
        }
      ],
      "stateMutability": "view",
      "type": "function"
    },
    {
      "inputs": [
        {
          "internalType": "uint256",
          "name": "_amount",
          "type": "uint256"
        },
        {
          "internalType": "address",
          "name": "_token",
          "type": "address"
        }
      ],
      "name": "repayDebtWithReserve",
      "outputs": [],
      "stateMutability": "nonpayable",
      "type": "function"
    },
    {
      "inputs": [
        {
          "internalType": "uint256",
          "name": "_amount",
          "type": "uint256"
        }
      ],
      "name": "repayDebtWithTHEO",
      "outputs": [],
      "stateMutability": "nonpayable",
      "type": "function"
    },
    {
      "inputs": [],
      "name": "sTHEO",
      "outputs": [
        {
          "internalType": "contract ITokenDebt",
          "name": "",
          "type": "address"
        }
      ],
      "stateMutability": "view",
      "type": "function"
    },
    {
      "inputs": [
        {
          "internalType": "contract ITheopetraAuthority",
          "name": "_newAuthority",
          "type": "address"
        }
      ],
      "name": "setAuthority",
      "outputs": [],
      "stateMutability": "nonpayable",
      "type": "function"
    },
    {
      "inputs": [
        {
          "internalType": "address",
          "name": "_address",
          "type": "address"
        },
        {
          "internalType": "uint256",
          "name": "_limit",
          "type": "uint256"
        }
      ],
      "name": "setDebtLimit",
      "outputs": [],
      "stateMutability": "nonpayable",
      "type": "function"
    },
    {
      "inputs": [
        {
          "internalType": "address",
          "name": "_theoBondingCalculator",
          "type": "address"
        }
      ],
      "name": "setTheoBondingCalculator",
      "outputs": [],
      "stateMutability": "nonpayable",
      "type": "function"
    },
    {
      "inputs": [],
      "name": "theoDebt",
      "outputs": [
        {
          "internalType": "uint256",
          "name": "",
          "type": "uint256"
        }
      ],
      "stateMutability": "view",
      "type": "function"
    },
    {
      "inputs": [],
      "name": "timelockEnabled",
      "outputs": [
        {
          "internalType": "bool",
          "name": "",
          "type": "bool"
        }
      ],
      "stateMutability": "view",
      "type": "function"
    },
    {
      "inputs": [],
      "name": "tokenPerformanceUpdate",
      "outputs": [],
      "stateMutability": "nonpayable",
      "type": "function"
    },
    {
      "inputs": [
        {
          "internalType": "address",
          "name": "_token",
          "type": "address"
        },
        {
          "internalType": "uint256",
          "name": "_amount",
          "type": "uint256"
        }
      ],
      "name": "tokenValue",
      "outputs": [
        {
          "internalType": "uint256",
          "name": "value_",
          "type": "uint256"
        }
      ],
      "stateMutability": "view",
      "type": "function"
    },
    {
      "inputs": [],
      "name": "totalDebt",
      "outputs": [
        {
          "internalType": "uint256",
          "name": "",
          "type": "uint256"
        }
      ],
      "stateMutability": "view",
      "type": "function"
    },
    {
      "inputs": [],
      "name": "totalReserves",
      "outputs": [
        {
          "internalType": "uint256",
          "name": "",
          "type": "uint256"
        }
      ],
      "stateMutability": "view",
      "type": "function"
    },
    {
      "inputs": [
        {
          "internalType": "uint256",
          "name": "_amount",
          "type": "uint256"
        },
        {
          "internalType": "address",
          "name": "_token",
          "type": "address"
        }
      ],
      "name": "withdraw",
      "outputs": [],
      "stateMutability": "nonpayable",
      "type": "function"
    }
  ],
  "transactionHash": "0x31b51baeb8303030134ec506b307a7c0b2b01a966ed454de913595d2e1a17d74",
  "args": [
    "0x1A2EA28399A2e4f8f3EEfeA5f41770B4C61fE643",
    0,
    "0xBcdF034cE6624A817c1BfEffBDE8691443e5fDbB"
  ],
  "numDeployments": 1,
  "solcInputHash": "446a1be813bfb9f78647a023efb0da17",
  "bytecode": "0x610100604052600c60c08190526b15539055551213d49256915160a21b60e090815262000030916000919062000213565b506040805180820190915260168082527f54726561737572793a206e6f74206163636570746564000000000000000000006020909201918252620000779160139162000213565b506040805180820190915260168082527f54726561737572793a206e6f7420617070726f766564000000000000000000006020909201918252620000be9160149162000213565b506040805180820190915260178082527f54726561737572793a20696e76616c696420746f6b656e0000000000000000006020909201918252620001059160159162000213565b503480156200011357600080fd5b50604051620047c1380380620047c1833981810160405260608110156200013957600080fd5b5080516020820151604092830151600180546001600160a01b0319166001600160a01b038316908117909155935192939192909182917f2f658b440c35314f52658ea8a740e05b284cdc84dc9ae01e891f21b8933e7cad90600090a2506001600160a01b038316620001e7576040805162461bcd60e51b81526020600482015260126024820152715a65726f20616464726573733a205448454f60701b604482015290519081900360640190fd5b5060609190911b6001600160601b0319166080526011805461ffff1916905560a05242600e55620002bf565b828054600181600116156101000203166002900490600052602060002090601f0160209004810192826200024b576000855562000296565b82601f106200026657805160ff191683800117855562000296565b8280016001018555821562000296579182015b828111156200029657825182559160200191906001019062000279565b50620002a4929150620002a8565b5090565b5b80821115620002a45760008155600101620002a9565b60805160601c60a0516144956200032c600039806113e4528061143c528061241b5280612f3a5250806109405280610cb052806110b3528061112b5280611aa05280611c835280611d8c52806125c052806126915280612e40528061319b52806135fb52506144956000f3fe608060405234801561001057600080fd5b50600436106102d25760003560e01c8063817f763511610186578063b320f6a9116100e3578063d796ffb811610097578063f182178311610071578063f18217831461076a578063fc7b9c1814610796578063fe0d94c11461079e576102d2565b8063d796ffb8146106ff578063d9edbc1d1461072b578063e4e33ef814610733576102d2565b8063bc157ac1116100c8578063bc157ac1146106bd578063bf7e214f146106ef578063d07f390f146106f7576102d2565b8063b320f6a9146106ad578063b39df88e146106b5576102d2565b806394ead1191161013a5780639b70b2af1161011f5780639b70b2af146106355780639edd8d431461065b578063a44b828714610687576102d2565b806394ead119146106255780639a5739d81461062d576102d2565b806389ee68a91161016b57806389ee68a9146105cb5780638f840ddd146105d357806393988b53146105db576102d2565b8063817f7635146105bb578063860f5048146105c3576102d2565b8063342247ab116102345780635619004b116101e85780637a9e5e4b116101cd5780637a9e5e4b146105855780637d921af0146105ab5780638129fc1c146105b3576102d2565b80635619004b1461054257806371a45c9514610568576102d2565b806343017ac21161021957806343017ac21461047f578063503edcf01461049c5780635299183114610513576102d2565b8063342247ab1461044b57806340c10f1914610453576102d2565b80631af4da701161028b5780632b7ce500116102705780632b7ce5001461040c5780632e672ad414610414578063330dd3451461041c576102d2565b80631af4da70146103935780631d6d5f05146103d5576102d2565b806312422d23116102bc57806312422d2314610331578063158ef93e1461035d578063192d57c514610379576102d2565b8062f714ce146102d75780630b0eee3014610305575b600080fd5b610303600480360360408110156102ed57600080fd5b50803590602001356001600160a01b03166107bb565b005b6103036004803603604081101561031b57600080fd5b506001600160a01b038135169060200135610a3a565b6103036004803603604081101561034757600080fd5b50803590602001356001600160a01b0316610cac565b610365611211565b604080519115158252519081900360200190f35b61038161121f565b60408051918252519081900360200190f35b6103b9600480360360208110156103a957600080fd5b50356001600160a01b0316611266565b604080516001600160a01b039092168252519081900360200190f35b610303600480360360608110156103eb57600080fd5b5060ff813516906001600160a01b0360208201358116916040013516611281565b6103036115d3565b6103816119d1565b6103656004803603604081101561043257600080fd5b50803560ff1690602001356001600160a01b03166119d7565b6103816119f7565b6103036004803603604081101561046957600080fd5b506001600160a01b038135169060200135611a1b565b6103036004803603602081101561049557600080fd5b5035611b71565b6104b9600480360360208110156104b257600080fd5b5035611ddd565b6040518087600b8111156104c957fe5b8152602001866001600160a01b03168152602001856001600160a01b0316815260200184815260200183151581526020018215158152602001965050505050505060405180910390f35b6103036004803603604081101561052957600080fd5b50803560ff1690602001356001600160a01b0316611e34565b6103816004803603602081101561055857600080fd5b50356001600160a01b031661203c565b6103036004803603602081101561057e57600080fd5b503561204e565b6103036004803603602081101561059b57600080fd5b50356001600160a01b031661216e565b6103036122a4565b610303612447565b6103b96125aa565b6103816125b9565b610303612649565b610381612725565b61060a600480360360408110156105f157600080fd5b5080356001600160a01b0316906020013560ff1661272b565b60408051921515835260208301919091528051918290030190f35b6103b9612813565b610381612822565b6103036004803603602081101561064b57600080fd5b50356001600160a01b0316612a28565b6103036004803603604081101561067157600080fd5b506001600160a01b038135169060200135612b36565b6103b96004803603604081101561069d57600080fd5b5060ff8135169060200135612c3e565b610365612c76565b610381612c7f565b610381600480360360608110156106d357600080fd5b508035906001600160a01b036020820135169060400135612c85565b6103b9612f29565b610381612f38565b6103036004803603604081101561071557600080fd5b50803590602001356001600160a01b0316612f5c565b6103b9613199565b6103036004803603606081101561074957600080fd5b5060ff813516906001600160a01b03602082013581169160400135166131bd565b6103816004803603604081101561078057600080fd5b506001600160a01b038135169060200135613551565b610381613773565b610303600480360360208110156107b457600080fd5b5035613779565b6001600160a01b03811660009081527f8819ef417987f8ae7a81f42cdfb18815282fe989326fbff903d13cf0e03ace29602052604090205460139060ff166108965760405162461bcd60e51b81526020600482019081528254600260001961010060018416150201909116046024830181905290918291604490910190849080156108875780601f1061085c57610100808354040283529160200191610887565b820191906000526020600020905b81548152906001019060200180831161086a57829003601f168201915b50509250505060405180910390fd5b503360009081527f3e5fec24aa4dc4e5aee2e025e51e1392c72a2500577559fae9665c6d52bd6a31602052604090205460149060ff1661092f5760405162461bcd60e51b81526020600482019081528254600260001961010060018416150201909116046024830181905290918291604490910190849080156108875780601f1061085c57610100808354040283529160200191610887565b50600061093c8284613551565b90507f00000000000000000000000000000000000000000000000000000000000000006001600160a01b03166379cc679033836040518363ffffffff1660e01b815260040180836001600160a01b0316815260200182815260200192505050600060405180830381600087803b1580156109b557600080fd5b505af11580156109c9573d6000803e3d6000fd5b50506009546109db9250905082613c8a565b6009556109f26001600160a01b0383163385613cd3565b604080518481526020810183905281516001600160a01b038516927fdf273cb619d95419a9cd0ec88123a0538c85064229baa6363788f743fff90deb928290030190a2505050565b6001600160a01b03821660009081527fbfd358e93f18da3ed276c3afdbdba00b8f0b6008a03476a6a86bd6320ee6938b602052604090205460ff1615610b18573360009081527f697b2bd7bb2984c4e0dc14c79c987d37818484a62958b9c45a0e8b962f20650f602052604090205460149060ff16610b125760405162461bcd60e51b81526020600482019081528254600260001961010060018416150201909116046024830181905290918291604490910190849080156108875780601f1061085c57610100808354040283529160200191610887565b50610bb2565b3360009081527f75f96ab15d697e93042dc45b5c896c4b27e89bb6eaf39475c5c371cb2513f7d2602052604090205460149060ff16610bb05760405162461bcd60e51b81526020600482019081528254600260001961010060018416150201909116046024830181905290918291604490910190849080156108875780601f1061085c57610100808354040283529160200191610887565b505b6001600160a01b03821660009081527f8819ef417987f8ae7a81f42cdfb18815282fe989326fbff903d13cf0e03ace29602052604090205460ff1680610c2f57506001600160a01b03821660009081527fbfd358e93f18da3ed276c3afdbdba00b8f0b6008a03476a6a86bd6320ee6938b602052604090205460ff165b15610c55576000610c408383613551565b600954909150610c509082613c8a565b600955505b610c696001600160a01b0383163383613cd3565b6040805182815290516001600160a01b038416917fb4460e34f1e91c4fa28eb7fac4cbd88cf530ef54a67e1978cd5edd9f77033ead919081900360200190a25050565b60007f00000000000000000000000000000000000000000000000000000000000000006001600160a01b0316826001600160a01b03161415610d89573360009081527f4da38fc8e544afc56a4c2a17752b8ddb67d8e23ac4583c9029d2e2d1dbe6c988602052604090205460149060ff16610d805760405162461bcd60e51b81526020600482019081528254600260001961010060018416150201909116046024830181905290918291604490910190849080156108875780601f1061085c57610100808354040283529160200191610887565b50829050610ed1565b3360009081527f4ced6d0d36392b04cc5d8761b1327b3bbba6e1089c77f60a9a9ca18e05e4f00e602052604090205460149060ff16610e215760405162461bcd60e51b81526020600482019081528254600260001961010060018416150201909116046024830181905290918291604490910190849080156108875780601f1061085c57610100808354040283529160200191610887565b506001600160a01b03821660009081527f8819ef417987f8ae7a81f42cdfb18815282fe989326fbff903d13cf0e03ace29602052604090205460139060ff16610ec35760405162461bcd60e51b81526020600482019081528254600260001961010060018416150201909116046024830181905290918291604490910190849080156108875780601f1061085c57610100808354040283529160200191610887565b50610ece8284613551565b90505b601581610f375760405162461bcd60e51b81526020600482019081528254600260001961010060018416150201909116046024830181905290918291604490910190849080156108875780601f1061085c57610100808354040283529160200191610887565b506002546040805163ae5c6cd360e01b8152600481018490523360248201526001604482015290516001600160a01b039092169163ae5c6cd39160648082019260009290919082900301818387803b158015610f9257600080fd5b505af1158015610fa6573d6000803e3d6000fd5b5050336000818152600860209081526040918290205460025483517fc4ef1c4c000000000000000000000000000000000000000000000000000000008152600481019590955292519095506001600160a01b03909216935063c4ef1c4c9260248082019391829003018186803b15801561101f57600080fd5b505afa158015611033573d6000803e3d6000fd5b505050506040513d602081101561104957600080fd5b5051111561109e576040805162461bcd60e51b815260206004820152601760248201527f54726561737572793a2065786365656473206c696d6974000000000000000000604482015290519081900360640190fd5b600a546110ab9082613e6b565b600a819055507f00000000000000000000000000000000000000000000000000000000000000006001600160a01b0316826001600160a01b031614156111a057604080517f40c10f190000000000000000000000000000000000000000000000000000000081523360048201526024810183905290516001600160a01b037f000000000000000000000000000000000000000000000000000000000000000016916340c10f1991604480830192600092919082900301818387803b15801561117257600080fd5b505af1158015611186573d6000803e3d6000fd5b5050600b546111989250905082613e6b565b600b556111c4565b6009546111ad9082613c8a565b6009556111c46001600160a01b0383163385613cd3565b604080518481526020810183905281516001600160a01b0385169233927f7e1a939bed137a819b5d2979822c67f877689f7a863d5e4cb57cdca97b2977d6929081900390910190a3505050565b601154610100900460ff1681565b6000611261611232600d60020154613ec5565b611255611243600d60020154613ec5565b60105461124f90613ec5565b90613f29565b633b9aca000290613f8e565b905090565b6007602052600090815260409020546001600160a01b031681565b600160009054906101000a90046001600160a01b03166001600160a01b0316630c340a246040518163ffffffff1660e01b815260040160206040518083038186803b1580156112cf57600080fd5b505afa1580156112e3573d6000803e3d6000fd5b505050506040513d60208110156112f957600080fd5b50516000906001600160a01b0316331461136c5760405162461bcd60e51b81526020600482019081528254600260001961010060018416150201909116046024830181905290918291604490910190849080156108875780601f1061085c57610100808354040283529160200191610887565b506001600160a01b03821661138057600080fd5b60115460ff1615156001146113dc576040805162461bcd60e51b815260206004820181905260248201527f54696d656c6f636b2069732064697361626c65642c2075736520656e61626c65604482015290519081900360640190fd5b6000611408437f0000000000000000000000000000000000000000000000000000000000000000613e6b565b9050600384600b81111561141857fe5b148061142f5750600684600b81111561142d57fe5b145b1561146c576114696114627f00000000000000000000000000000000000000000000000000000000000000006002614062565b4390613e6b565b90505b600c6040518060c0016040528086600b81111561148557fe5b81526001600160a01b0380871660208084019190915290861660408301526060820185905260006080830181905260a090920182905283546001818101865594835291208251600490920201805492939092839160ff199091169083600b8111156114ec57fe5b0217905550602082015181547fffffffffffffffffffffff0000000000000000000000000000000000000000ff166101006001600160a01b03928316810291909117835560408401516001840180546001600160a01b03191691909316179091556060830151600283015560808301516003909201805460a09094015160ff199094169215159290921761ff0019169215150291909117905583600b81111561159157fe5b604080516001600160a01b038616815290517fc822ff41836a6dc998393c71843db8adcbbf01721f41b32389f6838ecb1ea9c89181900360200190a250505050565b600160009054906101000a90046001600160a01b03166001600160a01b0316630c340a246040518163ffffffff1660e01b815260040160206040518083038186803b15801561162157600080fd5b505afa158015611635573d6000803e3d6000fd5b505050506040513d602081101561164b57600080fd5b50516000906001600160a01b031633146116be5760405162461bcd60e51b81526020600482019081528254600260001961010060018416150201909116046024830181905290918291604490910190849080156108875780601f1061085c57610100808354040283529160200191610887565b5060026000908152600560209081527f89832631fb3c3307a103ba2c84ab569c64d6182a18893dcd163f0f1c2090733a805460408051828502810185019091528181526060939092919083018282801561174157602002820191906000526020600020905b81546001600160a01b03168152600190910190602001808311611723575b5050505050905060005b815181101561187a5760026000908152600660205282517f8819ef417987f8ae7a81f42cdfb18815282fe989326fbff903d13cf0e03ace29919084908490811061179157fe5b6020908102919091018101516001600160a01b031682528101919091526040016000205460ff16156118725761186f6118688383815181106117cf57fe5b60200260200101518484815181106117e357fe5b60200260200101516001600160a01b03166370a08231306040518263ffffffff1660e01b815260040180826001600160a01b0316815260200191505060206040518083038186803b15801561183757600080fd5b505afa15801561184b573d6000803e3d6000fd5b505050506040513d602081101561186157600080fd5b5051613551565b8490613e6b565b92505b60010161174b565b506005600081905260209081527f458b30c2d72bfd2c6317304a4594ecbafe5f729d3111b65fdc3a33bd48e5432d80546040805182850281018501909152818152606093909291908301828280156118fb57602002820191906000526020600020905b81546001600160a01b031681526001909101906020018083116118dd575b5050505050905060005b815181101561199b5760056000908152600660205282517fbfd358e93f18da3ed276c3afdbdba00b8f0b6008a03476a6a86bd6320ee6938b919084908490811061194b57fe5b6020908102919091018101516001600160a01b031682528101919091526040016000205460ff1615611993576119906119898383815181106117cf57fe5b8590613e6b565b93505b600101611905565b50600983905560405183907fec691f09f6924b27932253f85caf99bacc30360cc0e50a1cc4d2acc24601446690600090a2505050565b600b5481565b600660209081526000928352604080842090915290825290205460ff1681565b7fc7975a12e44269ae9807788974b5f14480a3f5a459d7dafacd00b9e5f11db7d881565b3360009081527fb8d683c9d414f481826f3e7fe14b3ac6ae8c73450778287390c4bb8cb9f2e80b602052604090205460ff16611a9e576040805162461bcd60e51b815260206004820152601e60248201527f43616c6c6572206973206e6f74206120526577617264206d616e616765720000604482015290519081900360640190fd5b7f00000000000000000000000000000000000000000000000000000000000000006001600160a01b03166340c10f1983836040518363ffffffff1660e01b815260040180836001600160a01b0316815260200182815260200192505050600060405180830381600087803b158015611b1557600080fd5b505af1158015611b29573d6000803e3d6000fd5b50506040805184815290516001600160a01b03861693503392507f9d228d69b5fdb8d273a2336f8fb8612d039631024ea9bf09c424a9503aa078f09181900360200190a35050565b3360009081527f4ced6d0d36392b04cc5d8761b1327b3bbba6e1089c77f60a9a9ca18e05e4f00e602052604090205460ff1680611bdc57503360009081527f4da38fc8e544afc56a4c2a17752b8ddb67d8e23ac4583c9029d2e2d1dbe6c988602052604090205460ff165b601490611c425760405162461bcd60e51b81526020600482019081528254600260001961010060018416150201909116046024830181905290918291604490910190849080156108875780601f1061085c57610100808354040283529160200191610887565b50604080517f79cc67900000000000000000000000000000000000000000000000000000000081523360048201526024810183905290516001600160a01b037f000000000000000000000000000000000000000000000000000000000000000016916379cc679091604480830192600092919082900301818387803b158015611cca57600080fd5b505af1158015611cde573d6000803e3d6000fd5b50506002546040805163ae5c6cd360e01b81526004810186905233602482015260006044820181905291516001600160a01b03909316945063ae5c6cd393506064808201939182900301818387803b158015611d3957600080fd5b505af1158015611d4d573d6000803e3d6000fd5b5050600a54611d5f9250905082613c8a565b600a55600b54611d6f9082613c8a565b600b55604080518281526020810183905281516001600160a01b037f0000000000000000000000000000000000000000000000000000000000000000169233927fc6d98eecfc9c78ab62c89a82950079b54874749f1f6f24090f7acc758bc2f309929081900390910190a350565b600c8181548110611ded57600080fd5b6000918252602090912060049091020180546001820154600283015460039093015460ff80841695506001600160a01b036101009485900481169593169382821692041686565b600160009054906101000a90046001600160a01b03166001600160a01b0316630c340a246040518163ffffffff1660e01b815260040160206040518083038186803b158015611e8257600080fd5b505afa158015611e96573d6000803e3d6000fd5b505050506040513d6020811015611eac57600080fd5b50516001600160a01b0316331480611f455750600160009054906101000a90046001600160a01b03166001600160a01b031663452a93206040518163ffffffff1660e01b815260040160206040518083038186803b158015611f0d57600080fd5b505afa158015611f21573d6000803e3d6000fd5b505050506040513d6020811015611f3757600080fd5b50516001600160a01b031633145b611f96576040805162461bcd60e51b815260206004820152601960248201527f4f6e6c7920676f7665726e6f72206f7220677561726469616e00000000000000604482015290519081900360640190fd5b60006006600084600b811115611fa857fe5b600b811115611fb357fe5b8152602080820192909252604090810160009081206001600160a01b03861682529092529020805460ff191691151591909117905581600b811115611ff457fe5b604080516001600160a01b03841681526000602082015281517f7531a7aefe3985500c4dec2dcb6049a708f14c6a8a9022b435b8841bdb8e1713929181900390910190a25050565b60086020526000908152604090205481565b600160009054906101000a90046001600160a01b03166001600160a01b0316630c340a246040518163ffffffff1660e01b815260040160206040518083038186803b15801561209c57600080fd5b505afa1580156120b0573d6000803e3d6000fd5b505050506040513d60208110156120c657600080fd5b50516000906001600160a01b031633146121395760405162461bcd60e51b81526020600482019081528254600260001961010060018416150201909116046024830181905290918291604490910190849080156108875780601f1061085c57610100808354040283529160200191610887565b506001600c828154811061214957fe5b60009182526020909120600490910201600301805460ff191691151591909117905550565b600160009054906101000a90046001600160a01b03166001600160a01b0316630c340a246040518163ffffffff1660e01b815260040160206040518083038186803b1580156121bc57600080fd5b505afa1580156121d0573d6000803e3d6000fd5b505050506040513d60208110156121e657600080fd5b50516000906001600160a01b031633146122595760405162461bcd60e51b81526020600482019081528254600260001961010060018416150201909116046024830181905290918291604490910190849080156108875780601f1061085c57610100808354040283529160200191610887565b50600180546001600160a01b0319166001600160a01b0383169081179091556040517f2f658b440c35314f52658ea8a740e05b284cdc84dc9ae01e891f21b8933e7cad90600090a250565b600160009054906101000a90046001600160a01b03166001600160a01b0316630c340a246040518163ffffffff1660e01b815260040160206040518083038186803b1580156122f257600080fd5b505afa158015612306573d6000803e3d6000fd5b505050506040513d602081101561231c57600080fd5b50516000906001600160a01b0316331461238f5760405162461bcd60e51b81526020600482019081528254600260001961010060018416150201909116046024830181905290918291604490910190849080156108875780601f1061085c57610100808354040283529160200191610887565b5060115460ff1615156001146123ec576040805162461bcd60e51b815260206004820152601960248201527f74696d656c6f636b20616c72656164792064697361626c656400000000000000604482015290519081900360640190fd5b601254158015906123ff57504360125411155b15612413576011805460ff19169055612445565b6124416114627f00000000000000000000000000000000000000000000000000000000000000006007614062565b6012555b565b600160009054906101000a90046001600160a01b03166001600160a01b0316630c340a246040518163ffffffff1660e01b815260040160206040518083038186803b15801561249557600080fd5b505afa1580156124a9573d6000803e3d6000fd5b505050506040513d60208110156124bf57600080fd5b50516000906001600160a01b031633146125325760405162461bcd60e51b81526020600482019081528254600260001961010060018416150201909116046024830181905290918291604490910190849080156108875780601f1061085c57610100808354040283529160200191610887565b50601154610100900460ff1615612590576040805162461bcd60e51b815260206004820152601360248201527f416c726561647920696e697469616c697a656400000000000000000000000000604482015290519081900360640190fd5b6011805461ff001960ff1990911660011716610100179055565b6004546001600160a01b031690565b6000600b547f00000000000000000000000000000000000000000000000000000000000000006001600160a01b03166318160ddd6040518163ffffffff1660e01b815260040160206040518083038186803b15801561261757600080fd5b505afa15801561262b573d6000803e3d6000fd5b505050506040513d602081101561264157600080fd5b505103905090565b600e5461708001421061244557601054600f5560048054604080517f4249719f0000000000000000000000000000000000000000000000000000000081526001600160a01b037f0000000000000000000000000000000000000000000000000000000000000000811694820194909452633b9aca00602482015290519290911691634249719f91604480820192602092909190829003018186803b1580156126f057600080fd5b505afa158015612704573d6000803e3d6000fd5b505050506040513d602081101561271a57600080fd5b505160105542600e55565b60095481565b60008060606005600085600b81111561274057fe5b600b81111561274b57fe5b81526020019081526020016000208054806020026020016040519081016040528092919081815260200182805480156127ad57602002820191906000526020600020905b81546001600160a01b0316815260019091019060200180831161278f575b5050505050905060005b8151811015612802578181815181106127cc57fe5b60200260200101516001600160a01b0316866001600160a01b031614156127fa5760019350915061280c9050565b6001016127b7565b5060008092509250505b9250929050565b6002546001600160a01b031681565b6003546000906001600160a01b0316612882576040805162461bcd60e51b815260206004820152601b60248201527f5a65726f20616464726573733a205969656c645265706f727465720000000000604482015290519081900360640190fd5b600354604080517f015688830000000000000000000000000000000000000000000000000000000081529051611261926001600160a01b0316916301568883916004808301926020929190829003018186803b1580156128e157600080fd5b505afa1580156128f5573d6000803e3d6000fd5b505050506040513d602081101561290b57600080fd5b5051600354604080517f015688830000000000000000000000000000000000000000000000000000000081529051611255926001600160a01b0316916301568883916004808301926020929190829003018186803b15801561296c57600080fd5b505afa158015612980573d6000803e3d6000fd5b505050506040513d602081101561299657600080fd5b5051600354604080517f78a642f200000000000000000000000000000000000000000000000000000000815290516001600160a01b03909216916378a642f291600480820192602092909190829003018186803b1580156129f657600080fd5b505afa158015612a0a573d6000803e3d6000fd5b505050506040513d6020811015612a2057600080fd5b505190613f29565b600160009054906101000a90046001600160a01b03166001600160a01b031663452a93206040518163ffffffff1660e01b815260040160206040518083038186803b158015612a7657600080fd5b505afa158015612a8a573d6000803e3d6000fd5b505050506040513d6020811015612aa057600080fd5b50516000906001600160a01b03163314612b135760405162461bcd60e51b81526020600482019081528254600260001961010060018416150201909116046024830181905290918291604490910190849080156108875780601f1061085c57610100808354040283529160200191610887565b50600480546001600160a01b0319166001600160a01b0392909216919091179055565b600160009054906101000a90046001600160a01b03166001600160a01b0316630c340a246040518163ffffffff1660e01b815260040160206040518083038186803b158015612b8457600080fd5b505afa158015612b98573d6000803e3d6000fd5b505050506040513d6020811015612bae57600080fd5b50516000906001600160a01b03163314612c215760405162461bcd60e51b81526020600482019081528254600260001961010060018416150201909116046024830181905290918291604490910190849080156108875780601f1061085c57610100808354040283529160200191610887565b506001600160a01b03909116600090815260086020526040902055565b60056020528160005260406000208181548110612c5a57600080fd5b6000918252602090912001546001600160a01b03169150829050565b60115460ff1681565b60125481565b6001600160a01b03821660009081527f8819ef417987f8ae7a81f42cdfb18815282fe989326fbff903d13cf0e03ace29602052604081205460ff1615612d635760066000805b600b811115612cd657fe5b81526020808201929092526040908101600090812033825290925290205460149060ff16612d5d5760405162461bcd60e51b81526020600482019081528254600260001961010060018416150201909116046024830181905290918291604490910190849080156108875780601f1061085c57610100808354040283529160200191610887565b50612e0f565b6001600160a01b03831660009081527fbfd358e93f18da3ed276c3afdbdba00b8f0b6008a03476a6a86bd6320ee6938b602052604090205460ff1615612dae57600660006004612ccb565b60405162461bcd60e51b815260206004820190815260158054600260001961010060018416150201909116046024840181905290928291604490910190849080156108875780601f1061085c57610100808354040283529160200191610887565b612e246001600160a01b0384163330876140bb565b6000612e308486613551565b9050612e3c8184613c8a565b91507f00000000000000000000000000000000000000000000000000000000000000006001600160a01b03166340c10f1933846040518363ffffffff1660e01b815260040180836001600160a01b0316815260200182815260200192505050600060405180830381600087803b158015612eb557600080fd5b505af1158015612ec9573d6000803e3d6000fd5b5050600954612edb9250905082613e6b565b600955604080518681526020810183905281516001600160a01b038716927f90890809c654f11d6e72a28fa60149770a0d11ec6c92319d6ceb2bb0a4ea1a15928290030190a2509392505050565b6001546001600160a01b031681565b7f000000000000000000000000000000000000000000000000000000000000000081565b3360009081527f4ced6d0d36392b04cc5d8761b1327b3bbba6e1089c77f60a9a9ca18e05e4f00e602052604090205460149060ff16612ff45760405162461bcd60e51b81526020600482019081528254600260001961010060018416150201909116046024830181905290918291604490910190849080156108875780601f1061085c57610100808354040283529160200191610887565b506001600160a01b03811660009081527f8819ef417987f8ae7a81f42cdfb18815282fe989326fbff903d13cf0e03ace29602052604090205460139060ff166130965760405162461bcd60e51b81526020600482019081528254600260001961010060018416150201909116046024830181905290918291604490910190849080156108875780601f1061085c57610100808354040283529160200191610887565b506130ac6001600160a01b0382163330856140bb565b60006130b88284613551565b6002546040805163ae5c6cd360e01b81526004810184905233602482015260006044820181905291519394506001600160a01b039092169263ae5c6cd392606480820193929182900301818387803b15801561311357600080fd5b505af1158015613127573d6000803e3d6000fd5b5050600a546131399250905082613c8a565b600a556009546131499082613e6b565b600955604080518481526020810183905281516001600160a01b0385169233927fc6d98eecfc9c78ab62c89a82950079b54874749f1f6f24090f7acc758bc2f309929081900390910190a3505050565b7f000000000000000000000000000000000000000000000000000000000000000081565b600160009054906101000a90046001600160a01b03166001600160a01b0316630c340a246040518163ffffffff1660e01b815260040160206040518083038186803b15801561320b57600080fd5b505afa15801561321f573d6000803e3d6000fd5b505050506040513d602081101561323557600080fd5b50516000906001600160a01b031633146132a85760405162461bcd60e51b81526020600482019081528254600260001961010060018416150201909116046024830181905290918291604490910190849080156108875780601f1061085c57610100808354040283529160200191610887565b5060115460ff1615613301576040805162461bcd60e51b815260206004820152601160248201527f55736520717565756554696d656c6f636b000000000000000000000000000000604482015290519081900360640190fd5b600983600b81111561330f57fe5b141561333557600280546001600160a01b0319166001600160a01b0384161790556134fc565b600b83600b81111561334357fe5b141561336957600380546001600160a01b0319166001600160a01b0384161790556134fc565b60016006600085600b81111561337b57fe5b600b81111561338657fe5b8152602080820192909252604090810160009081206001600160a01b03871682529092529020805460ff1916911515919091179055600583600b8111156133c957fe5b14156133fe576001600160a01b03828116600090815260076020526040902080546001600160a01b0319169183169190911790555b600061340a838561272b565b509050806134fa576005600085600b81111561342257fe5b600b81111561342d57fe5b8152602080820192909252604001600090812080546001810182559082529190200180546001600160a01b0319166001600160a01b038516179055600584600b81111561347657fe5b148061348d5750600284600b81111561348b57fe5b145b156134fa5760008061349f858761272b565b9150915081156134f7576005600087600b8111156134b957fe5b600b8111156134c457fe5b815260200190815260200160002081815481106134dd57fe5b600091825260209091200180546001600160a01b03191690555b50505b505b82600b81111561350857fe5b604080516001600160a01b03851681526001602082015281517f7531a7aefe3985500c4dec2dcb6049a708f14c6a8a9022b435b8841bdb8e1713929181900390910190a2505050565b6000613681836001600160a01b031663313ce5676040518163ffffffff1660e01b815260040160206040518083038186803b15801561358f57600080fd5b505afa1580156135a3573d6000803e3d6000fd5b505050506040513d60208110156135b957600080fd5b5051604080517f313ce567000000000000000000000000000000000000000000000000000000008152905160ff909216600a0a9161367b916001600160a01b037f0000000000000000000000000000000000000000000000000000000000000000169163313ce56791600480820192602092909190829003018186803b15801561364257600080fd5b505afa158015613656573d6000803e3d6000fd5b505050506040513d602081101561366c57600080fd5b5051859060ff16600a0a614062565b9061425c565b6001600160a01b03841660009081527fbfd358e93f18da3ed276c3afdbdba00b8f0b6008a03476a6a86bd6320ee6938b602052604090205490915060ff161561376d576001600160a01b038084166000818152600760209081526040918290205482517f4249719f00000000000000000000000000000000000000000000000000000000815260048101949094526024840187905291519190931692634249719f9260448082019391829003018186803b15801561373e57600080fd5b505afa158015613752573d6000803e3d6000fd5b505050506040513d602081101561376857600080fd5b505190505b92915050565b600a5481565b60115460ff1615156001146137d5576040805162461bcd60e51b815260206004820181905260248201527f54696d656c6f636b2069732064697361626c65642c2075736520656e61626c65604482015290519081900360640190fd5b6137dd61439a565b600c82815481106137ea57fe5b600091825260209091206040805160c081019091526004909202018054829060ff16600b81111561381757fe5b600b81111561382257fe5b815281546001600160a01b03610100918290048116602084015260018401541660408301526002830154606083015260039092015460ff80821615156080808501919091529390910416151560a090910152810151909150156138cc576040805162461bcd60e51b815260206004820152601960248201527f416374696f6e20686173206265656e206e756c6c696669656400000000000000604482015290519081900360640190fd5b8060a0015115613923576040805162461bcd60e51b815260206004820181905260248201527f416374696f6e2068617320616c7265616479206265656e206578656375746564604482015290519081900360640190fd5b806060015143101561397c576040805162461bcd60e51b815260206004820152601560248201527f54696d656c6f636b206e6f7420636f6d706c6574650000000000000000000000604482015290519081900360640190fd5b60098151600b81111561398b57fe5b14156139ba576020810151600280546001600160a01b0319166001600160a01b03909216919091179055613bf2565b6001600660008360000151600b8111156139d057fe5b600b8111156139db57fe5b815260208082019290925260409081016000908120858401516001600160a01b031682529092529020805460ff191691151591909117905560058151600b811115613a2257fe5b1415613a63576040818101516020808401516001600160a01b039081166000908152600790925292902080546001600160a01b031916929091169190911790555b6000613a778260200151836000015161272b565b50905080613bf057600560008360000151600b811115613a9357fe5b600b811115613a9e57fe5b81526020808201929092526040016000908120848301518154600181018355918352929091200180546001600160a01b0319166001600160a01b0390921691909117905560058251600b811115613af157fe5b1415613b6b57600080613b098460200151600261272b565b915091508115613b6457600260005260056020527f89832631fb3c3307a103ba2c84ab569c64d6182a18893dcd163f0f1c2090733a805482908110613b4a57fe5b600091825260209091200180546001600160a01b03191690555b5050613bf0565b60028251600b811115613b7a57fe5b1415613bf057600080613b928460200151600561272b565b915091508115613bed57600560008190526020527f458b30c2d72bfd2c6317304a4594ecbafe5f729d3111b65fdc3a33bd48e5432d805482908110613bd357fe5b600091825260209091200180546001600160a01b03191690555b50505b505b6001600c8381548110613c0157fe5b6000918252602090912060036004909202010180549115156101000261ff00199092169190911790558051600b811115613c3757fe5b7f7531a7aefe3985500c4dec2dcb6049a708f14c6a8a9022b435b8841bdb8e17138260200151600160405180836001600160a01b0316815260200182151581526020019250505060405180910390a25050565b6000613ccc83836040518060400160405280601e81526020017f536166654d6174683a207375627472616374696f6e206f766572666c6f77000081525061429e565b9392505050565b604080516001600160a01b038481166024830152604480830185905283518084039091018152606490920183526020820180517bffffffffffffffffffffffffffffffffffffffffffffffffffffffff167fa9059cbb00000000000000000000000000000000000000000000000000000000178152925182516000946060949389169392918291908083835b60208310613d7e5780518252601f199092019160209182019101613d5f565b6001836020036101000a0380198251168184511680821785525050505050509050019150506000604051808303816000865af19150503d8060008114613de0576040519150601f19603f3d011682016040523d82523d6000602084013e613de5565b606091505b5091509150818015613e13575080511580613e135750808060200190516020811015613e1057600080fd5b50515b613e64576040805162461bcd60e51b815260206004820152600f60248201527f5452414e534645525f4641494c45440000000000000000000000000000000000604482015290519081900360640190fd5b5050505050565b600082820183811015613ccc576040805162461bcd60e51b815260206004820152601b60248201527f536166654d6174683a206164646974696f6e206f766572666c6f770000000000604482015290519081900360640190fd5b60007f80000000000000000000000000000000000000000000000000000000000000008210613f255760405162461bcd60e51b81526004018080602001828103825260288152602001806144146028913960400191505060405180910390fd5b5090565b6000818303818312801590613f3e5750838113155b80613f535750600083128015613f5357508381135b613ccc5760405162461bcd60e51b815260040180806020018281038252602481526020018061443c6024913960400191505060405180910390fd5b600081613fe2576040805162461bcd60e51b815260206004820181905260248201527f5369676e6564536166654d6174683a206469766973696f6e206279207a65726f604482015290519081900360640190fd5b8160001914801561401257507f800000000000000000000000000000000000000000000000000000000000000083145b1561404e5760405162461bcd60e51b81526004018080602001828103825260218152602001806143d26021913960400191505060405180910390fd5b600082848161405957fe5b05949350505050565b6000826140715750600061376d565b8282028284828161407e57fe5b0414613ccc5760405162461bcd60e51b81526004018080602001828103825260218152602001806143f36021913960400191505060405180910390fd5b604080516001600160a01b0385811660248301528481166044830152606480830185905283518084039091018152608490920183526020820180517bffffffffffffffffffffffffffffffffffffffffffffffffffffffff167f23b872dd0000000000000000000000000000000000000000000000000000000017815292518251600094606094938a169392918291908083835b6020831061416e5780518252601f19909201916020918201910161414f565b6001836020036101000a0380198251168184511680821785525050505050509050019150506000604051808303816000865af19150503d80600081146141d0576040519150601f19603f3d011682016040523d82523d6000602084013e6141d5565b606091505b5091509150818015614203575080511580614203575080806020019051602081101561420057600080fd5b50515b614254576040805162461bcd60e51b815260206004820152601460248201527f5452414e534645525f46524f4d5f4641494c4544000000000000000000000000604482015290519081900360640190fd5b505050505050565b6000613ccc83836040518060400160405280601a81526020017f536166654d6174683a206469766973696f6e206279207a65726f000000000000815250614335565b6000818484111561432d5760405162461bcd60e51b81526004018080602001828103825283818151815260200191508051906020019080838360005b838110156142f25781810151838201526020016142da565b50505050905090810190601f16801561431f5780820380516001836020036101000a031916815260200191505b509250505060405180910390fd5b505050900390565b600081836143845760405162461bcd60e51b81526020600482018181528351602484015283519092839260449091019190850190808383600083156142f25781810151838201526020016142da565b50600083858161439057fe5b0495945050505050565b6040805160c08101909152806000815260006020820181905260408201819052606082018190526080820181905260a0909101529056fe5369676e6564536166654d6174683a206469766973696f6e206f766572666c6f77536166654d6174683a206d756c7469706c69636174696f6e206f766572666c6f7753616665436173743a2076616c756520646f65736e27742066697420696e20616e20696e743235365369676e6564536166654d6174683a207375627472616374696f6e206f766572666c6f77a26469706673582212203401fd65ce72757df10a7e309c42f98e2558b88051ede9ac1e058db7a95a383564736f6c63430007050033",
  "devdoc": {
    "kind": "dev",
    "methods": {
      "baseSupply()": {
        "details": "use this any time you need to query supply",
        "returns": {
          "_0": "uint256"
        }
      },
      "deltaTokenPrice()": {
        "details": "calculated as (currentPrice - lastPrice) / lastPrice           using 9 decimals for the price values and for return value.",
        "returns": {
          "_0": "int256 proportional change in treasury yield. 9 decimals"
        }
      },
      "deltaTreasuryYield()": {
        "details": "calculated as (currentYield - lastYield) / lastYield           using 9 decimals for the yield values and for return value.           example: ((10_000_000_000 - 15_000_000_000)*(10**9)) / 15_000_000_000 = -333333333           -333333333 is equivalent to the proportion -0.333333333 (that is, -33.3333333%)",
        "returns": {
          "_0": "int256 proportional change in treasury yield. 9 decimals"
        }
      },
      "deposit(uint256,address,uint256)": {
        "params": {
          "_amount": "uint256",
          "_profit": "uint256",
          "_token": "address"
        },
        "returns": {
          "send_": "uint256"
        }
      },
      "disable(uint8,address)": {
        "params": {
          "_status": "STATUS",
          "_toDisable": "address"
        }
      },
      "enable(uint8,address,address)": {
        "params": {
          "_address": "address",
          "_calculator": "address",
          "_status": "STATUS"
        }
      },
      "execute(uint256)": {
        "params": {
          "_index": "uint256"
        }
      },
      "getTheoBondingCalculator()": {
        "returns": {
          "_0": "address for theo liquidity pool"
        }
      },
      "incurDebt(uint256,address)": {
        "params": {
          "_amount": "uint256",
          "_token": "address"
        }
      },
      "indexInRegistry(address,uint8)": {
        "returns": {
          "_0": "(bool, uint256)"
        }
      },
      "manage(address,uint256)": {
        "params": {
          "_amount": "uint256",
          "_token": "address"
        }
      },
      "mint(address,uint256)": {
        "params": {
          "_amount": "uint256",
          "_recipient": "address"
        }
      },
      "nullify(uint256)": {
        "params": {
          "_index": "uint256"
        }
      },
      "queueTimelock(uint8,address,address)": {
        "params": {
          "_address": "address",
          "_calculator": "address",
          "_status": "STATUS"
        }
      },
      "repayDebtWithReserve(uint256,address)": {
        "params": {
          "_amount": "uint256",
          "_token": "address"
        }
      },
      "repayDebtWithTHEO(uint256)": {
        "params": {
          "_amount": "uint256"
        }
      },
      "setDebtLimit(address,uint256)": {
        "params": {
          "_address": "address",
          "_limit": "uint256"
        }
      },
      "setTheoBondingCalculator(address)": {
        "params": {
          "_theoBondingCalculator": "address of the theo bonding calculator"
        }
      },
      "tokenPerformanceUpdate()": {
        "details": "this method can be called at any time but will only update contract state every 8 hours"
      },
      "tokenValue(address,uint256)": {
        "params": {
          "_amount": "uint256",
          "_token": "address"
        },
        "returns": {
          "value_": "uint256"
        }
      },
      "withdraw(uint256,address)": {
        "params": {
          "_amount": "uint256",
          "_token": "address"
        }
      }
    },
    "version": 1
  },
  "userdoc": {
    "kind": "user",
    "methods": {
      "auditReserves()": {
        "notice": "takes inventory of all tracked assetsalways consolidate to recognized reserves before audit"
      },
      "baseSupply()": {
        "notice": "returns supply metric that cannot be manipulated by debt"
      },
      "deltaTokenPrice()": {
        "notice": "calculate the proportional change (i.e. a percentage as a decimal) in token price, with 9 decimals"
      },
      "deltaTreasuryYield()": {
        "notice": "calculate the proportional change (i.e. a percentage as a decimal) in treasury yield, with 9 decimals"
      },
      "deposit(uint256,address,uint256)": {
        "notice": "allow approved address to deposit an asset for THEO"
      },
      "disable(uint8,address)": {
        "notice": "disable permission from address"
      },
      "disableTimelock()": {
        "notice": "disables timelocked functions"
      },
      "enable(uint8,address,address)": {
        "notice": "enable permission from queue"
      },
      "execute(uint256)": {
        "notice": "enable queued permission"
      },
      "getTheoBondingCalculator()": {
        "notice": "get the address of the theo bonding calculator"
      },
      "incurDebt(uint256,address)": {
        "notice": "allow approved address to borrow reserves"
      },
      "indexInRegistry(address,uint8)": {
        "notice": "check if registry contains address"
      },
      "initialize()": {
        "notice": "enables timelocks after initilization"
      },
      "manage(address,uint256)": {
        "notice": "allow approved address to withdraw assets"
      },
      "mint(address,uint256)": {
        "notice": "mint new THEO using excess reserves"
      },
      "nullify(uint256)": {
        "notice": "cancel timelocked action"
      },
      "queueTimelock(uint8,address,address)": {
        "notice": "queue address to receive permission"
      },
      "repayDebtWithReserve(uint256,address)": {
        "notice": "allow approved address to repay borrowed reserves with reserves"
      },
      "repayDebtWithTHEO(uint256)": {
        "notice": "allow approved address to repay borrowed reserves with THEO"
      },
      "setDebtLimit(address,uint256)": {
        "notice": "set max debt for address"
      },
      "setTheoBondingCalculator(address)": {
        "notice": "set the address for the theo bonding calculator"
      },
      "tokenPerformanceUpdate()": {
        "notice": "update the current token price and previous (last) token price.                      Token price is calculated with the theoBondingCalculator, as set by the Governor"
      },
      "tokenValue(address,uint256)": {
        "notice": "returns THEO valuation for an amount of Quote Tokens"
      },
      "withdraw(uint256,address)": {
        "notice": "allow approved address to burn THEO for reserves"
      }
    },
    "version": 1
  },
  "storageLayout": {
    "storage": [
      {
        "astId": 11008,
        "contract": "src/Theopetra/TheopetraTreasury.sol:TheopetraTreasury",
        "label": "UNAUTHORIZED",
        "offset": 0,
        "slot": "0",
        "type": "t_string_storage"
      },
      {
        "astId": 11010,
        "contract": "src/Theopetra/TheopetraTreasury.sol:TheopetraTreasury",
        "label": "authority",
        "offset": 0,
        "slot": "1",
        "type": "t_contract(ITheopetraAuthority)2485"
      },
      {
        "astId": 7140,
        "contract": "src/Theopetra/TheopetraTreasury.sol:TheopetraTreasury",
        "label": "sTHEO",
        "offset": 0,
        "slot": "2",
        "type": "t_contract(ITokenDebt)2507"
      },
      {
        "astId": 7142,
        "contract": "src/Theopetra/TheopetraTreasury.sol:TheopetraTreasury",
        "label": "yieldReporter",
        "offset": 0,
        "slot": "3",
        "type": "t_contract(IYieldReporter)2627"
      },
      {
        "astId": 7144,
        "contract": "src/Theopetra/TheopetraTreasury.sol:TheopetraTreasury",
        "label": "theoBondingCalculator",
        "offset": 0,
        "slot": "4",
        "type": "t_contract(IBondCalculator)1833"
      },
      {
        "astId": 7149,
        "contract": "src/Theopetra/TheopetraTreasury.sol:TheopetraTreasury",
        "label": "registry",
        "offset": 0,
        "slot": "5",
        "type": "t_mapping(t_enum(STATUS)7114,t_array(t_address)dyn_storage)"
      },
      {
        "astId": 7155,
        "contract": "src/Theopetra/TheopetraTreasury.sol:TheopetraTreasury",
        "label": "permissions",
        "offset": 0,
        "slot": "6",
        "type": "t_mapping(t_enum(STATUS)7114,t_mapping(t_address,t_bool))"
      },
      {
        "astId": 7159,
        "contract": "src/Theopetra/TheopetraTreasury.sol:TheopetraTreasury",
        "label": "bondCalculator",
        "offset": 0,
        "slot": "7",
        "type": "t_mapping(t_address,t_address)"
      },
      {
        "astId": 7163,
        "contract": "src/Theopetra/TheopetraTreasury.sol:TheopetraTreasury",
        "label": "debtLimit",
        "offset": 0,
        "slot": "8",
        "type": "t_mapping(t_address,t_uint256)"
      },
      {
        "astId": 7165,
        "contract": "src/Theopetra/TheopetraTreasury.sol:TheopetraTreasury",
        "label": "totalReserves",
        "offset": 0,
        "slot": "9",
        "type": "t_uint256"
      },
      {
        "astId": 7167,
        "contract": "src/Theopetra/TheopetraTreasury.sol:TheopetraTreasury",
        "label": "totalDebt",
        "offset": 0,
        "slot": "10",
        "type": "t_uint256"
      },
      {
        "astId": 7169,
        "contract": "src/Theopetra/TheopetraTreasury.sol:TheopetraTreasury",
        "label": "theoDebt",
        "offset": 0,
        "slot": "11",
        "type": "t_uint256"
      },
      {
        "astId": 7172,
        "contract": "src/Theopetra/TheopetraTreasury.sol:TheopetraTreasury",
        "label": "permissionQueue",
        "offset": 0,
        "slot": "12",
        "type": "t_array(t_struct(Queue)7127_storage)dyn_storage"
      },
      {
        "astId": 7176,
        "contract": "src/Theopetra/TheopetraTreasury.sol:TheopetraTreasury",
        "label": "priceInfo",
        "offset": 0,
        "slot": "13",
        "type": "t_struct(PriceInfo)7136_storage"
      },
      {
        "astId": 7178,
        "contract": "src/Theopetra/TheopetraTreasury.sol:TheopetraTreasury",
        "label": "timelockEnabled",
        "offset": 0,
        "slot": "17",
        "type": "t_bool"
      },
      {
        "astId": 7180,
        "contract": "src/Theopetra/TheopetraTreasury.sol:TheopetraTreasury",
        "label": "initialized",
        "offset": 1,
        "slot": "17",
        "type": "t_bool"
      },
      {
        "astId": 7182,
        "contract": "src/Theopetra/TheopetraTreasury.sol:TheopetraTreasury",
        "label": "onChainGovernanceTimelock",
        "offset": 0,
        "slot": "18",
        "type": "t_uint256"
      },
      {
        "astId": 7190,
        "contract": "src/Theopetra/TheopetraTreasury.sol:TheopetraTreasury",
        "label": "notAccepted",
        "offset": 0,
        "slot": "19",
        "type": "t_string_storage"
      },
      {
        "astId": 7193,
        "contract": "src/Theopetra/TheopetraTreasury.sol:TheopetraTreasury",
        "label": "notApproved",
        "offset": 0,
        "slot": "20",
        "type": "t_string_storage"
      },
      {
        "astId": 7196,
        "contract": "src/Theopetra/TheopetraTreasury.sol:TheopetraTreasury",
        "label": "invalidToken",
        "offset": 0,
        "slot": "21",
        "type": "t_string_storage"
      }
    ],
    "types": {
      "t_address": {
        "encoding": "inplace",
        "label": "address",
        "numberOfBytes": "20"
      },
      "t_array(t_address)dyn_storage": {
        "base": "t_address",
        "encoding": "dynamic_array",
        "label": "address[]",
        "numberOfBytes": "32"
      },
      "t_array(t_struct(Queue)7127_storage)dyn_storage": {
        "base": "t_struct(Queue)7127_storage",
        "encoding": "dynamic_array",
        "label": "struct TheopetraTreasury.Queue[]",
        "numberOfBytes": "32"
      },
      "t_bool": {
        "encoding": "inplace",
        "label": "bool",
        "numberOfBytes": "1"
      },
      "t_contract(IBondCalculator)1833": {
        "encoding": "inplace",
        "label": "contract IBondCalculator",
        "numberOfBytes": "20"
      },
      "t_contract(ITheopetraAuthority)2485": {
        "encoding": "inplace",
        "label": "contract ITheopetraAuthority",
        "numberOfBytes": "20"
      },
      "t_contract(ITokenDebt)2507": {
        "encoding": "inplace",
        "label": "contract ITokenDebt",
        "numberOfBytes": "20"
      },
      "t_contract(IYieldReporter)2627": {
        "encoding": "inplace",
        "label": "contract IYieldReporter",
        "numberOfBytes": "20"
      },
      "t_enum(STATUS)7114": {
        "encoding": "inplace",
        "label": "enum TheopetraTreasury.STATUS",
        "numberOfBytes": "1"
      },
      "t_int256": {
        "encoding": "inplace",
        "label": "int256",
        "numberOfBytes": "32"
      },
      "t_mapping(t_address,t_address)": {
        "encoding": "mapping",
        "key": "t_address",
        "label": "mapping(address => address)",
        "numberOfBytes": "32",
        "value": "t_address"
      },
      "t_mapping(t_address,t_bool)": {
        "encoding": "mapping",
        "key": "t_address",
        "label": "mapping(address => bool)",
        "numberOfBytes": "32",
        "value": "t_bool"
      },
      "t_mapping(t_address,t_uint256)": {
        "encoding": "mapping",
        "key": "t_address",
        "label": "mapping(address => uint256)",
        "numberOfBytes": "32",
        "value": "t_uint256"
      },
      "t_mapping(t_enum(STATUS)7114,t_array(t_address)dyn_storage)": {
        "encoding": "mapping",
        "key": "t_enum(STATUS)7114",
        "label": "mapping(enum TheopetraTreasury.STATUS => address[])",
        "numberOfBytes": "32",
        "value": "t_array(t_address)dyn_storage"
      },
      "t_mapping(t_enum(STATUS)7114,t_mapping(t_address,t_bool))": {
        "encoding": "mapping",
        "key": "t_enum(STATUS)7114",
        "label": "mapping(enum TheopetraTreasury.STATUS => mapping(address => bool))",
        "numberOfBytes": "32",
        "value": "t_mapping(t_address,t_bool)"
      },
      "t_string_storage": {
        "encoding": "bytes",
        "label": "string",
        "numberOfBytes": "32"
      },
      "t_struct(PriceInfo)7136_storage": {
        "encoding": "inplace",
        "label": "struct TheopetraTreasury.PriceInfo",
        "members": [
          {
            "astId": 7129,
            "contract": "src/Theopetra/TheopetraTreasury.sol:TheopetraTreasury",
            "label": "deltaTreasuryYield",
            "offset": 0,
            "slot": "0",
            "type": "t_int256"
          },
          {
            "astId": 7131,
            "contract": "src/Theopetra/TheopetraTreasury.sol:TheopetraTreasury",
            "label": "timeLastUpdated",
            "offset": 0,
            "slot": "1",
            "type": "t_uint256"
          },
          {
            "astId": 7133,
            "contract": "src/Theopetra/TheopetraTreasury.sol:TheopetraTreasury",
            "label": "lastTokenPrice",
            "offset": 0,
            "slot": "2",
            "type": "t_uint256"
          },
          {
            "astId": 7135,
            "contract": "src/Theopetra/TheopetraTreasury.sol:TheopetraTreasury",
            "label": "currentTokenPrice",
            "offset": 0,
            "slot": "3",
            "type": "t_uint256"
          }
        ],
        "numberOfBytes": "128"
      },
      "t_struct(Queue)7127_storage": {
        "encoding": "inplace",
        "label": "struct TheopetraTreasury.Queue",
        "members": [
          {
            "astId": 7116,
            "contract": "src/Theopetra/TheopetraTreasury.sol:TheopetraTreasury",
            "label": "managing",
            "offset": 0,
            "slot": "0",
            "type": "t_enum(STATUS)7114"
          },
          {
            "astId": 7118,
            "contract": "src/Theopetra/TheopetraTreasury.sol:TheopetraTreasury",
            "label": "toPermit",
            "offset": 1,
            "slot": "0",
            "type": "t_address"
          },
          {
            "astId": 7120,
            "contract": "src/Theopetra/TheopetraTreasury.sol:TheopetraTreasury",
            "label": "calculator",
            "offset": 0,
            "slot": "1",
            "type": "t_address"
          },
          {
            "astId": 7122,
            "contract": "src/Theopetra/TheopetraTreasury.sol:TheopetraTreasury",
            "label": "timelockEnd",
            "offset": 0,
            "slot": "2",
            "type": "t_uint256"
          },
          {
            "astId": 7124,
            "contract": "src/Theopetra/TheopetraTreasury.sol:TheopetraTreasury",
            "label": "nullify",
            "offset": 0,
            "slot": "3",
            "type": "t_bool"
          },
          {
            "astId": 7126,
            "contract": "src/Theopetra/TheopetraTreasury.sol:TheopetraTreasury",
            "label": "executed",
            "offset": 1,
            "slot": "3",
            "type": "t_bool"
          }
        ],
        "numberOfBytes": "128"
      },
      "t_uint256": {
        "encoding": "inplace",
        "label": "uint256",
        "numberOfBytes": "32"
      }
    }
  }
}