{
  "address": "0x1A2EA28399A2e4f8f3EEfeA5f41770B4C61fE643",
  "abi": [
    {
      "inputs": [
        {
          "internalType": "address",
          "name": "_authority",
          "type": "address"
        }
      ],
      "stateMutability": "nonpayable",
      "type": "constructor"
    },
    {
      "anonymous": false,
      "inputs": [
        {
          "indexed": true,
          "internalType": "address",
          "name": "owner",
          "type": "address"
        },
        {
          "indexed": true,
          "internalType": "address",
          "name": "spender",
          "type": "address"
        },
        {
          "indexed": false,
          "internalType": "uint256",
          "name": "value",
          "type": "uint256"
        }
      ],
      "name": "Approval",
      "type": "event"
    },
    {
      "anonymous": false,
      "inputs": [
        {
          "indexed": true,
          "internalType": "contract ITheopetraAuthority",
          "name": "authority",
          "type": "address"
        }
      ],
      "name": "AuthorityUpdated",
      "type": "event"
    },
    {
      "anonymous": false,
      "inputs": [
        {
          "indexed": true,
          "internalType": "address",
          "name": "from",
          "type": "address"
        },
        {
          "indexed": true,
          "internalType": "address",
          "name": "to",
          "type": "address"
        },
        {
          "indexed": false,
          "internalType": "uint256",
          "name": "value",
          "type": "uint256"
        }
      ],
      "name": "Transfer",
      "type": "event"
    },
    {
      "inputs": [],
      "name": "DOMAIN_SEPARATOR",
      "outputs": [
        {
          "internalType": "bytes32",
          "name": "",
          "type": "bytes32"
        }
      ],
      "stateMutability": "view",
      "type": "function"
    },
    {
      "inputs": [],
      "name": "PERMIT_TYPEHASH",
      "outputs": [
        {
          "internalType": "bytes32",
          "name": "",
          "type": "bytes32"
        }
      ],
      "stateMutability": "view",
      "type": "function"
    },
    {
      "inputs": [
        {
          "internalType": "address",
          "name": "account_",
          "type": "address"
        },
        {
          "internalType": "uint256",
          "name": "amount_",
          "type": "uint256"
        }
      ],
      "name": "_burnFrom",
      "outputs": [],
      "stateMutability": "nonpayable",
      "type": "function"
    },
    {
      "inputs": [
        {
          "internalType": "address",
          "name": "owner",
          "type": "address"
        },
        {
          "internalType": "address",
          "name": "spender",
          "type": "address"
        }
      ],
      "name": "allowance",
      "outputs": [
        {
          "internalType": "uint256",
          "name": "",
          "type": "uint256"
        }
      ],
      "stateMutability": "view",
      "type": "function"
    },
    {
      "inputs": [
        {
          "internalType": "address",
          "name": "spender",
          "type": "address"
        },
        {
          "internalType": "uint256",
          "name": "amount",
          "type": "uint256"
        }
      ],
      "name": "approve",
      "outputs": [
        {
          "internalType": "bool",
          "name": "",
          "type": "bool"
        }
      ],
      "stateMutability": "nonpayable",
      "type": "function"
    },
    {
      "inputs": [],
      "name": "authority",
      "outputs": [
        {
          "internalType": "contract ITheopetraAuthority",
          "name": "",
          "type": "address"
        }
      ],
      "stateMutability": "view",
      "type": "function"
    },
    {
      "inputs": [
        {
          "internalType": "address",
          "name": "account",
          "type": "address"
        }
      ],
      "name": "balanceOf",
      "outputs": [
        {
          "internalType": "uint256",
          "name": "",
          "type": "uint256"
        }
      ],
      "stateMutability": "view",
      "type": "function"
    },
    {
      "inputs": [
        {
          "internalType": "uint256",
          "name": "amount",
          "type": "uint256"
        }
      ],
      "name": "burn",
      "outputs": [],
      "stateMutability": "nonpayable",
      "type": "function"
    },
    {
      "inputs": [
        {
          "internalType": "address",
          "name": "account_",
          "type": "address"
        },
        {
          "internalType": "uint256",
          "name": "amount_",
          "type": "uint256"
        }
      ],
      "name": "burnFrom",
      "outputs": [],
      "stateMutability": "nonpayable",
      "type": "function"
    },
    {
      "inputs": [],
      "name": "decimals",
      "outputs": [
        {
          "internalType": "uint8",
          "name": "",
          "type": "uint8"
        }
      ],
      "stateMutability": "view",
      "type": "function"
    },
    {
      "inputs": [
        {
          "internalType": "address",
          "name": "spender",
          "type": "address"
        },
        {
          "internalType": "uint256",
          "name": "subtractedValue",
          "type": "uint256"
        }
      ],
      "name": "decreaseAllowance",
      "outputs": [
        {
          "internalType": "bool",
          "name": "",
          "type": "bool"
        }
      ],
      "stateMutability": "nonpayable",
      "type": "function"
    },
    {
      "inputs": [],
      "name": "getInitialSupply",
      "outputs": [
        {
          "internalType": "uint256",
          "name": "",
          "type": "uint256"
        }
      ],
      "stateMutability": "view",
      "type": "function"
    },
    {
      "inputs": [
        {
          "internalType": "address",
          "name": "spender",
          "type": "address"
        },
        {
          "internalType": "uint256",
          "name": "addedValue",
          "type": "uint256"
        }
      ],
      "name": "increaseAllowance",
      "outputs": [
        {
          "internalType": "bool",
          "name": "",
          "type": "bool"
        }
      ],
      "stateMutability": "nonpayable",
      "type": "function"
    },
    {
      "inputs": [
        {
          "internalType": "address",
          "name": "account_",
          "type": "address"
        },
        {
          "internalType": "uint256",
          "name": "amount_",
          "type": "uint256"
        }
      ],
      "name": "mint",
      "outputs": [],
      "stateMutability": "nonpayable",
      "type": "function"
    },
    {
      "inputs": [],
      "name": "name",
      "outputs": [
        {
          "internalType": "string",
          "name": "",
          "type": "string"
        }
      ],
      "stateMutability": "view",
      "type": "function"
    },
    {
      "inputs": [
        {
          "internalType": "address",
          "name": "owner",
          "type": "address"
        }
      ],
      "name": "nonces",
      "outputs": [
        {
          "internalType": "uint256",
          "name": "",
          "type": "uint256"
        }
      ],
      "stateMutability": "view",
      "type": "function"
    },
    {
      "inputs": [
        {
          "internalType": "address",
          "name": "owner",
          "type": "address"
        },
        {
          "internalType": "address",
          "name": "spender",
          "type": "address"
        },
        {
          "internalType": "uint256",
          "name": "amount",
          "type": "uint256"
        },
        {
          "internalType": "uint256",
          "name": "deadline",
          "type": "uint256"
        },
        {
          "internalType": "uint8",
          "name": "v",
          "type": "uint8"
        },
        {
          "internalType": "bytes32",
          "name": "r",
          "type": "bytes32"
        },
        {
          "internalType": "bytes32",
          "name": "s",
          "type": "bytes32"
        }
      ],
      "name": "permit",
      "outputs": [],
      "stateMutability": "nonpayable",
      "type": "function"
    },
    {
      "inputs": [
        {
          "internalType": "contract ITheopetraAuthority",
          "name": "_newAuthority",
          "type": "address"
        }
      ],
      "name": "setAuthority",
      "outputs": [],
      "stateMutability": "nonpayable",
      "type": "function"
    },
    {
      "inputs": [],
      "name": "symbol",
      "outputs": [
        {
          "internalType": "string",
          "name": "",
          "type": "string"
        }
      ],
      "stateMutability": "view",
      "type": "function"
    },
    {
      "inputs": [],
      "name": "totalSupply",
      "outputs": [
        {
          "internalType": "uint256",
          "name": "",
          "type": "uint256"
        }
      ],
      "stateMutability": "view",
      "type": "function"
    },
    {
      "inputs": [
        {
          "internalType": "address",
          "name": "recipient",
          "type": "address"
        },
        {
          "internalType": "uint256",
          "name": "amount",
          "type": "uint256"
        }
      ],
      "name": "transfer",
      "outputs": [
        {
          "internalType": "bool",
          "name": "",
          "type": "bool"
        }
      ],
      "stateMutability": "nonpayable",
      "type": "function"
    },
    {
      "inputs": [
        {
          "internalType": "address",
          "name": "sender",
          "type": "address"
        },
        {
          "internalType": "address",
          "name": "recipient",
          "type": "address"
        },
        {
          "internalType": "uint256",
          "name": "amount",
          "type": "uint256"
        }
      ],
      "name": "transferFrom",
      "outputs": [
        {
          "internalType": "bool",
          "name": "",
          "type": "bool"
        }
      ],
      "stateMutability": "nonpayable",
      "type": "function"
    }
  ],
  "transactionHash": "0x1460361d2d22bddad9a12c765abb2d49b1422512b01c4114fd896c9de1f83c50",
  "args": [
    "0xBcdF034cE6624A817c1BfEffBDE8691443e5fDbB"
  ],
  "numDeployments": 1,
  "solcInputHash": "446a1be813bfb9f78647a023efb0da17",
  "bytecode": "0x60e0604052600c60a08190526b15539055551213d49256915160a21b60c09081526200002f91600791906200028b565b503480156200003d57600080fd5b50604051620017e1380380620017e1833981810160405260208110156200006357600080fd5b50516040805180820182526009808252685468656f706574726160b81b6020838101918252845180860190955260048552635448454f60e01b90850152825185949291620000b591600391906200028b565b508151620000cb9060049060208501906200028b565b5060f81b7fff0000000000000000000000000000000000000000000000000000000000000016608052504690507f8b73c3c69bb8fe3d512ecc4cf759cc79239f7b179b0ffacaa9a75d522b39400f62000123620001f1565b805160209182012060408051808201825260018152603160f81b90840152805180840194909452838101919091527fc89efdaa54c0f20c7adf612882df0950f5a951637e0307cdcb4c672f298b8bc6606084015260808301939093523060a0808401919091528351808403909101815260c0909201928390528151910120600655600880546001600160a01b0319166001600160a01b038416908117909155907f2f658b440c35314f52658ea8a740e05b284cdc84dc9ae01e891f21b8933e7cad90600090a2505062000337565b60038054604080516020601f6002600019610100600188161502019095169490940493840181900481028201810190925282815260609390929091830182828015620002815780601f10620002555761010080835404028352916020019162000281565b820191906000526020600020905b8154815290600101906020018083116200026357829003601f168201915b5050505050905090565b828054600181600116156101000203166002900490600052602060002090601f016020900481019282620002c357600085556200030e565b82601f10620002de57805160ff19168380011785556200030e565b828001600101855582156200030e579182015b828111156200030e578251825591602001919060010190620002f1565b506200031c92915062000320565b5090565b5b808211156200031c576000815560010162000321565b60805160f81c61148c620003556000398061064f525061148c6000f3fe608060405234801561001057600080fd5b50600436106101825760003560e01c806379cc6790116100d8578063a22b35ce1161008c578063bf7e214f11610066578063bf7e214f1461046b578063d505accf1461048f578063dd62ed3e146104e057610182565b8063a22b35ce146103e7578063a457c2d714610413578063a9059cbb1461043f57610182565b80637ecebe00116100bd5780637ecebe00146103b157806381a4a6d8146103d757806395d89b41146103df57610182565b806379cc67901461035f5780637a9e5e4b1461038b57610182565b8063313ce5671161013a57806340c10f191161011457806340c10f19146102ee57806342966c681461031c57806370a082311461033957610182565b8063313ce5671461029c5780633644e515146102ba57806339509351146102c257610182565b806318160ddd1161016b57806318160ddd1461024457806323b872dd1461025e57806330adf81f1461029457610182565b806306fdde0314610187578063095ea7b314610204575b600080fd5b61018f61050e565b6040805160208082528351818301528351919283929083019185019080838360005b838110156101c95781810151838201526020016101b1565b50505050905090810190601f1680156101f65780820380516001836020036101000a031916815260200191505b509250505060405180910390f35b6102306004803603604081101561021a57600080fd5b506001600160a01b0381351690602001356105a4565b604080519115158252519081900360200190f35b61024c6105ba565b60408051918252519081900360200190f35b6102306004803603606081101561027457600080fd5b506001600160a01b038135811691602081013590911690604001356105c0565b61024c610629565b6102a461064d565b6040805160ff9092168252519081900360200190f35b61024c610671565b610230600480360360408110156102d857600080fd5b506001600160a01b038135169060200135610677565b61031a6004803603604081101561030457600080fd5b506001600160a01b0381351690602001356106ad565b005b61031a6004803603602081101561033257600080fd5b5035610817565b61024c6004803603602081101561034f57600080fd5b50356001600160a01b0316610824565b61031a6004803603604081101561037557600080fd5b506001600160a01b03813516906020013561083f565b61031a600480360360208110156103a157600080fd5b50356001600160a01b031661084d565b61024c600480360360208110156103c757600080fd5b50356001600160a01b031661099b565b61024c6109c2565b61018f6109c8565b61031a600480360360408110156103fd57600080fd5b506001600160a01b038135169060200135610a29565b6102306004803603604081101561042957600080fd5b506001600160a01b038135169060200135610a75565b6102306004803603604081101561045557600080fd5b506001600160a01b038135169060200135610ac4565b610473610ad1565b604080516001600160a01b039092168252519081900360200190f35b61031a600480360360e08110156104a557600080fd5b506001600160a01b03813581169160208101359091169060408101359060608101359060ff6080820135169060a08101359060c00135610ae0565b61024c600480360360408110156104f657600080fd5b506001600160a01b0381358116916020013516610d28565b60038054604080516020601f600260001961010060018816150201909516949094049384018190048102820181019092528281526060939092909183018282801561059a5780601f1061056f5761010080835404028352916020019161059a565b820191906000526020600020905b81548152906001019060200180831161057d57829003601f168201915b5050505050905090565b60006105b1338484610d53565b50600192915050565b60025490565b60006105cd848484610e3f565b61061f843361061a8560405180606001604052806028815260200161137c602891396001600160a01b038a1660009081526001602090815260408083203384529091529020549190610f9a565b610d53565b5060019392505050565b7f6e71edae12b1b97f4d1f60370fef10105fa2faae0126114a169c64845d6126c981565b7f000000000000000000000000000000000000000000000000000000000000000090565b60065481565b3360008181526001602090815260408083206001600160a01b038716845290915281205490916105b191859061061a9086611031565b600860009054906101000a90046001600160a01b03166001600160a01b031663fbfa77cf6040518163ffffffff1660e01b815260040160206040518083038186803b1580156106fb57600080fd5b505afa15801561070f573d6000803e3d6000fd5b505050506040513d602081101561072557600080fd5b50516007906001600160a01b031633146107d25760405162461bcd60e51b81526020600482019081528254600260001961010060018416150201909116046024830181905290918291604490910190849080156107c35780601f10610798576101008083540402835291602001916107c3565b820191906000526020600020905b8154815290600101906020018083116107a657829003601f168201915b50509250505060405180910390fd5b50600954819060646005820204906107ee576009839055610807565b600954158015906107fe57508083115b15610807578091505b6108118483611092565b50505050565b6108213382611182565b50565b6001600160a01b031660009081526020819052604090205490565b6108498282610a29565b5050565b600860009054906101000a90046001600160a01b03166001600160a01b0316630c340a246040518163ffffffff1660e01b815260040160206040518083038186803b15801561089b57600080fd5b505afa1580156108af573d6000803e3d6000fd5b505050506040513d60208110156108c557600080fd5b50516007906001600160a01b031633146109385760405162461bcd60e51b81526020600482019081528254600260001961010060018416150201909116046024830181905290918291604490910190849080156107c35780601f10610798576101008083540402835291602001916107c3565b50600880547fffffffffffffffffffffffff0000000000000000000000000000000000000000166001600160a01b0383169081179091556040517f2f658b440c35314f52658ea8a740e05b284cdc84dc9ae01e891f21b8933e7cad90600090a250565b6001600160a01b03811660009081526005602052604081206109bc9061127e565b92915050565b60095490565b60048054604080516020601f600260001961010060018816150201909516949094049384018190048102820181019092528281526060939092909183018282801561059a5780601f1061056f5761010080835404028352916020019161059a565b6000610a59826040518060600160405280602481526020016113a460249139610a528633610d28565b9190610f9a565b9050610a66833383610d53565b610a708383611182565b505050565b60006105b1338461061a85604051806060016040528060258152602001611432602591393360009081526001602090815260408083206001600160a01b038d1684529091529020549190610f9a565b60006105b1338484610e3f565b6008546001600160a01b031681565b83421115610b35576040805162461bcd60e51b815260206004820152601860248201527f5065726d69743a206578706972656420646561646c696e650000000000000000604482015290519081900360640190fd5b6001600160a01b03871660009081526005602052604081207f6e71edae12b1b97f4d1f60370fef10105fa2faae0126114a169c64845d6126c990899089908990610b7e9061127e565b604080516020808201979097526001600160a01b0395861681830152939094166060840152608083019190915260a082015260c08082018990528251808303909101815260e0820183528051908401206006547f1901000000000000000000000000000000000000000000000000000000000000610100840152610102830152610122808301829052835180840390910181526101428301808552815191860191909120600091829052610162840180865281905260ff8a166101828501526101a284018990526101c28401889052935191955092936001926101e280820193601f1981019281900390910190855afa158015610c7f573d6000803e3d6000fd5b5050604051601f1901519150506001600160a01b03811615801590610cb55750896001600160a01b0316816001600160a01b0316145b610cf05760405162461bcd60e51b815260040180806020018281038252602181526020018061135b6021913960400191505060405180910390fd5b6001600160a01b038a166000908152600560205260409020610d1190611282565b610d1c8a8a8a610d53565b50505050505050505050565b6001600160a01b03918216600090815260016020908152604080832093909416825291909152205490565b6001600160a01b038316610d985760405162461bcd60e51b815260040180806020018281038252602481526020018061140e6024913960400191505060405180910390fd5b6001600160a01b038216610ddd5760405162461bcd60e51b81526004018080602001828103825260228152602001806113136022913960400191505060405180910390fd5b6001600160a01b03808416600081815260016020908152604080832094871680845294825291829020859055815185815291517f8c5be1e5ebec7d5bd14f71427d1e84f3dd0314c0f7b2291e5b200ac8c7c3b9259281900390910190a3505050565b6001600160a01b038316610e845760405162461bcd60e51b81526004018080602001828103825260258152602001806113e96025913960400191505060405180910390fd5b6001600160a01b038216610ec95760405162461bcd60e51b81526004018080602001828103825260238152602001806112ce6023913960400191505060405180910390fd5b610ed4838383610a70565b610f1181604051806060016040528060268152602001611335602691396001600160a01b0386166000908152602081905260409020549190610f9a565b6001600160a01b038085166000908152602081905260408082209390935590841681522054610f409082611031565b6001600160a01b038084166000818152602081815260409182902094909455805185815290519193928716927fddf252ad1be2c89b69c2b068fc378daa952ba7f163c4a11628f55a4df523b3ef92918290030190a3505050565b600081848411156110295760405162461bcd60e51b81526004018080602001828103825283818151815260200191508051906020019080838360005b83811015610fee578181015183820152602001610fd6565b50505050905090810190601f16801561101b5780820380516001836020036101000a031916815260200191505b509250505060405180910390fd5b505050900390565b60008282018381101561108b576040805162461bcd60e51b815260206004820152601b60248201527f536166654d6174683a206164646974696f6e206f766572666c6f770000000000604482015290519081900360640190fd5b9392505050565b6001600160a01b0382166110ed576040805162461bcd60e51b815260206004820152601f60248201527f45524332303a206d696e7420746f20746865207a65726f206164647265737300604482015290519081900360640190fd5b6110f960008383610a70565b6002546111069082611031565b6002556001600160a01b03821660009081526020819052604090205461112c9082611031565b6001600160a01b0383166000818152602081815260408083209490945583518581529351929391927fddf252ad1be2c89b69c2b068fc378daa952ba7f163c4a11628f55a4df523b3ef9281900390910190a35050565b6001600160a01b0382166111c75760405162461bcd60e51b81526004018080602001828103825260218152602001806113c86021913960400191505060405180910390fd5b6111d382600083610a70565b611210816040518060600160405280602281526020016112f1602291396001600160a01b0385166000908152602081905260409020549190610f9a565b6001600160a01b038316600090815260208190526040902055600254611236908261128b565b6002556040805182815290516000916001600160a01b038516917fddf252ad1be2c89b69c2b068fc378daa952ba7f163c4a11628f55a4df523b3ef9181900360200190a35050565b5490565b80546001019055565b600061108b83836040518060400160405280601e81526020017f536166654d6174683a207375627472616374696f6e206f766572666c6f770000815250610f9a56fe45524332303a207472616e7366657220746f20746865207a65726f206164647265737345524332303a206275726e20616d6f756e7420657863656564732062616c616e636545524332303a20617070726f766520746f20746865207a65726f206164647265737345524332303a207472616e7366657220616d6f756e7420657863656564732062616c616e63655a65726f537761705065726d69743a20496e76616c6964207369676e617475726545524332303a207472616e7366657220616d6f756e74206578636565647320616c6c6f77616e636545524332303a206275726e20616d6f756e74206578636565647320616c6c6f77616e636545524332303a206275726e2066726f6d20746865207a65726f206164647265737345524332303a207472616e736665722066726f6d20746865207a65726f206164647265737345524332303a20617070726f76652066726f6d20746865207a65726f206164647265737345524332303a2064656372656173656420616c6c6f77616e63652062656c6f77207a65726fa2646970667358221220f66d7c666c0833af18ac6a21e922b812660cd69bf252bb5b1be8dc9e53f86c2b64736f6c63430007050033",
  "devdoc": {
    "kind": "dev",
    "methods": {
      "mint(address,uint256)": {
        "details": "If `_initialSupply` is not zero, the amount to mint is limited to at most 5% of `_initialSupply`. The first time mint is successfully called, it will update the `_initialSupply` to equal the mint `amount_` Note _initialSupply is initialized to zero"
      },
      "nonces(address)": {
        "details": "See {IERC2612Permit-nonces}."
      },
      "permit(address,address,uint256,uint256,uint8,bytes32,bytes32)": {
        "details": "See {IERC2612Permit-permit}."
      }
    },
    "version": 1
  },
  "userdoc": {
    "kind": "user",
    "methods": {},
    "version": 1
  },
  "storageLayout": {
    "storage": [
      {
        "astId": 10368,
        "contract": "src/Theopetra/TheopetraERC20.sol:TheopetraERC20Token",
        "label": "_balances",
        "offset": 0,
        "slot": "0",
        "type": "t_mapping(t_address,t_uint256)"
      },
      {
        "astId": 10374,
        "contract": "src/Theopetra/TheopetraERC20.sol:TheopetraERC20Token",
        "label": "_allowances",
        "offset": 0,
        "slot": "1",
        "type": "t_mapping(t_address,t_mapping(t_address,t_uint256))"
      },
      {
        "astId": 10376,
        "contract": "src/Theopetra/TheopetraERC20.sol:TheopetraERC20Token",
        "label": "_totalSupply",
        "offset": 0,
        "slot": "2",
        "type": "t_uint256"
      },
      {
        "astId": 10378,
        "contract": "src/Theopetra/TheopetraERC20.sol:TheopetraERC20Token",
        "label": "_name",
        "offset": 0,
        "slot": "3",
        "type": "t_string_storage"
      },
      {
        "astId": 10380,
        "contract": "src/Theopetra/TheopetraERC20.sol:TheopetraERC20Token",
        "label": "_symbol",
        "offset": 0,
        "slot": "4",
        "type": "t_string_storage"
      },
      {
        "astId": 10844,
        "contract": "src/Theopetra/TheopetraERC20.sol:TheopetraERC20Token",
        "label": "_nonces",
        "offset": 0,
        "slot": "5",
        "type": "t_mapping(t_address,t_struct(Counter)2636_storage)"
      },
      {
        "astId": 10849,
        "contract": "src/Theopetra/TheopetraERC20.sol:TheopetraERC20Token",
        "label": "DOMAIN_SEPARATOR",
        "offset": 0,
        "slot": "6",
        "type": "t_bytes32"
      },
      {
        "astId": 11008,
        "contract": "src/Theopetra/TheopetraERC20.sol:TheopetraERC20Token",
        "label": "UNAUTHORIZED",
        "offset": 0,
        "slot": "7",
        "type": "t_string_storage"
      },
      {
        "astId": 11010,
        "contract": "src/Theopetra/TheopetraERC20.sol:TheopetraERC20Token",
        "label": "authority",
        "offset": 0,
        "slot": "8",
        "type": "t_contract(ITheopetraAuthority)2485"
      },
      {
        "astId": 6016,
        "contract": "src/Theopetra/TheopetraERC20.sol:TheopetraERC20Token",
        "label": "_initialSupply",
        "offset": 0,
        "slot": "9",
        "type": "t_uint256"
      }
    ],
    "types": {
      "t_address": {
        "encoding": "inplace",
        "label": "address",
        "numberOfBytes": "20"
      },
      "t_bytes32": {
        "encoding": "inplace",
        "label": "bytes32",
        "numberOfBytes": "32"
      },
      "t_contract(ITheopetraAuthority)2485": {
        "encoding": "inplace",
        "label": "contract ITheopetraAuthority",
        "numberOfBytes": "20"
      },
      "t_mapping(t_address,t_mapping(t_address,t_uint256))": {
        "encoding": "mapping",
        "key": "t_address",
        "label": "mapping(address => mapping(address => uint256))",
        "numberOfBytes": "32",
        "value": "t_mapping(t_address,t_uint256)"
      },
      "t_mapping(t_address,t_struct(Counter)2636_storage)": {
        "encoding": "mapping",
        "key": "t_address",
        "label": "mapping(address => struct Counters.Counter)",
        "numberOfBytes": "32",
        "value": "t_struct(Counter)2636_storage"
      },
      "t_mapping(t_address,t_uint256)": {
        "encoding": "mapping",
        "key": "t_address",
        "label": "mapping(address => uint256)",
        "numberOfBytes": "32",
        "value": "t_uint256"
      },
      "t_string_storage": {
        "encoding": "bytes",
        "label": "string",
        "numberOfBytes": "32"
      },
      "t_struct(Counter)2636_storage": {
        "encoding": "inplace",
        "label": "struct Counters.Counter",
        "members": [
          {
            "astId": 2635,
            "contract": "src/Theopetra/TheopetraERC20.sol:TheopetraERC20Token",
            "label": "_value",
            "offset": 0,
            "slot": "0",
            "type": "t_uint256"
          }
        ],
        "numberOfBytes": "32"
      },
      "t_uint256": {
        "encoding": "inplace",
        "label": "uint256",
        "numberOfBytes": "32"
      }
    }
  }
}