{
  "address": "0x9140dE89f6Ab27647B96773E818196AC242E890b",
  "abi": [
    {
      "inputs": [
        {
          "internalType": "contract ITheopetraAuthority",
          "name": "_authority",
          "type": "address"
        },
        {
          "internalType": "address",
          "name": "_treasury",
          "type": "address"
        },
        {
          "internalType": "address",
          "name": "_theo",
          "type": "address"
        },
        {
          "internalType": "uint256",
          "name": "_fdvTarget",
          "type": "uint256"
        },
        {
          "internalType": "address[]",
          "name": "_payees",
          "type": "address[]"
        },
        {
          "internalType": "uint256[]",
          "name": "_shares",
          "type": "uint256[]"
        },
        {
          "internalType": "uint256[]",
          "name": "_unlockTimes",
          "type": "uint256[]"
        },
        {
          "internalType": "uint256[]",
          "name": "_unlockAmounts",
          "type": "uint256[]"
        }
      ],
      "stateMutability": "nonpayable",
      "type": "constructor"
    },
    {
      "anonymous": false,
      "inputs": [
        {
          "indexed": true,
          "internalType": "contract ITheopetraAuthority",
          "name": "authority",
          "type": "address"
        }
      ],
      "name": "AuthorityUpdated",
      "type": "event"
    },
    {
      "anonymous": false,
      "inputs": [
        {
          "indexed": true,
          "internalType": "contract IERC20",
          "name": "token",
          "type": "address"
        },
        {
          "indexed": false,
          "internalType": "address",
          "name": "to",
          "type": "address"
        },
        {
          "indexed": false,
          "internalType": "uint256",
          "name": "amount",
          "type": "uint256"
        }
      ],
      "name": "ERC20PaymentReleased",
      "type": "event"
    },
    {
      "anonymous": false,
      "inputs": [
        {
          "indexed": false,
          "internalType": "address",
          "name": "account",
          "type": "address"
        },
        {
          "indexed": false,
          "internalType": "uint256",
          "name": "shares",
          "type": "uint256"
        }
      ],
      "name": "PayeeAdded",
      "type": "event"
    },
    {
      "anonymous": false,
      "inputs": [
        {
          "indexed": false,
          "internalType": "address",
          "name": "from",
          "type": "address"
        },
        {
          "indexed": false,
          "internalType": "uint256",
          "name": "amount",
          "type": "uint256"
        }
      ],
      "name": "PaymentReceived",
      "type": "event"
    },
    {
      "inputs": [],
      "name": "authority",
      "outputs": [
        {
          "internalType": "contract ITheopetraAuthority",
          "name": "",
          "type": "address"
        }
      ],
      "stateMutability": "view",
      "type": "function"
    },
    {
      "inputs": [],
      "name": "decimals",
      "outputs": [
        {
          "internalType": "uint8",
          "name": "",
          "type": "uint8"
        }
      ],
      "stateMutability": "pure",
      "type": "function"
    },
    {
      "inputs": [],
      "name": "getFdvFactor",
      "outputs": [
        {
          "internalType": "uint256",
          "name": "",
          "type": "uint256"
        }
      ],
      "stateMutability": "view",
      "type": "function"
    },
    {
      "inputs": [
        {
          "internalType": "contract IERC20",
          "name": "token",
          "type": "address"
        },
        {
          "internalType": "address",
          "name": "account",
          "type": "address"
        }
      ],
      "name": "getReleasable",
      "outputs": [
        {
          "internalType": "uint256",
          "name": "",
          "type": "uint256"
        }
      ],
      "stateMutability": "view",
      "type": "function"
    },
    {
      "inputs": [
        {
          "internalType": "contract IERC20",
          "name": "token",
          "type": "address"
        },
        {
          "internalType": "address",
          "name": "account",
          "type": "address"
        }
      ],
      "name": "getReleased",
      "outputs": [
        {
          "internalType": "uint256",
          "name": "",
          "type": "uint256"
        }
      ],
      "stateMutability": "view",
      "type": "function"
    },
    {
      "inputs": [
        {
          "internalType": "address",
          "name": "account",
          "type": "address"
        }
      ],
      "name": "getShares",
      "outputs": [
        {
          "internalType": "uint256",
          "name": "",
          "type": "uint256"
        }
      ],
      "stateMutability": "view",
      "type": "function"
    },
    {
      "inputs": [
        {
          "internalType": "contract IERC20",
          "name": "token",
          "type": "address"
        }
      ],
      "name": "getTotalReleased",
      "outputs": [
        {
          "internalType": "uint256",
          "name": "",
          "type": "uint256"
        }
      ],
      "stateMutability": "view",
      "type": "function"
    },
    {
      "inputs": [],
      "name": "getTotalShares",
      "outputs": [
        {
          "internalType": "uint256",
          "name": "",
          "type": "uint256"
        }
      ],
      "stateMutability": "view",
      "type": "function"
    },
    {
      "inputs": [],
      "name": "getUnlockedMultiplier",
      "outputs": [
        {
          "internalType": "uint256",
          "name": "",
          "type": "uint256"
        }
      ],
      "stateMutability": "view",
      "type": "function"
    },
    {
      "inputs": [],
      "name": "initialMint",
      "outputs": [],
      "stateMutability": "nonpayable",
      "type": "function"
    },
    {
      "inputs": [],
      "name": "rebalance",
      "outputs": [],
      "stateMutability": "nonpayable",
      "type": "function"
    },
    {
      "inputs": [
        {
          "internalType": "contract IERC20",
          "name": "token",
          "type": "address"
        }
      ],
      "name": "release",
      "outputs": [],
      "stateMutability": "nonpayable",
      "type": "function"
    },
    {
      "inputs": [
        {
          "internalType": "contract IERC20",
          "name": "token",
          "type": "address"
        },
        {
          "internalType": "uint256",
          "name": "amount",
          "type": "uint256"
        }
      ],
      "name": "releaseAmount",
      "outputs": [],
      "stateMutability": "nonpayable",
      "type": "function"
    },
    {
      "inputs": [
        {
          "internalType": "contract ITheopetraAuthority",
          "name": "_newAuthority",
          "type": "address"
        }
      ],
      "name": "setAuthority",
      "outputs": [],
      "stateMutability": "nonpayable",
      "type": "function"
    }
  ],
  "transactionHash": "0x3260da31943d8aa82b4176140d81ed8cdc7ff5a9395c336cbb7377deee0304a1",
  "args": [
    "0xBcdF034cE6624A817c1BfEffBDE8691443e5fDbB",
    "0x6640C3FD53e4Cf446B4139f478A199147d663a44",
    "0x1A2EA28399A2e4f8f3EEfeA5f41770B4C61fE643",
    100000000,
    [
      "0x0000000000000000000000000000000000000001",
      "0x0000000000000000000000000000000000000002",
      "0x0000000000000000000000000000000000000003",
      "0x0000000000000000000000000000000000000004",
      "0x0000000000000000000000000000000000000005",
      "0x0000000000000000000000000000000000000006",
      "0x0000000000000000000000000000000000000007",
      "0x0000000000000000000000000000000000000008"
    ],
    [
      10000000,
      5000000,
      1000000,
      500000,
      100000,
      50000,
      10000,
      5000
    ],
    [
      31536000,
      34128000,
      36720000,
      39304000,
      41888000,
      44472000
    ],
    [
      166666666,
      333333333,
      500000000,
      666666666,
      833333333,
      1000000000
    ]
  ],
  "numDeployments": 1,
  "solcInputHash": "446a1be813bfb9f78647a023efb0da17",
  "bytecode": "0x60c0604052600c60808190526b15539055551213d49256915160a21b60a09081526200002f916000919062000659565b5042600a55600d805461ffff191690553480156200004c57600080fd5b5060405162001f7038038062001f7083398181016040526101008110156200007357600080fd5b8151602083015160408085015160608601516080870180519351959794969295919491939282019284640100000000821115620000af57600080fd5b908301906020820185811115620000c557600080fd5b8251866020820283011164010000000082111715620000e357600080fd5b82525081516020918201928201910280838360005b8381101562000112578181015183820152602001620000f8565b50505050905001604052602001805160405193929190846401000000008211156200013c57600080fd5b9083019060208201858111156200015257600080fd5b82518660208202830111640100000000821117156200017057600080fd5b82525081516020918201928201910280838360005b838110156200019f57818101518382015260200162000185565b5050505090500160405260200180516040519392919084640100000000821115620001c957600080fd5b908301906020820185811115620001df57600080fd5b8251866020820283011164010000000082111715620001fd57600080fd5b82525081516020918201928201910280838360005b838110156200022c57818101518382015260200162000212565b50505050905001604052602001805160405193929190846401000000008211156200025657600080fd5b9083019060208201858111156200026c57600080fd5b82518660208202830111640100000000821117156200028a57600080fd5b82525081516020918201928201910280838360005b83811015620002b95781810151838201526020016200029f565b50505050919091016040819052600180546001600160a01b0319166001600160a01b038f169081179091558d955093507f2f658b440c35314f52658ea8a740e05b284cdc84dc9ae01e891f21b8933e7cad925060009150a2508251845114620003545760405162461bcd60e51b815260040180806020018281038252603a81526020018062001ea8603a913960400191505060405180910390fd5b6000845111620003965760405162461bcd60e51b815260040180806020018281038252602281526020018062001ee26022913960400191505060405180910390fd5b8051825114620003d85760405162461bcd60e51b815260040180806020018281038252604181526020018062001f046041913960600191505060405180910390fd5b60008251116200041a5760405162461bcd60e51b815260040180806020018281038252602b81526020018062001f45602b913960400191505060405180910390fd5b6004859055600380546001600160a01b038089166001600160a01b03199283161790925560028054928a169290911691909117905581516200046490600b906020850190620006ee565b5080516200047a90600c906020840190620006ee565b5060005b8451811015620004cb57620004c28582815181106200049957fe5b6020026020010151858381518110620004ae57fe5b6020026020010151620004da60201b60201c565b6001016200047e565b50505050505050505062000742565b6001600160a01b038216620005215760405162461bcd60e51b815260040180806020018281038252603481526020018062001e1c6034913960400191505060405180910390fd5b60008111620005625760405162461bcd60e51b815260040180806020018281038252602581526020018062001e836025913960400191505060405180910390fd5b6001600160a01b03821660009081526006602052604090205415620005b95760405162461bcd60e51b815260040180806020018281038252603381526020018062001e506033913960400191505060405180910390fd5b60078054600181019091557fa66cc928b5edb82af9bd49922954155ab7b0942694bea4ce44661d9a8736c6880180546001600160a01b0319166001600160a01b03841690811790915560008181526006602090815260409182902084905560058054850190558151928352820183905280517f40c340f65e17194d14ddddb073d3c9f888e3cb52b5aae0c6c7706b4fbc905fac9281900390910190a15050565b828054600181600116156101000203166002900490600052602060002090601f016020900481019282620006915760008555620006dc565b82601f10620006ac57805160ff1916838001178555620006dc565b82800160010185558215620006dc579182015b82811115620006dc578251825591602001919060010190620006bf565b50620006ea9291506200072b565b5090565b828054828255906000526020600020908101928215620006dc5791602002820182811115620006dc578251825591602001919060010190620006bf565b5b80821115620006ea57600081556001016200072c565b6116ca80620007526000396000f3fe608060405234801561001057600080fd5b50600436106100ea5760003560e01c80638d9f42c91161008c578063bf7e214f11610066578063bf7e214f1461020f578063cde2332c14610233578063d5002f2e1461025f578063f04da65b14610267576100ea565b80638d9f42c9146101ab5780639fc5ce2a146101d9578063a51203b0146101e1576100ea565b80637a9e5e4b116100c85780637a9e5e4b1461016d5780637d7c2a1c1461019357806381932efe1461019b57806385cc8ad9146101a3576100ea565b80630714f6ee146100ef5780631916558714610127578063313ce5671461014f575b600080fd5b6101156004803603602081101561010557600080fd5b50356001600160a01b031661028d565b60408051918252519081900360200190f35b61014d6004803603602081101561013d57600080fd5b50356001600160a01b03166102a8565b005b610157610462565b6040805160ff9092168252519081900360200190f35b61014d6004803603602081101561018357600080fd5b50356001600160a01b0316610468565b61014d6105f0565b61011561094a565b6101156109b4565b610115600480360360408110156101c157600080fd5b506001600160a01b0381358116916020013516610bfa565b61014d610cea565b610115600480360360408110156101f757600080fd5b506001600160a01b0381358116916020013516610f6b565b610217610f96565b604080516001600160a01b039092168252519081900360200190f35b61014d6004803603604081101561024957600080fd5b506001600160a01b038135169060200135610fa5565b6101156111d9565b6101156004803603602081101561027d57600080fd5b50356001600160a01b03166111df565b6001600160a01b031660009081526008602052604090205490565b336000818152600660205260409020546102f35760405162461bcd60e51b815260040180806020018281038252602e815260200180611591602e913960400191505060405180910390fd5b6102fb6105f0565b60006103068361028d565b604080516370a0823160e01b815230600482015290516001600160a01b038616916370a08231916024808301926020929190829003018186803b15801561034c57600080fd5b505afa158015610360573d6000803e3d6000fd5b505050506040513d602081101561037657600080fd5b50510190506000610391838361038c8783610f6b565b6111fa565b9050806103cf5760405162461bcd60e51b81526004018080602001828103825260338152602001806115336033913960400191505060405180910390fd5b6001600160a01b0380851660008181526009602090815260408083209488168352938152838220805486019055918152600890915220805482019055610416848483611244565b604080516001600160a01b038581168252602082018490528251908716927f3be5b7a71e84ed12875d241991c70855ac5817d847039e17a9d895c1ceb0f18a928290030190a250505050565b60095b90565b600160009054906101000a90046001600160a01b03166001600160a01b0316630c340a246040518163ffffffff1660e01b815260040160206040518083038186803b1580156104b657600080fd5b505afa1580156104ca573d6000803e3d6000fd5b505050506040513d60208110156104e057600080fd5b50516000906001600160a01b0316331461058d5760405162461bcd60e51b815260206004820190815282546002600019610100600184161502019091160460248301819052909182916044909101908490801561057e5780601f106105535761010080835404028352916020019161057e565b820191906000526020600020905b81548152906001019060200180831161056157829003601f168201915b50509250505060405180910390fd5b50600180547fffffffffffffffffffffffff0000000000000000000000000000000000000000166001600160a01b0383169081179091556040517f2f658b440c35314f52658ea8a740e05b284cdc84dc9ae01e891f21b8933e7cad90600090a250565b3360009081526006602052604090205461063b5760405162461bcd60e51b815260040180806020018281038252602e815260200180611591602e913960400191505060405180910390fd5b600354604080517f18160ddd00000000000000000000000000000000000000000000000000000000815290516000926001600160a01b0316916318160ddd916004808301926020929190829003018186803b15801561069957600080fd5b505afa1580156106ad573d6000803e3d6000fd5b505050506040513d60208110156106c357600080fd5b5051600354604080516370a0823160e01b815230600482015290519293506000926001600160a01b03909216916370a0823191602480820192602092909190829003018186803b15801561071657600080fd5b505afa15801561072a573d6000803e3d6000fd5b505050506040513d602081101561074057600080fd5b50516003546001600160a01b0316600090815260086020526040902054600d549192509060ff161561077457505050610948565b60006107c4600554610784610462565b60ff16600a0a036107be610796610462565b60ff16600a0a6107be6107a76109b4565b6005546107b8908a8a018c036113f3565b906113f3565b90611453565b905081830181111561085c57600254604080517f40c10f190000000000000000000000000000000000000000000000000000000081523060048201528585018403602482015290516001600160a01b03909216916340c10f199160448082019260009290919082900301818387803b15801561083f57600080fd5b505af1158015610853573d6000803e3d6000fd5b505050506108e9565b8183018110156108e957600354604080517f42966c68000000000000000000000000000000000000000000000000000000008152858501849003600482015290516001600160a01b03909216916342966c689160248082019260009290919082900301818387803b1580156108d057600080fd5b505af11580156108e4573d6000803e3d6000fd5b505050505b600a54600b8054429290920391600019810190811061090457fe5b906000526020600020015481111561094257600d80547fffffffffffffffffffffffffffffffffffffffffffffffffffffffffffffff001660011790555b50505050505b565b600a54600b546000914203905b80156109ab57600b600182038154811061096d57fe5b906000526020600020015482106109a257600c600182038154811061098e57fe5b906000526020600020015492505050610465565b60001901610957565b50600091505090565b600080600260009054906101000a90046001600160a01b03166001600160a01b031663817f76356040518163ffffffff1660e01b815260040160206040518083038186803b158015610a0557600080fd5b505afa158015610a19573d6000803e3d6000fd5b505050506040513d6020811015610a2f57600080fd5b505190506001600160a01b038116610a785760405162461bcd60e51b815260040180806020018281038252602e815260200180611667602e913960400191505060405180910390fd5b600354604080517f4249719f0000000000000000000000000000000000000000000000000000000081526001600160a01b039283166004820152600160248201529051600092841691634249719f916044808301926020929190829003018186803b158015610ae657600080fd5b505afa158015610afa573d6000803e3d6000fd5b505050506040513d6020811015610b1057600080fd5b5051600354604080517f18160ddd0000000000000000000000000000000000000000000000000000000081529051929350600092610baa926001600160a01b0316916318160ddd916004808301926020929190829003018186803b158015610b7757600080fd5b505afa158015610b8b573d6000803e3d6000fd5b505050506040513d6020811015610ba157600080fd5b505183906113f3565b9050610bc6610bb7610462565b6004549060ff16600a0a6113f3565b8110610be457610bd4610462565b60ff16600a0a9350505050610465565b600454610bf2908290611453565b935050505090565b6001600160a01b038116600090815260066020526040812054610c4e5760405162461bcd60e51b815260040180806020018281038252602e815260200180611591602e913960400191505060405180910390fd5b6000610c598461028d565b604080516370a0823160e01b815230600482015290516001600160a01b038716916370a08231916024808301926020929190829003018186803b158015610c9f57600080fd5b505afa158015610cb3573d6000803e3d6000fd5b505050506040513d6020811015610cc957600080fd5b50510190506000610cdf848361038c8883610f6b565b925050505b92915050565b600160009054906101000a90046001600160a01b03166001600160a01b0316630c340a246040518163ffffffff1660e01b815260040160206040518083038186803b158015610d3857600080fd5b505afa158015610d4c573d6000803e3d6000fd5b505050506040513d6020811015610d6257600080fd5b50516000906001600160a01b03163314610dd55760405162461bcd60e51b815260206004820190815282546002600019610100600184161502019091160460248301819052909182916044909101908490801561057e5780601f106105535761010080835404028352916020019161057e565b50600d54610100900460ff1615610e1d5760405162461bcd60e51b81526004018080602001828103825260398152602001806115bf6039913960400191505060405180910390fd5b600d80547fffffffffffffffffffffffffffffffffffffffffffffffffffffffffffff00ff16610100179055600554600090610ee890610e5b610462565b60ff16600a0a036107be600360009054906101000a90046001600160a01b03166001600160a01b03166318160ddd6040518163ffffffff1660e01b815260040160206040518083038186803b158015610eb357600080fd5b505afa158015610ec7573d6000803e3d6000fd5b505050506040513d6020811015610edd57600080fd5b5051600554906113f3565b600254604080517f40c10f190000000000000000000000000000000000000000000000000000000081523060048201526024810184905290519293506001600160a01b03909116916340c10f199160448082019260009290919082900301818387803b158015610f5757600080fd5b505af1158015610942573d6000803e3d6000fd5b6001600160a01b03918216600090815260096020908152604080832093909416825291909152205490565b6001546001600160a01b031681565b33600081815260066020526040902054610ff05760405162461bcd60e51b815260040180806020018281038252602e815260200180611591602e913960400191505060405180910390fd5b6000821161102f5760405162461bcd60e51b815260040180806020018281038252602b815260200180611566602b913960400191505060405180910390fd5b6110376105f0565b60006110428461028d565b604080516370a0823160e01b815230600482015290516001600160a01b038716916370a08231916024808301926020929190829003018186803b15801561108857600080fd5b505afa15801561109c573d6000803e3d6000fd5b505050506040513d60208110156110b257600080fd5b505101905060006110c8838361038c8883610f6b565b9050806111065760405162461bcd60e51b81526004018080602001828103825260338152602001806115336033913960400191505060405180910390fd5b808411156111455760405162461bcd60e51b815260040180806020018281038252604e815260200180611619604e913960600191505060405180910390fd5b6001600160a01b038086166000818152600960209081526040808320948816835293815283822080548901905591815260089091522080548501905561118c858486611244565b604080516001600160a01b038581168252602082018790528251908816927f3be5b7a71e84ed12875d241991c70855ac5817d847039e17a9d895c1ceb0f18a928290030190a25050505050565b60055490565b6001600160a01b031660009081526006602052604090205490565b600081611205610462565b60ff16600a0a6005540261121761094a565b6001600160a01b0387166000908152600660205260409020548602028161123a57fe5b0403949350505050565b604080516001600160a01b038481166024830152604480830185905283518084039091018152606490920183526020820180517bffffffffffffffffffffffffffffffffffffffffffffffffffffffff167fa9059cbb00000000000000000000000000000000000000000000000000000000178152925182516000946060949389169392918291908083835b6020831061130d57805182527fffffffffffffffffffffffffffffffffffffffffffffffffffffffffffffffe090920191602091820191016112d0565b6001836020036101000a0380198251168184511680821785525050505050509050019150506000604051808303816000865af19150503d806000811461136f576040519150601f19603f3d011682016040523d82523d6000602084013e611374565b606091505b50915091508180156113a25750805115806113a2575080806020019051602081101561139f57600080fd5b50515b610942576040805162461bcd60e51b815260206004820152600f60248201527f5452414e534645525f4641494c45440000000000000000000000000000000000604482015290519081900360640190fd5b60008261140257506000610ce4565b8282028284828161140f57fe5b041461144c5760405162461bcd60e51b81526004018080602001828103825260218152602001806115f86021913960400191505060405180910390fd5b9392505050565b600061144c83836040518060400160405280601a81526020017f536166654d6174683a206469766973696f6e206279207a65726f0000000000008152506000818361151c5760405162461bcd60e51b81526004018080602001828103825283818151815260200191508051906020019080838360005b838110156114e15781810151838201526020016114c9565b50505050905090810190601f16801561150e5780820380516001836020036101000a031916815260200191505b509250505060405180910390fd5b50600083858161152857fe5b049594505050505056fe5468656f7065747261466f756e64657256657374696e673a206163636f756e74206973206e6f7420647565207061796d656e745468656f7065747261466f756e64657256657374696e673a20616d6f756e742063616e6e6f7420626520305468656f7065747261466f756e64657256657374696e673a206163636f756e7420686173206e6f207368617265735468656f7065747261466f756e64657256657374696e673a20696e697469616c4d696e742063616e206f6e6c792062652072756e206f6e6365536166654d6174683a206d756c7469706c69636174696f6e206f766572666c6f775468656f7065747261466f756e64657256657374696e673a2072657175657374656420616d6f756e74206973206d6f7265207468616e20647565207061796d656e7420666f72206163636f756e745468656f7065747261466f756e64657256657374696e673a204e6f20626f6e64696e672063616c63756c61746f72a264697066735822122049d3f03f2fd042f3cc4495b6fe0c9b2137224fe81cc3e781fce534218c6d85d464736f6c634300070500335468656f7065747261466f756e64657256657374696e673a206163636f756e7420697320746865207a65726f20616464726573735468656f7065747261466f756e64657256657374696e673a206163636f756e7420616c726561647920686173207368617265735468656f7065747261466f756e64657256657374696e673a207368617265732061726520305468656f7065747261466f756e64657256657374696e673a2070617965657320616e6420736861726573206c656e677468206d69736d617463685468656f7065747261466f756e64657256657374696e673a206e6f207061796565735468656f7065747261466f756e64657256657374696e673a20756e6c6f636b2074696d657320616e6420616d6f756e7473206c656e677468206d69736d617463685468656f7065747261466f756e64657256657374696e673a206e6f20756e6c6f636b207363686564756c65",
  "devdoc": {
    "details": "This contract allows to split THEO payments among a group of accounts. The sender does not need to be aware that the THEO will be split in this way, since it is handled transparently by the contract. The split can be in equal parts or in any other arbitrary proportion. The way this is specified is by assigning each account to a number of shares. Of all the THEO that this contract receives, each account will then be able to claim an amount proportional to the percentage of total shares they were assigned. `TheopetraFounderVesting` follows a _pull payment_ model. This means that payments are not automatically forwarded to the accounts but kept in this contract, and the actual transfer is triggered as a separate step by calling the {release} function.",
    "kind": "dev",
    "methods": {
      "constructor": {
        "details": "Creates an instance of `TheopetraFounderVesting` where each account in `payees` is assigned the number of shares at the matching position in the `shares` array. All addresses in `payees` must be non-zero. Both arrays must have the same non-zero length, and there must be no duplicates in `payees`."
      },
      "getFdvFactor()": {
        "details": "calculated as currentFDV / FDVtarget (using 9 decimals)",
        "returns": {
          "_0": "uint256 proportion of FDV target, 9 decimals"
        }
      },
      "getReleasable(address,address)": {
        "details": "Returns the amount of tokens that could be paid to `account` at the current time."
      },
      "getReleased(address,address)": {
        "details": "Getter for the amount of `token` tokens already released to a payee. `token` should be the address of an IERC20 contract."
      },
      "getShares(address)": {
        "details": "Getter for the amount of shares held by an account."
      },
      "getTotalReleased(address)": {
        "details": "Getter for the total amount of `token` already released. `token` should be the address of an IERC20 contract."
      },
      "getTotalShares()": {
        "details": "Getter for the total shares held by payees."
      },
      "getUnlockedMultiplier()": {
        "details": "Getter for unlocked multiplier for time-locked funds. This is the percent currently unlocked as a decimal ratio of 1."
      },
      "rebalance()": {
        "details": "Mints or burns tokens for this contract to balance shares to their appropriate percentage"
      },
      "release(address)": {
        "details": "Triggers a transfer to `account` of the amount of `token` tokens they are owed, according to their percentage of the total shares and their previous withdrawals. `token` must be the address of an IERC20 contract."
      },
      "releaseAmount(address,uint256)": {
        "details": "Triggers a transfer to `account` of the amount of `token` tokens specified, according to their percentage of the total shares and their previous withdrawals. `token` must be the address of an IERC20 contract."
      }
    },
    "title": "TheopetraFounderVesting",
    "version": 1
  },
  "userdoc": {
    "kind": "user",
    "methods": {
      "decimals()": {
        "notice": "return the decimals in the percentage values and thus the number of shares per percentage point (1% = 10_000_000 shares)"
      },
      "getFdvFactor()": {
        "notice": "Scale the founder amount with respect to the FDV target value"
      }
    },
    "version": 1
  },
  "storageLayout": {
    "storage": [
      {
        "astId": 11008,
        "contract": "src/Theopetra/TheopetraFounderVesting.sol:TheopetraFounderVesting",
        "label": "UNAUTHORIZED",
        "offset": 0,
        "slot": "0",
        "type": "t_string_storage"
      },
      {
        "astId": 11010,
        "contract": "src/Theopetra/TheopetraFounderVesting.sol:TheopetraFounderVesting",
        "label": "authority",
        "offset": 0,
        "slot": "1",
        "type": "t_contract(ITheopetraAuthority)2485"
      },
      {
        "astId": 6174,
        "contract": "src/Theopetra/TheopetraFounderVesting.sol:TheopetraFounderVesting",
        "label": "treasury",
        "offset": 0,
        "slot": "2",
        "type": "t_contract(ITreasury)2594"
      },
      {
        "astId": 6176,
        "contract": "src/Theopetra/TheopetraFounderVesting.sol:TheopetraFounderVesting",
        "label": "THEO",
        "offset": 0,
        "slot": "3",
        "type": "t_contract(ITHEO)2368"
      },
      {
        "astId": 6178,
        "contract": "src/Theopetra/TheopetraFounderVesting.sol:TheopetraFounderVesting",
        "label": "fdvTarget",
        "offset": 0,
        "slot": "4",
        "type": "t_uint256"
      },
      {
        "astId": 6180,
        "contract": "src/Theopetra/TheopetraFounderVesting.sol:TheopetraFounderVesting",
        "label": "totalShares",
        "offset": 0,
        "slot": "5",
        "type": "t_uint256"
      },
      {
        "astId": 6184,
        "contract": "src/Theopetra/TheopetraFounderVesting.sol:TheopetraFounderVesting",
        "label": "shares",
        "offset": 0,
        "slot": "6",
        "type": "t_mapping(t_address,t_uint256)"
      },
      {
        "astId": 6187,
        "contract": "src/Theopetra/TheopetraFounderVesting.sol:TheopetraFounderVesting",
        "label": "payees",
        "offset": 0,
        "slot": "7",
        "type": "t_array(t_address)dyn_storage"
      },
      {
        "astId": 6191,
        "contract": "src/Theopetra/TheopetraFounderVesting.sol:TheopetraFounderVesting",
        "label": "erc20TotalReleased",
        "offset": 0,
        "slot": "8",
        "type": "t_mapping(t_contract(IERC20)2173,t_uint256)"
      },
      {
        "astId": 6197,
        "contract": "src/Theopetra/TheopetraFounderVesting.sol:TheopetraFounderVesting",
        "label": "erc20Released",
        "offset": 0,
        "slot": "9",
        "type": "t_mapping(t_contract(IERC20)2173,t_mapping(t_address,t_uint256))"
      },
      {
        "astId": 6201,
        "contract": "src/Theopetra/TheopetraFounderVesting.sol:TheopetraFounderVesting",
        "label": "deployTime",
        "offset": 0,
        "slot": "10",
        "type": "t_uint256"
      },
      {
        "astId": 6204,
        "contract": "src/Theopetra/TheopetraFounderVesting.sol:TheopetraFounderVesting",
        "label": "unlockTimes",
        "offset": 0,
        "slot": "11",
        "type": "t_array(t_uint256)dyn_storage"
      },
      {
        "astId": 6207,
        "contract": "src/Theopetra/TheopetraFounderVesting.sol:TheopetraFounderVesting",
        "label": "unlockAmounts",
        "offset": 0,
        "slot": "12",
        "type": "t_array(t_uint256)dyn_storage"
      },
      {
        "astId": 6210,
        "contract": "src/Theopetra/TheopetraFounderVesting.sol:TheopetraFounderVesting",
        "label": "founderRebalanceLocked",
        "offset": 0,
        "slot": "13",
        "type": "t_bool"
      },
      {
        "astId": 6213,
        "contract": "src/Theopetra/TheopetraFounderVesting.sol:TheopetraFounderVesting",
        "label": "initialized",
        "offset": 1,
        "slot": "13",
        "type": "t_bool"
      }
    ],
    "types": {
      "t_address": {
        "encoding": "inplace",
        "label": "address",
        "numberOfBytes": "20"
      },
      "t_array(t_address)dyn_storage": {
        "base": "t_address",
        "encoding": "dynamic_array",
        "label": "address[]",
        "numberOfBytes": "32"
      },
      "t_array(t_uint256)dyn_storage": {
        "base": "t_uint256",
        "encoding": "dynamic_array",
        "label": "uint256[]",
        "numberOfBytes": "32"
      },
      "t_bool": {
        "encoding": "inplace",
        "label": "bool",
        "numberOfBytes": "1"
      },
      "t_contract(IERC20)2173": {
        "encoding": "inplace",
        "label": "contract IERC20",
        "numberOfBytes": "20"
      },
      "t_contract(ITHEO)2368": {
        "encoding": "inplace",
        "label": "contract ITHEO",
        "numberOfBytes": "20"
      },
      "t_contract(ITheopetraAuthority)2485": {
        "encoding": "inplace",
        "label": "contract ITheopetraAuthority",
        "numberOfBytes": "20"
      },
      "t_contract(ITreasury)2594": {
        "encoding": "inplace",
        "label": "contract ITreasury",
        "numberOfBytes": "20"
      },
      "t_mapping(t_address,t_uint256)": {
        "encoding": "mapping",
        "key": "t_address",
        "label": "mapping(address => uint256)",
        "numberOfBytes": "32",
        "value": "t_uint256"
      },
      "t_mapping(t_contract(IERC20)2173,t_mapping(t_address,t_uint256))": {
        "encoding": "mapping",
        "key": "t_contract(IERC20)2173",
        "label": "mapping(contract IERC20 => mapping(address => uint256))",
        "numberOfBytes": "32",
        "value": "t_mapping(t_address,t_uint256)"
      },
      "t_mapping(t_contract(IERC20)2173,t_uint256)": {
        "encoding": "mapping",
        "key": "t_contract(IERC20)2173",
        "label": "mapping(contract IERC20 => uint256)",
        "numberOfBytes": "32",
        "value": "t_uint256"
      },
      "t_string_storage": {
        "encoding": "bytes",
        "label": "string",
        "numberOfBytes": "32"
      },
      "t_uint256": {
        "encoding": "inplace",
        "label": "uint256",
        "numberOfBytes": "32"
      }
    }
  }
}